:100000000C9431000C944A040C944E000C944E0055
:100010000C944E000C944E000C944E000C944E0028
:100020000C944E000C944E000C944E000C94590409
:100030000C944E000C944E000C944E000C944E0008
:100040000C944E000C944E000C944E000C944E00F8
:100050000C944E0024064B06790653065F066E0686
:10006000830611241FBECFE5D8E0DEBFCDBF10E070
:10007000A0E6B0E0E2E3F1E102C005900D92AC38F9
:10008000B107D9F720E0ACE8B0E001C01D92AA3C6E
:10009000B207E1F70E9498060C9497080C940000B0
:1000A000813091F487B3886B87BB6C9A603411F40C
:1000B000699A0BC0603111F4689A07C0643029F066
:1000C0008DB183608DB901C0BE9AC49AC3986E9AEF
:1000D00008958FB9779BFECF8FB10895C4989AE1A8
:1000E0009A95F1F700C00E9469008AE18A95F1F7BC
:1000F00000C08FEF0E9469009AE19A95F1F700C065
:10010000C49A0895AF92BF92CF92DF92EF92FF927E
:100110000F931F93CF93DF93A82EB62E6A01790118
:1001200081E0A81202C080E2B80E8AE18A95F1F758
:1001300000C0C4988AE18A95F1F700C08B2D0E9417
:1001400069008AE18A95F1F700C0C0E0D0E0CE15E1
:10015000DF05CCF4A1100BC080EAB81641F08FEF98
:100160000E946900F801EC0FFD1F808306C0F601B4
:10017000EC0FFD1F80810E9469008AE18A95F1F7EA
:1001800000C02196E4CFC49ADF91CF911F910F91C7
:10019000FF90EF90DF90CF90BF90AF900895DF92E7
:1001A000EF92FF920F931F93CF93DF9300D000D075
:1001B00000D0CDB7DEB7D82E962FE42E2FEF30E744
:1001C00082E0215030408040E1F700C00000FF2471
:1001D000F394F9820FEB10E021E030E0AE014F5FC5
:1001E0005F4F61E081E09E830E948200F98221E0FE
:1001F00030E0AE014F5F5F4F62E081E00E9482001D
:1002000083E0898321E030E0AE014F5F5F4F63E020
:1002100081E00E948200F98221E030E0AE014F5F70
:100220005F4F65E081E00E9482009E81913021F065
:10023000923011F48EE001C086E089830FEB10E06C
:1002400021E030E0AE014F5F5F4F66E081E00E9449
:10025000820092E199839A839B839C839D8325E00E
:1002600030E0AE014F5F5F4F6AE081E00E948200A4
:1002700025E030E0AE014F5F5F4F60E181E00E941A
:1002800082008FEF8E0D853010F4E98202C081E08C
:1002900089830FEB10E021E030E0AE014F5F5F4F4C
:1002A00061E181E00E94820083E2898321E030E005
:1002B000AE014F5F5F4F64E081E00E948200D11089
:1002C00005C01092B5008EE1898307C081E080935C
:1002D000B5008FE189830FEB10E021E030E0AE0143
:1002E0004F5F5F4F60E081E00E9482008FE19EE4FB
:1002F0000197F1F700C0000026960FB6F894DEBF14
:100300000FBECDBFDF91CF911F910F91FF90EF9066
:10031000DF90089589B38095817090E0089587E01B
:100320000E946E0021E030E08E3211F020E030E0DB
:10033000C901089587E00E946E0021E030E080341A
:1003400011F020E030E0C901089587E00E946E00BE
:1003500021E030E08E3011F020E030E0C901089556
:10036000C3980895C39A08958AE18A95F1F700C069
:10037000C4988AE18A95F1F700C087E20E9469007B
:100380008AE18A95F1F700C080E70E9469008AE15E
:100390008A95F1F700C0C49A08950F931F93CF93E5
:1003A000DF9300D000D01F92CDB7DEB78FE18983F5
:1003B0000FEB10E021E030E0AE014F5F5F4F60E0F7
:1003C00081E00E9482000F900F900F900F900F908D
:1003D000DF91CF911F910F9108950F931F93CF93AA
:1003E000DF9300D000D01F92CDB7DEB78EE18983B6
:1003F0000FEB10E021E030E0AE014F5F5F4F60E0B7
:1004000081E00E9482000F900F900F900F900F904C
:10041000DF91CF911F910F910895FF920F931F933A
:10042000CF93DF93EC01F62E0E94B4010FEB10E0A6
:1004300020E030E0AE0161EE80E00E9482002F2DCE
:1004400030E0AE0160EA80E00E948200DF91CF914F
:100450001F910F91FF900895C39A87E592E001974D
:10046000F1F700C00000C39808950F931F932AE18D
:100470002A95F1F700C0C398262F30E08C014FEB8E
:1004800050E061E680E00E9482008AE18A95F1F7FF
:1004900000C082EE0E9469002AE12A95F1F700C0AF
:1004A0000E94B4018AE18A95F1F700C01F910F9173
:1004B0000895FA0160837183828393830895FC0118
:1004C0006081718182819381089510BC83E389B931
:1004D00080B58E6A80BD8AB188698AB908955D9BAE
:1004E000FECF8CB908955F9BFECF8CB108950F931A
:1004F0001F93CF93DF93C7E0D0E0082F10E0C8012F
:100500000C2E02C0959587950A94E2F780FF02C0F1
:1005100081E301C080E30E946F02219780F78DE0A4
:10052000DF91CF911F910F910C946F02EF92FF9288
:100530000F931F93CF93DF938C01EC01E62EF12CE8
:10054000CE01801B910B8E159F0524F489910E948A
:100550006F02F6CF8DE0DF91CF911F910F91FF9049
:10056000EF900C946F020F931F93CF93DF93EC01E6
:100570008C01FE0101900020E9F73197EC1BFD0B87
:10058000C8018C1B9D0B8E179F0730F4F8018191D9
:100590008F010E946F02EDCF8DE0DF91CF911F910F
:1005A0000F910C946F027F928F929F92AF92BF92A5
:1005B000CF92DF92EF92FF920F931F93CF93DF932F
:1005C000CDB7DEB764970FB6F894DEBF0FBECDBFD0
:1005D0006B017C016115710581059105B1F480E322
:1005E00064960FB6F894DEBF0FBECDBFDF91CF91FA
:1005F0001F910F91FF90EF90DF90CF90BF90AF9041
:100600009F908F907F900C946F0297FF0BC0F09497
:10061000E094D094C094C11CD11CE11CF11C8DE26B
:100620000E946F02712C9AE0892E912CA12CB12C82
:1006300001E010E00C0F1D1F070D111DC701B601D1
:10064000A50194010E940607F801608369017A01FF
:100650007394C114D104E104F10451F700E010E0F7
:10066000E72CF12CCC24C394D12CCC0EDD1ECE0C67
:10067000DF1C01501109C701800F911F019641F045
:10068000F601E00FF11F8081805D0E946F02F1CFC3
:1006900064960FB6F894DEBF0FBECDBFDF91CF9149
:1006A0001F910F91FF90EF90DF90CF90BF90AF9090
:1006B0009F908F907F9008958F929F92AF92BF925C
:1006C000CF92DF92EF92FF920F931F93CF93DF931E
:1006D000CDB7DEB764970FB6F894DEBF0FBECDBFBF
:1006E0008A01611571058105910531F480E3FA01F4
:1006F000808381E090E046C097FF0DC09095809583
:10070000709561957F4F8F4F9F4F2DE2FA012083A7
:10071000DD24D39401C0D12CC12C3AE0832E912C3E
:10072000A12CB12CEE24E394F12CEC0EFD1EEC0C6C
:10073000F11CA50194010E940607F7016083B9012D
:10074000CA01C394611571058105910559F77C2D86
:100750007D0D80E090E041E050E04C0F5D1F4C0DBE
:10076000511D01972D2D30E0D71659F0D801A20F59
:10077000B31FFA01E80FF91F6081605D6C93D39499
:10078000F0CFC90164960FB6F894DEBF0FBECDBF9F
:10079000DF91CF911F910F91FF90EF90DF90CF905D
:1007A000BF90AF909F908F900895CF92DF92EF927D
:1007B000FF92CF93C82F6A017B0180E50E946F02F0
:1007C0008C2F0E946F0220E030E048EC52E4C70119
:1007D000B6010E9434080E94B2070E94D3028DE045
:1007E000CF91FF90EF90DF90CF900C946F021F930A
:1007F000CF93DF9300D0CDB7DEB7182F80E54A83C3
:1008000069830E946F02812F0E946F02698170E0EC
:1008100080E090E00E94D3028CE20E946F024A8145
:10082000642F70E080E090E00E94D3028DE00F9092
:100830000F90DF91CF911F910C946F02FC0180818A
:10084000823879F018F4813831F00895833881F0D6
:100850008438A1F00895418152816381748188E5D3
:1008600005C0418152816381748189E50C94D5036F
:10087000418152816381748181E4F8CF4281618139
:1008800085E40C94F70385B7836085BF8BB78064DC
:100890008BBF08951F920F920FB60F921124B09B39
:1008A00002C0969A01C096980F900FBE0F901F90AD
:1008B00018951F920F920FB60F9211242F933F930A
:1008C0004F935F936F937F938F939F93AF93BF9358
:1008D000EF93FF9380EE82BF8091BD008F5F809386
:1008E000BD0021E02093BC0080918C0090918D0090
:1008F000019690938D0080938C003091BB003F5FF8
:100900003093BB003091BB00353620F02093BB0004
:100910002093BE00883E93400CF446C020E030E0B7
:1009200040E85FE36091AB007091AC008091AD0056
:100930009091AE000E944E076093AB007093AC00A4
:100940008093AD009093AE0020E030E040E85FE39C
:100950006091A7007091A8008091A9009091AA00D1
:100960000E944E076093A7007093A8008093A9008F
:100970009093AA0020E030E040E85FE36091A3009C
:100980007091A4008091A5009091A6000E944E074E
:100990006093A3007093A4008093A5009093A60099
:1009A00010928D0010928C00FF91EF91BF91AF914A
:1009B0009F918F917F916F915F914F913F912F9177
:1009C0000F900FBE0F901F9018958091BC00882348
:1009D00009F455C01092BC008091BB006AE00E94EF
:1009E000FA06911128C080919400209196008217F8
:1009F00038F4833210F483E201C08F5F8093940057
:100A00008091930090919500891738F4833210F407
:100A100083E201C08F5F8093930080919400281738
:100A200018F481508093940080919300981718F4E3
:100A30008150809393009091BB008091930089171F
:100A400050F080919100811103C0DA98D99A05C0C5
:100A5000D998DA9A02C0D998DA989091BB0080911F
:100A60009400891750F080919200813019F4DC983D
:100A7000DB9A0895DB98DC9A0895DB98DC9808955A
:100A80008091BE008823B9F01092BE00809198003A
:100A9000882329F0109298001092970005C0809149
:100AA00097008F5F8093970080919700843018F0B3
:100AB00086E080939A00089580E790E0909361002B
:100AC000809360000E94B3028091B6000C9477027C
:100AD000FC018081863009F49DC008F5833009F45B
:100AE00076C098F4813009F45DC0823009F09EC070
:100AF00081819281A381B48180939B0090939C001B
:100B0000A0939D00B0939E0091C0843009F47EC0F4
:100B1000853009F08BC081E080938F0087C08238D8
:100B200011F188F48F3309F479C0813809F07EC05F
:100B30008093C4008091AB009091AC00A091AD0077
:100B4000B091AE0025C08338C9F0843809F06EC07A
:100B50008093C400809194008093C500809193009D
:100B60008093C6001DC08093C4008091A70090911F
:100B7000A800A091A900B091AA000AC08093C40067
:100B80008091A3009091A400A091A500B091A6002F
:100B90008093C5009093C600A093C700B093C8008F
:100BA00081E0089581819281A381B48180939F0027
:100BB0009093A000A093A100B093A2008093AB00FB
:100BC0009093AC00A093AD00B093AE002FC02181F4
:100BD000322F3F77309396008281982F9F779093A2
:100BE0009500332341F027FF03C01092920003C009
:100BF00021E0209392009923C9F087FF03C010924F
:100C0000910014C081E08093910010C081E0809336
:100C100090000CC0828180938E0008C010929600D4
:100C2000109295001092900010928F0080E008952D
:100C300080919A0090E08730910508F078C0FC011F
:100C4000E65DFF4F0C9425070E948A01892B09F469
:100C50006EC081E0809398000E94B0010E94A501BF
:100C6000892B31F465E086EB90E00E943502F6CFE7
:100C700086EB90E00E946805882359F00E94ED0100
:100C800081E080939A008091BD00845E80939900FA
:100C900008950C94B2019091BD0080919900981331
:100CA00046C083E042C065E084EC90E00E940D0203
:100CB0008091BD00865F8093990084E036C090915A
:100CC000BD0080919900981332C00E942C0280913F
:100CD000BD00865F8093990085E027C00E948A014D
:100CE000892BC9F49091BD008091990098131FC081
:100CF00012C09091BD0080919900981318C0109275
:100D00009A00C39A0895109295001092960010923E
:100D1000900010928F000E94B4010E94CD0180913A
:100D2000BD00865F8093990082E080939A000895C9
:100D30008EE18ABB81E08BBB8E9A2FEF89E698E12A
:100D4000215080409040E1F700C0000060E081E069
:100D50000E9450002FEF89E698E12150804090409A
:100D6000E1F700C0000045E060E081E00E94CF00B4
:100D70002FEF80E792E0215080409040E1F700C0E3
:100D800000000E94650283B7846083BF89B78160D9
:100D900089BF0E94430478942FEF80E792E02150AE
:100DA00080409040E1F700C000008BE790E0909316
:100DB0006100809360000E94B30287E00E946E0091
:100DC0000E9477022FEF83ED90E321508040904006
:100DD000E1F700C00000C39A0E9418060E94E504D3
:100DE0000E944005F9CFE6EBF0E080818F5F8083C1
:100DF000CF010895991B79E004C0991F961708F058
:100E0000961B881F7A95C9F780950895052E97FB44
:100E10001EF400940E941D0757FD07D00E942B0767
:100E200007FC03D04EF40C941D0750954095309567
:100E300021953F4F4F4F5F4F089590958095709546
:100E400061957F4F8F4F9F4F0895EE0FFF1F0590C5
:100E5000F491E02D0994A1E21A2EAA1BBB1BFD01FF
:100E60000DC0AA1FBB1FEE1FFF1FA217B307E40789
:100E7000F50720F0A21BB30BE40BF50B661F771FE1
:100E8000881F991F1A9469F76095709580959095C1
:100E90009B01AC01BD01CF0108955058BB27AA2783
:100EA0000ED0A8C099D030F09ED020F031F49F3FF2
:100EB00011F41EF48EC00EF4E095E7FB84C0E92F18
:100EC000AAD080F3BA17620773078407950718F052
:100ED00071F49EF5C2C00EF4E0950B2EBA2FA02D32
:100EE0000B01B90190010C01CA01A0011124FF27D7
:100EF000591B99F0593F50F4503E68F11A16F040D2
:100F0000A22F232F342F4427585FF3CF46953795D0
:100F10002795A795F0405395C9F77EF41F16BA0B95
:100F2000620B730B840BBAF09150A1F0FF0FBB1F43
:100F3000661F771F881FC2F70EC0BA0F621F731F8C
:100F4000841F48F4879577956795B795F7959E3FE9
:100F500008F0B3CF9395880F08F09927EE0F979577
:100F60008795089504D06894B11178C008955BD036
:100F700088F09F5790F0B92F9927B751A0F0D1F082
:100F8000660F771F881F991F1AF0BA95C9F712C00C
:100F9000B13081F062D0B1E008955FC0672F782F43
:100FA0008827B85F39F0B93FCCF386957795679578
:100FB000B395D9F73EF490958095709561957F4FE4
:100FC0008F4F9F4F089597F99F6780E870E060E02A
:100FD00008959FEF80EC089500240A9416161706D2
:100FE00018060906089500240A941216130614061A
:100FF00005060895092E0394000C11F4882352F07D
:10100000BB0F40F4BF2B11F460FF04C06F5F7F4F34
:101010008F4F9F4F089557FD9058440F551F59F01B
:101020005F3F71F04795880F97FB991F61F09F3FD5
:1010300079F087950895121613061406551FF2CFFE
:101040004695F1DF08C0161617061806991FF1CF4E
:1010500086957105610508940895E894BB27662775
:101060007727CB0197F908950BD0C4CFB5DF28F0CF
:10107000BADF18F0952309F0A6CFABCF1124EECF3D
:10108000CADFA0F3959FD1F3950F50E0551F629FE3
:10109000F001729FBB27F00DB11D639FAA27F00DD1
:1010A000B11DAA1F649F6627B00DA11D661F829FF8
:1010B0002227B00DA11D621F739FB00DA11D621FDD
:1010C000839FA00D611D221F749F3327A00D611DFA
:1010D000231F849F600D211D822F762F6A2F1124DC
:1010E0009F5750408AF0E1F088234AF0EE0FFF1F2F
:1010F000BB1F661F771F881F91505040A9F79E3F66
:10110000510570F060CFAACF5F3FECF3983EDCF35F
:10111000869577956795B795F795E7959F5FC1F7A2
:10112000FE2B880F911D9695879597F90895F89451
:02113000FFCFEF
:101132008A000D8182838405010203040506073FAC
:101142000952656365697665642100496E6974694F
:0C115200616C697A6174696F6E00610065
:00000001FF
