:100000000C942A000C9447000C9447000C94470071
:100010000C9447000C9447000C9447000C94470044
:100020000C9447000C9447000C9447000C943C043B
:100030000C9447000C9447000C9447000C94470024
:100040000C9447000C9447000C9447000C94470014
:100050000C94470011241FBECFE5D8E0DEBFCDBF12
:1000600010E0A0E6B0E0ECE7F0E102C005900D92F0
:10007000AC38B107D9F720E0ACE8B0E001C01D9280
:10008000A63CB207E1F70E944A060C943C080C9487
:100090000000813091F487B3886B87BB6C9A603421
:1000A00011F4699A0BC0603111F4689A07C064308A
:1000B00029F08DB183608DB901C0BE9AC49AC398EE
:1000C0006E9A08958FB9779BFECF8FB10895C4982B
:1000D0009AE19A95F1F700C00E9462008AE18A9540
:1000E000F1F700C08FEF0E9462009AE19A95F1F754
:1000F00000C0C49A0895AF92BF92CF92DF92EF9260
:10010000FF920F931F93CF93DF93A82EB62E6A0111
:10011000790181E0A81202C080E2B80E8AE18A95D6
:10012000F1F700C0C4988AE18A95F1F700C08B2DE1
:100130000E9462008AE18A95F1F700C0C0E0D0E039
:10014000CE15DF05CCF4A1100BC080EAB81641F043
:100150008FEF0E946200F801EC0FFD1F808306C044
:10016000F601EC0FFD1F80810E9462008AE18A95F2
:10017000F1F700C02196E4CFC49ADF91CF911F918F
:100180000F91FF90EF90DF90CF90BF90AF900895C8
:10019000DF92EF92FF920F931F93CF93DF9300D0E4
:1001A00000D000D0CDB7DEB7D82E962FE42E2FEF9B
:1001B00030E782E0215030408040E1F700C000008D
:1001C000FF24F394F9820BEB10E021E030E0AE0164
:1001D0004F5F5F4F61E081E09E830E947B00F98268
:1001E00021E030E0AE014F5F5F4F62E081E00E94AE
:1001F0007B0083E0898321E030E0AE014F5F5F4FF9
:1002000063E081E00E947B00F98221E030E0AE01F2
:100210004F5F5F4F65E081E00E947B009E819130DF
:1002200021F0923011F48EE001C086E089830BEB5F
:1002300010E021E030E0AE014F5F5F4F66E081E00B
:100240000E947B0092E199839A839B839C839D8388
:1002500025E030E0AE014F5F5F4F6AE081E00E9431
:100260007B0025E030E0AE014F5F5F4F60E181E051
:100270000E947B008FEF8E0D853010F4E98202C062
:1002800081E089830BEB10E021E030E0AE014F5FAD
:100290005F4F61E181E00E947B0083E2898321E07E
:1002A00030E0AE014F5F5F4F64E081E00E947B0071
:1002B000D11005C01092B3008EE1898307C081E0A0
:1002C0008093B3008FE189830BEB10E021E030E0F5
:1002D000AE014F5F5F4F60E081E00E947B008FE1E5
:1002E0009EE40197F1F700C0000026960FB6F8943F
:1002F000DEBF0FBECDBFDF91CF911F910F91FF9059
:10030000EF90DF90089589B38095817090E0089513
:1003100087E00E94670021E030E08E3211F020E09B
:1003200030E0C901089587E00E94670021E030E0D5
:10033000803411F020E030E0C901089587E00E9488
:10034000670021E030E08E3011F020E030E0C9019C
:100350000895C3980895C39A08958AE18A95F1F79C
:1003600000C0C4988AE18A95F1F700C087E20E9434
:1003700062008AE18A95F1F700C080E70E9462007E
:100380008AE18A95F1F700C0C49A08950F931F93EC
:10039000CF93DF9300D000D01F92CDB7DEB78FE1AF
:1003A00089830BEB10E021E030E0AE014F5F5F4F3F
:1003B00060E081E00E947B000F900F900F900F9003
:1003C0000F90DF91CF911F910F9108950F931F937D
:1003D000CF93DF9300D000D01F92CDB7DEB78EE170
:1003E00089830BEB10E021E030E0AE014F5F5F4FFF
:1003F00060E081E00E947B000F900F900F900F90C3
:100400000F90DF91CF911F910F910895FF920F935D
:100410001F93CF93DF93EC01F62E0E94AD010BEBFF
:1004200010E020E030E0AE0161EE80E00E947B0051
:100430002F2D30E0AE0160EA80E00E947B00DF916A
:10044000CF911F910F91FF900895C39A87E592E095
:100450000197F1F700C00000C39808950F931F9310
:100460002AE12A95F1F700C0C398262F30E08C01CD
:100470004BEB50E061E680E00E947B008AE18A95C8
:10048000F1F700C082EE0E9462002AE12A95F1F79E
:1004900000C00E94AD018AE18A95F1F700C01F916A
:1004A0000F910895FA016083718382839383089585
:1004B000FC016081718182819381089510BC83E386
:1004C00089B980B58E6A80BD8AB188698AB9089574
:1004D0005D9BFECF8CB908955F9BFECF8CB10895D4
:1004E0000F931F93CF93DF93C7E0D0E0082F10E066
:1004F000C8010C2E02C0959587950A94E2F780FFFB
:1005000002C081E301C080E30E946802219780F766
:100510008DE0DF91CF911F910F910C946802EF92C3
:10052000FF920F931F93CF93DF938C01EC01E62E84
:10053000F12CCE01801B910B8E159F0524F489911F
:100540000E946802F6CF8DE0DF91CF911F910F914D
:10055000FF90EF900C9468020F931F93CF93DF935B
:10056000EC018C01FE0101900020E9F73197EC1BB2
:10057000FD0BC8018C1B9D0B8E179F0730F4F801F3
:1005800081918F010E946802EDCF8DE0DF91CF91C4
:100590001F910F910C9468027F928F929F92AF925D
:1005A000BF92CF92DF92EF92FF920F931F93CF9360
:1005B000DF93CDB7DEB764970FB6F894DEBF0FBEFA
:1005C000CDBF6B017C016115710581059105B1F409
:1005D00080E364960FB6F894DEBF0FBECDBFDF9107
:1005E000CF911F910F91FF90EF90DF90CF90BF9030
:1005F000AF909F908F907F900C94680297FF0BC0F4
:10060000F094E094D094C094C11CD11CE11CF11C66
:100610008DE20E946802712C9AE0892E912CA12C07
:10062000B12C01E010E00C0F1D1F070D111DC701BB
:10063000B601A50194010E94B106F8016083690129
:100640007A017394C114D104E104F10451F700E07C
:1006500010E0E72CF12CCC24C394D12CCC0EDD1E61
:10066000CE0CDF1C01501109C701800F911F0196AC
:1006700041F0F601E00FF11F8081805D0E94680269
:10068000F1CF64960FB6F894DEBF0FBECDBFDF91F9
:10069000CF911F910F91FF90EF90DF90CF90BF907F
:1006A000AF909F908F907F9008958F929F92AF927E
:1006B000BF92CF92DF92EF92FF920F931F93CF934F
:1006C000DF93CDB7DEB764970FB6F894DEBF0FBEE9
:1006D000CDBF8A01611571058105910531F480E373
:1006E000FA01808381E090E046C097FF0DC09095AD
:1006F0008095709561957F4F8F4F9F4F2DE2FA0146
:100700002083DD24D39401C0D12CC12C3AE0832E68
:10071000912CA12CB12CEE24E394F12CEC0EFD1EB7
:10072000EC0CF11CA50194010E94B106F701608355
:10073000B901CA01C394611571058105910559F785
:100740007C2D7D0D80E090E041E050E04C0F5D1F7E
:100750004C0D511D01972D2D30E0D71659F0D801C1
:10076000A20FB31FFA01E80FF91F6081605D6C935F
:10077000D394F0CFC90164960FB6F894DEBF0FBED4
:10078000CDBFDF91CF911F910F91FF90EF90DF9040
:10079000CF90BF90AF909F908F900895CF92DF92AF
:1007A000EF92FF92CF93C82F6A017B0180E50E94F0
:1007B00068028C2F0E94680220E030E048EC52E48E
:1007C000C701B6010E94D9070E9457070E94CC02B8
:1007D0008DE0CF91FF90EF90DF90CF900C94680266
:1007E0001F93CF93DF9300D0CDB7DEB7182F80E5EE
:1007F0004A8369830E946802812F0E94680269818E
:1008000070E080E090E00E94CC028CE20E946802DE
:100810004A81642F70E080E090E00E94CC028DE07D
:100820000F900F90DF91CF911F910C946802FC0103
:100830008081823879F018F4813831F00895833856
:1008400081F08438A1F008954181528163817481DF
:1008500088E505C0418152816381748189E50C94EA
:10086000CE03418152816381748181E4F8CF42815A
:10087000618185E40C94F0031F920F920FB60F92E2
:1008800011242F933F934F935F936F937F938F9395
:100890009F93AF93BF93EF93FF9380EE82BF8091BE
:1008A000BA008F5F8093BA0080918E0090918F0084
:1008B000019690938F0080938E008091B9008F5F96
:1008C0008093B9008091B900853618F081E080935B
:1008D000B9008091B9006AE00E94A506911120C07C
:1008E0008091960020919800821718F48F5F809372
:1008F00096008091950090919700891718F48F5F6A
:100900008093950080919600281718F48150809369
:10091000960080919500981718F481508093950067
:100920009091B90080919500891750F080919300C3
:10093000811103C0DA98D99A05C0D998DA9A02C011
:10094000D998DA989091B90080919600891750F063
:1009500080919400813019F4DC98DB9A05C0DB9813
:10096000DC9A02C0DB98DC9880918E0090918F0019
:10097000883E93400CF446C020E030E040E85FE35E
:100980006091A9007091AA008091AB009091AC0099
:100990000E94F3066093A9007093AA008093AB00B5
:1009A0009093AC0020E030E040E85FE36091A50068
:1009B0007091A6008091A7009091A8000E94F30674
:1009C0006093A5007093A6008093A7009093A80061
:1009D00020E030E040E85FE36091A1007091A20068
:1009E0008091A3009091A4000E94F3066093A1005F
:1009F0007093A2008093A3009093A40010928F00A4
:100A000010928E00FF91EF91BF91AF919F918F91C6
:100A10007F916F915F914F913F912F910F900FBEFA
:100A20000F901F90189580E790E09093610080935D
:100A300060000E94AC028091B4000C947002FC0132
:100A40008081863009F49DC008F5833009F476C0B2
:100A500098F4813009F45DC0823009F09EC0818134
:100A60009281A381B4818093990090939A00A0937E
:100A70009B00B0939C0091C0843009F47EC0853007
:100A800009F08BC081E08093910087C0823811F11A
:100A900088F48F3309F479C0813809F07EC08093DF
:100AA000C0008091A9009091AA00A091AB00B091E4
:100AB000AC0025C08338C9F0843809F06EC080933B
:100AC000C000809196008093C10080919500809332
:100AD000C2001DC08093C0008091A5009091A60027
:100AE000A091A700B091A8000AC08093C000809197
:100AF000A1009091A200A091A300B091A4008093C6
:100B0000C1009093C200A093C300B093C40081E0E1
:100B1000089581819281A381B48180939D009093F7
:100B20009E00A0939F00B093A0008093A900909393
:100B3000AA00A093AB00B093AC002FC02181322F4C
:100B40003F77309398008281982F9F7790939700FA
:100B5000332341F027FF03C01092940003C021E02B
:100B6000209394009923C9F087FF03C0109293004B
:100B700014C081E08093930010C081E080939200C4
:100B80000CC082818093900008C01092980010924F
:100B90009700109292001092910080E00895809149
:100BA0008D00823009F46CC028F4882359F081301C
:100BB00069F10895843009F43FC080F1853009F46B
:100BC0004AC008950E948301892B09F462C00E94E3
:100BD000A9010E949E01892B31F465E084EB90E02D
:100BE0000E942E02F6CF84EB90E00E941F0588231E
:100BF00059F00E94E60181E080938D008091BA0057
:100C0000845E80938C0008950C94AB019091BA009F
:100C100080918C0098133DC083E00BC065E080ECB0
:100C200090E00E9406028091BA00865F80938C005B
:100C300084E080938D0008959091BA0080918C009B
:100C4000981327C00E9425028091BA00865F809386
:100C50008C0085E0EECF0E948301892B31F49091C6
:100C6000BA0080918C00981314C00E94AD010E94BC
:100C7000C6018091BA00865F80938C0082E0D9CF54
:100C80009091BA0080918C00981303C010928D004F
:100C9000C39A08958EE18ABB81E08BBB2FEF89E672
:100CA00098E1215080409040E1F700C0000060E0F2
:100CB00081E00E9449002FEF89E698E121508040B1
:100CC0009040E1F700C0000045E060E081E00E9454
:100CD000C8002FEF80E792E0215080409040E1F77C
:100CE00000C000000E945E0283B7846083BF89B7A2
:100CF000816089BF78942FEF80E792E02150804097
:100D00009040E1F700C000008BE790E09093610015
:100D1000809360000E94AC0287E00E9467000E94FE
:100D200070022FEF83ED90E3215080409040E1F777
:100D300000C00000C39A0E94CF05FDCFE4EBF0E0B5
:100D400080818F5F8083CF010895991B79E004C073
:100D5000991F961708F0961B881F7A95C9F78095FA
:100D60000895052E97FB1EF400940E94C80657FDB7
:100D700007D00E94D00607FC03D04EF40C94C8069E
:100D800050954095309521953F4F4F4F5F4F0895B7
:100D900090958095709561957F4F8F4F9F4F0895E7
:100DA000A1E21A2EAA1BBB1BFD010DC0AA1FBB1F6F
:100DB000EE1FFF1FA217B307E407F50720F0A21BE1
:100DC000B30BE40BF50B661F771F881F991F1A944E
:100DD00069F760957095809590959B01AC01BD0178
:100DE000CF0108955058BB27AA270ED0A8C099D08C
:100DF00030F09ED020F031F49F3F11F41EF48EC0ED
:100E00000EF4E095E7FB84C0E92FAAD080F3BA176F
:100E1000620773078407950718F071F49EF5C2C046
:100E20000EF4E0950B2EBA2FA02D0B01B901900105
:100E30000C01CA01A0011124FF27591B99F0593F49
:100E400050F4503E68F11A16F040A22F232F342F91
:100E50004427585FF3CF469537952795A795F040DF
:100E60005395C9F77EF41F16BA0B620B730B840BF4
:100E7000BAF09150A1F0FF0FBB1F661F771F881FAC
:100E8000C2F70EC0BA0F621F731F841F48F4879504
:100E900077956795B795F7959E3F08F0B3CF9395F3
:100EA000880F08F09927EE0F97958795089504D03D
:100EB0006894B11178C008955BD088F09F5790F086
:100EC000B92F9927B751A0F0D1F0660F771F881F6F
:100ED000991F1AF0BA95C9F712C0B13081F062D0EB
:100EE000B1E008955FC0672F782F8827B85F39F089
:100EF000B93FCCF3869577956795B395D9F73EF4CE
:100F000090958095709561957F4F8F4F9F4F089575
:100F100097F99F6780E870E060E008959FEF80ECAC
:100F2000089500240A94161617061806090608954F
:100F300000240A9412161306140605060895092EB5
:100F40000394000C11F4882352F0BB0F40F4BF2B24
:100F500011F460FF04C06F5F7F4F8F4F9F4F089564
:100F600057FD9058440F551F59F05F3F71F047955A
:100F7000880F97FB991F61F09F3F79F0879508953F
:100F8000121613061406551FF2CF4695F1DF08C05E
:100F9000161617061806991FF1CF8695710561057B
:100FA00008940895E894BB2766277727CB0197F923
:100FB00008950BD0C4CFB5DF28F0BADF18F0952321
:100FC00009F0A6CFABCF1124EECFCADFA0F3959FD7
:100FD000D1F3950F50E0551F629FF001729FBB2720
:100FE000F00DB11D639FAA27F00DB11DAA1F649FCC
:100FF0006627B00DA11D661F829F2227B00DA11D7F
:10100000621F739FB00DA11D621F839FA00D611D04
:10101000221F749F3327A00D611D231F849F600D25
:10102000211D822F762F6A2F11249F5750408AF05E
:10103000E1F088234AF0EE0FFF1FBB1F661F771FEA
:10104000881F91505040A9F79E3F510570F060CF26
:10105000AACF5F3FECF3983EDCF3869577956795D2
:10106000B795F795E7959F5FC1F7FE2B880F911D08
:0C1070009695879597F90895F894FFCFA6
:10107C008A000D8182838405010203040506073F63
:10108C000952656365697665642100496E69746906
:0C109C00616C697A6174696F6E0061001C
:00000001FF
