:100000000C942A000C9447000C9447000C94470071
:100010000C9447000C9447000C9447000C94470044
:100020000C9447000C9447000C9447000C940F0468
:100030000C9447000C9447000C9447000C94470024
:100040000C9447000C9447000C9447000C94470014
:100050000C94470011241FBECFE5D8E0DEBFCDBF12
:1000600010E0A0E6B0E0E4E7FFE002C005900D92EA
:10007000A63BB107D9F720E0A6EBB0E001C01D9286
:10008000AF3EB207E1F70E94D3050C94B8070C9479
:100090000000813091F487B3886B87BB6C9A603421
:1000A00011F4699A0BC0603111F4689A07C064308A
:1000B00029F08DB183608DB901C0BE9AC49AC398EE
:1000C0006E9A08958FB9779BFECF8FB10895C4982B
:1000D0009AE19A95F1F700C00E9462008AE18A9540
:1000E000F1F700C08FEF0E9462009AE19A95F1F754
:1000F00000C0C49A0895AF92BF92CF92DF92EF9260
:10010000FF920F931F93CF93DF93A82EB62E6A0111
:10011000790181E0A81202C080E2B80E8AE18A95D6
:10012000F1F700C0C4988AE18A95F1F700C08B2DE1
:100130000E9462008AE18A95F1F700C0C0E0D0E039
:10014000CE15DF05CCF4A1100BC080EAB81641F043
:100150008FEF0E946200F801EC0FFD1F808306C044
:10016000F601EC0FFD1F80810E9462008AE18A95F2
:10017000F1F700C02196E4CFC49ADF91CF911F918F
:100180000F91FF90EF90DF90CF90BF90AF900895C8
:10019000DF92EF92FF920F931F93CF93DF9300D0E4
:1001A00000D000D0CDB7DEB7D82E962FE42E2FEF9B
:1001B00030E782E0215030408040E1F700C000008D
:1001C000FF24F394F98204EE10E021E030E0AE0168
:1001D0004F5F5F4F61E081E09E830E947B00F98268
:1001E00021E030E0AE014F5F5F4F62E081E00E94AE
:1001F0007B0083E0898321E030E0AE014F5F5F4FF9
:1002000063E081E00E947B00F98221E030E0AE01F2
:100210004F5F5F4F65E081E00E947B009E819130DF
:1002200021F0923011F48EE001C086E0898304EE63
:1002300010E021E030E0AE014F5F5F4F66E081E00B
:100240000E947B0092E199839A839B839C839D8388
:1002500025E030E0AE014F5F5F4F6AE081E00E9431
:100260007B0025E030E0AE014F5F5F4F60E181E051
:100270000E947B008FEF8E0D853010F4E98202C062
:1002800081E0898304EE10E021E030E0AE014F5FB1
:100290005F4F61E181E00E947B0083E2898321E07E
:1002A00030E0AE014F5F5F4F64E081E00E947B0071
:1002B000D11005C01092DD008EE1898307C081E076
:1002C0008093DD008FE1898304EE10E021E030E0CF
:1002D000AE014F5F5F4F60E081E00E947B008FE1E5
:1002E0009EE40197F1F700C0000026960FB6F8943F
:1002F000DEBF0FBECDBFDF91CF911F910F91FF9059
:10030000EF90DF9008958AE18A95F1F700C0C498D4
:100310008AE18A95F1F700C087E20E9462008AE1D3
:100320008A95F1F700C080E70E9462008AE18A9511
:10033000F1F700C0C49A08950F931F93CF93DF93F2
:1003400000D000D01F92CDB7DEB78FE1898304EED5
:1003500010E021E030E0AE014F5F5F4F60E081E0F0
:100360000E947B000F900F900F900F900F90DF91E5
:10037000CF911F910F9108950F931F93CF93DF9308
:1003800000D000D01F92CDB7DEB78EE1898304EE96
:1003900010E021E030E0AE014F5F5F4F60E081E0B0
:1003A0000E947B000F900F900F900F900F90DF91A5
:1003B000CF911F910F910895FF920F931F93CF93A9
:1003C000DF93EC01F62E0E94830104EE10E020E0A2
:1003D00030E0AE0161EE80E00E947B002F2D30E026
:1003E000AE0160EA80E00E947B00DF91CF911F9117
:1003F0000F91FF900895C39A8FE891E00197F1F76C
:1004000000C00000C39808950F931F932AE12A9516
:10041000F1F700C0C398262F30E08C0144EE50E085
:1004200061E680E00E947B008AE18A95F1F700C0D6
:1004300082EE0E9462002AE12A95F1F700C00E9434
:1004400083018AE18A95F1F700C01F910F91089509
:10045000FA0160837183828393830895FC01608134
:10046000718182819381089510BC83E389B980B53D
:100470008E6A80BD8AB188698AB908955D9BFECF76
:100480008CB908955F9BFECF8CB108950F931F9395
:10049000CF93DF93C7E0D0E0082F10E0C8010C2E07
:1004A00002C0959587950A94E2F780FF02C081E328
:1004B00001C080E30E943E02219780F78DE0DF912A
:1004C000CF911F910F910C943E02EF92FF920F93E8
:1004D0001F93CF93DF938C01EC01E62EF12CCE011C
:1004E000801B910B8E159F0524F489910E943E027A
:1004F000F6CF8DE0DF91CF911F910F91FF90EF909C
:100500000C943E020F931F93CF93DF93EC018C0169
:10051000FE0101900020E9F73197EC1BFD0BC801AB
:100520008C1B9D0B8E179F0730F4F80181918F0172
:100530000E943E02EDCF8DE0DF91CF911F910F9190
:100540000C943E027F928F929F92AF92BF92CF9275
:10055000DF92EF92FF920F931F93CF93DF93CDB76C
:10056000DEB764970FB6F894DEBF0FBECDBF6B0148
:100570007C016115710581059105B1F480E36496F4
:100580000FB6F894DEBF0FBECDBFDF91CF911F91A4
:100590000F91FF90EF90DF90CF90BF90AF909F9022
:1005A0008F907F900C943E0297FF0BC0F094E094E4
:1005B000D094C094C11CD11CE11CF11C8DE20E949E
:1005C0003E02712C9AE0892E912CA12CB12C01E0D5
:1005D00010E00C0F1D1F070D111DC701B601A5016D
:1005E00094010E942D06F801608369017A017394D9
:1005F000C114D104E104F10451F700E010E0E72C4C
:10060000F12CCC24C394D12CCC0EDD1ECE0CDF1CDF
:1006100001501109C701800F911F019641F0F601A9
:10062000E00FF11F8081805D0E943E02F1CF649651
:100630000FB6F894DEBF0FBECDBFDF91CF911F91F3
:100640000F91FF90EF90DF90CF90BF90AF909F9071
:100650008F907F9008958F929F92AF92BF92CF928A
:10066000DF92EF92FF920F931F93CF93DF93CDB75B
:10067000DEB764970FB6F894DEBF0FBECDBF8A0118
:10068000611571058105910531F480E3FA018083DC
:1006900081E090E046C097FF0DC0909580957095E1
:1006A00061957F4F8F4F9F4F2DE2FA012083DD240C
:1006B000D39401C0D12CC12C3AE0832E912CA12CD3
:1006C000B12CEE24E394F12CEC0EFD1EEC0CF11C8D
:1006D000A50194010E942D06F7016083B901CA01AA
:1006E000C394611571058105910559F77C2D7D0D28
:1006F00080E090E041E050E04C0F5D1F4C0D511D3B
:1007000001972D2D30E0D71659F0D801A20FB31F55
:10071000FA01E80FF91F6081605D6C93D394F0CF0C
:10072000C90164960FB6F894DEBF0FBECDBFDF914E
:10073000CF911F910F91FF90EF90DF90CF90BF90DE
:10074000AF909F908F900895CF92DF92EF92FF929B
:10075000CF93C82F6A017B0180E50E943E028C2F57
:100760000E943E0220E030E048EC52E4C701B601AE
:100770000E9455070E94D3060E94A2028DE0CF91ED
:10078000FF90EF90DF90CF900C943E02CF93DF93D9
:1007900000D0CDB7DEB780E54A8369830E943E0270
:1007A00085E40E943E02698170E080E090E00E9452
:1007B000A2028CE20E943E024A81642F70E080E037
:1007C00090E00E94A2028DE00F900F90DF91CF91F8
:1007D0000C943E02FC018081823879F018F4813853
:1007E00031F00895833881F08438A1F00895418173
:1007F00052816381748188E505C0418152816381A2
:10080000748189E50C94A4034181528163817481D0
:1008100081E4F8CF4281618185E40C94C6031F9284
:100820000F920FB60F9211242F933F934F935F9324
:100830006F937F938F939F93AF93BF93EF93FF93A8
:1008400080EE82BF8091E3008F5F8093E300809110
:10085000B8009091B90001969093B9008093B800C8
:10086000883E93400CF458C020E030E040E85FE35D
:100870006091D3007091D4008091D5009091D60002
:100880000E946F066093D3007093D4008093D500CC
:100890009093D60020E030E040E85FE36091CF0025
:1008A0007091D0008091D1009091D2000E946F068B
:1008B0006093CF007093D0008093D1009093D200CA
:1008C00020E030E040E85FE36091CB007091CC0025
:1008D0008091CD009091CE000E946F066093CB0076
:1008E0007093CC008093CD009093CE008091BF0098
:1008F0008F5F8093BF009091C000843629F081E023
:10090000890F8093C00004C01092C0001092BF00F5
:100910001092B9001092B800FF91EF91BF91AF9182
:100920009F918F917F916F915F914F913F912F9107
:100930000F900FBE0F901F90189580E790E0909356
:100940006100809360000E9482028091DE000C941E
:100950004602FC018081863009F48DC008F58330A1
:1009600009F46EC098F4813009F45DC0823009F05A
:100970008EC081819281A381B4818093C3009093C2
:10098000C400A093C500B093C60081C0843009F4B0
:100990006EC0853009F07BC081E08093BB0077C0DA
:1009A000823811F188F48F3309F469C0813809F075
:1009B0006EC08093E9008091D3009091D400A09103
:1009C000D500B091D60025C08338C9F0843809F02D
:1009D0005EC08093E9008091C0008093EA0080911E
:1009E000BF008093EB001DC08093E9008091CF0091
:1009F0009091D000A091D100B091D2000AC0809314
:100A0000E9008091CB009091CC00A091CD00B091F5
:100A1000CE008093EA009093EB00A093EC00B0939B
:100A2000ED0081E0089581819281A381B48180935A
:100A3000C7009093C800A093C900B093CA0027C014
:100A400092819093C20083818093C10097FF03C07D
:100A50001092BE0003C091E09093BE0087FF03C0D8
:100A60001092BD0014C081E08093BD0010C081E0F1
:100A70008093BC000CC082818093BA0008C01092A1
:100A8000C2001092C1001092BC001092BB0080E026
:100A900008958091B700823009F47BC028F4882340
:100AA00051F0813041F108958430C9F160F1853011
:100AB00009F444C00895C89975C0C39887E00E949E
:100AC00067008E3031F065E08EED90E00E94040208
:100AD000F5CF8EED90E00E94A904882309F461C04F
:100AE0000E94BC0181E08093B7008091E300845EA6
:100AF0008093B60008959091E3008091B60098131A
:100B000051C083E043C065E089EE90E00E94DC01C3
:100B10008091E300865F8093B60084E037C09091B7
:100B2000E3008091B60098133DC00E94FB018091C4
:100B3000E300865F8093B60085E028C0C89B06C0AE
:100B40009091E3008091B60098132CC087E00E943A
:100B50006700803241F48BE790E0909361008093CE
:100B600060000E94820281E990E00E94820287E098
:100B70000E9467000E9446020E9483010E949C011D
:100B80008091E300865F8093B60082E08093B70097
:100B900008959091E3008091B600981303C01092DD
:100BA000B700C39A08951ABA81E08BBB2FEF89E68C
:100BB00098E1215080409040E1F700C0000060E0E3
:100BC00081E00E9449002FEF89E698E121508040A2
:100BD0009040E1F700C0000045E060E081E00E9445
:100BE000C8002FEF80E792E0215080409040E1F76D
:100BF00000C000000E94340283B7846083BF89B7BD
:100C0000816089BF78942FEF80E792E02150804087
:100C10009040E1F700C0000084EA90E0909361000A
:100C2000809360000E94820287E00E9467000E9419
:100C300046022FEF83ED90E3215080409040E1F792
:100C400000C00000C39A0E944905FDCFEEEDF0E020
:100C500080818F5F8083CF010895052E97FB1EF45E
:100C600000940E94440657FD07D00E944C0607FCE2
:100C700003D04EF40C944406509540953095219540
:100C80003F4F4F4F5F4F08959095809570956195B8
:100C90007F4F8F4F9F4F0895A1E21A2EAA1BBB1BB7
:100CA000FD010DC0AA1FBB1FEE1FFF1FA217B30738
:100CB000E407F50720F0A21BB30BE40BF50B661F4E
:100CC000771F881F991F1A9469F760957095809512
:100CD00090959B01AC01BD01CF0108955058BB27F1
:100CE000AA270ED0A8C099D030F09ED020F031F4C1
:100CF0009F3F11F41EF48EC00EF4E095E7FB84C014
:100D0000E92FAAD080F3BA17620773078407950703
:100D100018F071F49EF5C2C00EF4E0950B2EBA2FB8
:100D2000A02D0B01B90190010C01CA01A0011124F1
:100D3000FF27591B99F0593F50F4503E68F11A169D
:100D4000F040A22F232F342F4427585FF3CF46952E
:100D500037952795A795F0405395C9F77EF41F1650
:100D6000BA0B620B730B840BBAF09150A1F0FF0F1A
:100D7000BB1F661F771F881FC2F70EC0BA0F621F06
:100D8000731F841F48F4879577956795B795F795F6
:100D90009E3F08F0B3CF9395880F08F09927EE0F88
:100DA00097958795089504D06894B11178C00895F7
:100DB0005BD088F09F5790F0B92F9927B751A0F0DA
:100DC000D1F0660F771F881F991F1AF0BA95C9F7DF
:100DD00012C0B13081F062D0B1E008955FC0672FDA
:100DE000782F8827B85F39F0B93FCCF3869577958F
:100DF0006795B395D9F73EF4909580957095619578
:100E00007F4F8F4F9F4F089597F99F6780E870E05D
:100E100060E008959FEF80EC089500240A94161670
:100E2000170618060906089500240A9412161306D8
:100E3000140605060895092E0394000C11F4882366
:100E400052F0BB0F40F4BF2B11F460FF04C06F5F82
:100E50007F4F8F4F9F4F089557FD9058440F551F58
:100E600059F05F3F71F04795880F97FB991F61F02C
:100E70009F3F79F087950895121613061406551FA3
:100E8000F2CF4695F1DF08C0161617061806991F0F
:100E9000F1CF86957105610508940895E894BB2704
:100EA00066277727CB0197F908950BD0C4CFB5DF1C
:100EB00028F0BADF18F0952309F0A6CFABCF1124A4
:100EC000EECFCADFA0F3959FD1F3950F50E0551FE9
:100ED000629FF001729FBB27F00DB11D639FAA278F
:100EE000F00DB11DAA1F649F6627B00DA11D661FDE
:100EF000829F2227B00DA11D621F739FB00DA11DFF
:100F0000621F839FA00D611D221F749F3327A00DB8
:100F1000611D231F849F600D211D822F762F6A2F54
:100F200011249F5750408AF0E1F088234AF0EE0FD9
:100F3000FF1FBB1F661F771F881F91505040A9F7E6
:100F40009E3F510570F060CFAACF5F3FECF3983E13
:100F5000DCF3869577956795B795F795E7959F5F4D
:100F6000C1F7FE2B880F911D9695879597F90895E7
:040F7000F894FFCF23
:100F7400B3000D8182838405010203040506073F43
:100F84000952656365697665642100095472616E6E
:100F9400736D69742073756363657366756C6C2116
:100FA400006166746572207472616E736D69746930
:100FB4006F6E3A00496E697469616C697A6174692B
:060FC4006F6E00610000E9
:00000001FF
