:100000000C9440000C9410040C9435040C945D0086
:100010000C945D000C945D000C945D000C945D00EC
:100020000C945D000C945D000C945D000C945404E1
:100030000C945D000C945D000C945D000C945D00CC
:100040000C945D000C945D000C945D000C945D00BC
:100050000C945D00C906F6063107FD060807150772
:10006000390705A84CCDB2D44EB93836A9020C5088
:10007000B9918688083CA6AAAA2ABE000000803F43
:1000800011241FBECFE5D8E0DEBFCDBF10E0A0E653
:10009000B0E0EAEFF8E102C005900D92AA37B1078F
:1000A000D9F721E0AAE7B0E001C01D92A530B20760
:1000B000E1F70E945D070C947B0C0C9400008130EA
:1000C00091F487B3806B87BB6C9A603411F4699AA2
:1000D0000BC0603111F4689A07C0643029F08DB10B
:1000E00083608DB901C0BE9AC49AC2986E9A089571
:1000F000C4989AE19A95F1F700C08FB9779BFECF2B
:100100008FB18AE18A95F1F700C08FEF8FB9779BA5
:10011000FECF8FB19AE19A95F1F700C0C49A089585
:100120000F931F93813009F4605E7AE17A95F1F7BD
:1001300000C0C4989AE19A95F1F700C06FB9779B17
:10014000FECF9FB17AE17A95F1F700C0E0E0F0E0F0
:100150009FEFE217F307DCF481110BC0603A49F01E
:100160009FB9779BFECF7FB1D801AE0FBF1F7C93A5
:1001700008C0DA01AE0FBF1F7C917FB9779BFECF1D
:100180007FB17AE17A95F1F700C03196E2CFC49A57
:100190001F910F910895DF92EF92FF920F931F939B
:1001A000CF93DF9300D000D000D0CDB7DEB7E82EDC
:1001B000962FD42EBA9AC298BB98C39AFF24F39470
:1001C000F98202ED10E021E030E0AE014F5F5F4FB9
:1001D00061E081E09E830E949000F98221E030E09E
:1001E000AE014F5F5F4F62E081E00E94900083E0CC
:1001F000898321E030E0AE014F5F5F4F63E081E033
:100200000E949000F98221E030E0AE014F5F5F4F25
:1002100065E081E00E9490009E81913021F0923053
:1002200011F48EE001C086E0898302ED10E021E048
:1002300030E0AE014F5F5F4F66E081E00E949000CA
:1002400092E199839A839B839C839D8325E030E090
:10025000AE014F5F5F4F6AE081E00E94900025E0B1
:1002600030E0AE014F5F5F4F60E181E00E9490009F
:10027000D98221E030E0AE014F5F5F4F61E181E064
:100280000E94900083E2898321E030E0AE014F5F5D
:100290005F4F64E081E00E949000E11003C08EE1B6
:1002A000898304C08FE1898302ED10E021E030E012
:1002B000AE014F5F5F4F60E081E00E9490002696A4
:1002C0000FB6F894DEBF0FBECDBFDF91CF911F9167
:1002D0000F91FF90EF90DF9008958AE18A95F1F7F2
:1002E00000C0C4988AE18A95F1F700C087E28FB90F
:1002F000779BFECF8FB18AE18A95F1F700C080E746
:100300008FB9779BFECF8FB18AE18A95F1F700C054
:10031000C49A0895FF920F931F93CF93DF93EC013C
:10032000F62E0E946D0102ED10E020E030E0AE01FB
:1003300061EE80E00E9490002F2D30E0AE0160EA77
:1003400080E00E949000DF91CF911F910F91FF906C
:100350000895C29A8FE891E00197F1F700C000007C
:10036000C29808950F931F932AE12A95F1F700C0D0
:10037000C298262F30E08C0142ED50E061E680E02B
:100380000E9490008AE18A95F1F700C082EE8FB951
:10039000779BFECF8FB12AE12A95F1F700C00E942A
:1003A0006D018AE18A95F1F700C01F910F910895C0
:1003B000A09AA19AA29AA39A8C988D98949A959AA9
:1003C0000895FA0160837183828393830895FC0109
:1003D0006081718182819381089510BC83E389B922
:1003E00080B58E6A80BD8AB188698AB908955D9B9F
:1003F000FECF8CB908955F9BFECF8CB108950F930B
:100400001F93CF93DF93C7E0D0E0082F10E0C8011F
:100410000C2E02C0959587950A94E2F780FF02C0E2
:1004200081E301C080E30E94F701219780F78DE00E
:10043000DF91CF911F910F910C94F701EF92FF92F2
:100440000F931F93CF93DF938C01EC01E62EF12CD9
:10045000CE01801B910B8E159F0524F489910E947B
:10046000F701F6CF8DE0DF91CF911F910F91FF90B3
:10047000EF900C94F7010F931F93CF93DF93EC0150
:100480008C01FE0101900020E9F73197EC1BFD0B78
:10049000C8018C1B9D0B8E179F0730F4F8018191CA
:1004A0008F010E94F701EDCF8DE0DF91CF911F9179
:1004B0000F910C94F7017F928F929F92AF92BF920F
:1004C000CF92DF92EF92FF920F931F93CF93DF9320
:1004D000CDB7DEB764970FB6F894DEBF0FBECDBFC1
:1004E0006B017C016115710581059105B1F480E313
:1004F00064960FB6F894DEBF0FBECDBFDF91CF91EB
:100500001F910F91FF90EF90DF90CF90BF90AF9031
:100510009F908F907F900C94F70197FF0BC0F09401
:10052000E094D094C094C11CD11CE11CF11C8DE25C
:100530000E94F701712C9AE0892E912CA12CB12CEC
:1005400001E010E00C0F1D1F070D111DC701B601C2
:10055000A50194010E945809F801608369017A019C
:100560007394C114D104E104F10451F700E010E0E8
:10057000E72CF12CCC24C394D12CCC0EDD1ECE0C58
:10058000DF1C01501109C701800F911F019641F036
:10059000F601E00FF11F8081805D0E94F701F1CF2D
:1005A00064960FB6F894DEBF0FBECDBFDF91CF913A
:1005B0001F910F91FF90EF90DF90CF90BF90AF9081
:1005C0009F908F907F9008958F929F92AF92BF924D
:1005D000CF92DF92EF92FF920F931F93CF93DF930F
:1005E000CDB7DEB764970FB6F894DEBF0FBECDBFB0
:1005F0008A01611571058105910531F480E3FA01E5
:10060000808381E090E046C097FF0DC09095809573
:10061000709561957F4F8F4F9F4F2DE2FA01208398
:10062000DD24D39401C0D12CC12C3AE0832E912C2F
:10063000A12CB12CEE24E394F12CEC0EFD1EEC0C5D
:10064000F11CA50194010E945809F7016083B901CA
:10065000CA01C394611571058105910559F77C2D77
:100660007D0D80E090E041E050E04C0F5D1F4C0DAF
:10067000511D01972D2D30E0D71659F0D801A20F4A
:10068000B31FFA01E80FF91F6081605D6C93D3948A
:10069000F0CFC90164960FB6F894DEBF0FBECDBF90
:1006A000DF91CF911F910F91FF90EF90DF90CF904E
:1006B000BF90AF909F908F900895CF92DF92EF926E
:1006C000FF92CF93C82F6A017B0180E50E94F7015A
:1006D0008C2F0E94F70120E030E44CE156E4C70182
:1006E000B6010E94930B0E94F60B0E94730A0E94AF
:1006F0005B028DE0CF91FF90EF90DF90CF900C9454
:10070000F701CF92DF92EF92FF92CF93C82F6A0149
:100710007B0180E50E94F7018C2F0E94F70120E009
:1007200030E44CE156E4C701B6010E94930B0E94ED
:10073000F60B0E94730A0E945B028DE0CF91FF903E
:10074000EF90DF90CF900C94F7011F93CF93DF933E
:1007500000D0CDB7DEB7182F80E54A8369830E94A9
:10076000F701812F0E94F701698170E080E090E03D
:100770000E945B028CE20E94F7014A81642F70E0C4
:1007800080E090E00E945B028DE00F900F90DF917F
:10079000CF911F910C94F701CF93DF93EC018881E7
:1007A000803891F0853861F549815A816B817C816F
:1007B00087E50E9481034D815E816F81788583E5A5
:1007C000DF91CF910C94810349815A816B817C81A7
:1007D00088E50E945D034D815E816F81788589E5A2
:1007E0000E945D0349855A856B857C8581E40E9462
:1007F0005D034E856D8585E4DF91CF910C94A50353
:10080000DF91CF91089582B38C6082BB85B78360FE
:1008100085BF85B78C6085BF8BB7806C8BBF089513
:100820001F920F920FB60F9211248F939F93849B68
:100830000BC080918000909181000197909381007E
:1008400080938000C09A0AC08091800090918100BE
:1008500001969093810080938000C0989F918F9122
:100860000F900FBE0F901F9018951F920F920FB60A
:100870000F9211248F939F93859B06C080917E00D9
:1008800090917F00019705C080917E0090917F003C
:10089000019690937F0080937E009F918F910F909F
:1008A0000FBE0F901F9018951F920F920FB60F92C8
:1008B00011248F939F9380EE82BF8091D0008F5F31
:1008C0008093D00091E09093CF008091CE008F5F15
:1008D0008093CE008091CE00833338F09093CE0089
:1008E0008091D1008F5F8093D1009F918F910F9065
:1008F0000FBE0F901F9018958091CF00882309F4A8
:100900007DC01092CF008091CE006AE00E944C0919
:10091000911138C08091A9009091AA004091AD003A
:100920005091AE00841795072CF401969093AA007D
:100930008093A9008091A7009091A8002091AB001E
:100940003091AC00821793072CF401969093A80085
:100950008093A7008091A9009091AA004817590799
:100960002CF401979093AA008093A9008091A7008E
:100970009091A800281739072CF401979093A800AC
:100980008093A7004091CE008091A7009091A8008D
:1009900050E09C0197FF04C022273327281B390B06
:1009A000241735075CF0181619061CF4A998A89AA4
:1009B00007C0892B29F0A898A99A02C0A898A998DD
:1009C0004091CE008091A9009091AA0050E09C0136
:1009D00097FF04C022273327281B390B241735071C
:1009E0005CF0181619061CF4AB98AA9A0895892B86
:1009F00029F0AA98AB9A0895AA98AB980895809187
:100A0000D1008230B8F01092D1008091B0008823DC
:100A100029F01092B0001092AF0005C08091AF0095
:100A20008F5F8093AF008091AF00843018F086E034
:100A30008093B20008959091D0008091B1009817F2
:100A4000C9F02091D0008091B10030E090E0019693
:100A50002817390779F04091D0002091B10050E07B
:100A600030E02E5F3F4F81E090E04217530721F0C6
:100A700080E0089581E090E008959091D000980F73
:100A80009093B10008958EE690E00E943B02809121
:100A9000BF000C94FF01FC018081863009F452C133
:100AA00008F5833009F4F8C098F4813009F4DFC008
:100AB000823009F057C181819281A381B4818093F2
:100AC0008E0090938F00A0939000B09391004AC144
:100AD000843009F433C1853009F044C181E080934A
:100AE000A50040C18F3309F431C1A8F5873009F45E
:100AF00000C1883009F036C141815281638174811F
:100B000040936200509363006093640070936500AB
:100B100085819681A781B085809366009093670058
:100B2000A0936800B09369006091620070916300C7
:100B300080916400909165002BED3FE049E450E422
:100B40000E94930B60938A0070938B0080938C00BB
:100B500090938D0007C1803831F1853809F002C1CA
:100B60008093F6008091620090916300A0916400F0
:100B7000B09165008093F7009093F800A093F9007E
:100B8000B093FA008091660090916700A091680090
:100B9000B09169008093FB009093FC00A093FD004E
:100BA000B093FE0062C08093F60080919E00909109
:100BB0009F00A091A000B091A1008093F7009093B6
:100BC000F800A093F900B093FA0080919A009091F8
:100BD0009B00A0919C00B0919D008093FB0090939E
:100BE000FC00A093FD00B093FE00809196009091D0
:100BF0009700A0919800B09199008093FF00909386
:100C00000001A0930101B09302018091A90090918D
:100C1000AA0097FF03C0919581959109BC01660FC9
:100C2000771F882777FD8095982F0E94A60A0E943B
:100C3000F60B0E94780A609303018091A7009091BF
:100C4000A80097FF03C0919581959109BC01660F9B
:100C5000771F882777FD8095982F0E94A60A0E940B
:100C6000F60B0E94780A6093040181E00895818167
:100C70009281A381B4818093920090939300A0937A
:100C80009400B093950080939E0090939F00A09352
:100C9000A000B093A10066C0428121812F7730E08F
:100CA000359527953093AE002093AD00842F8F7734
:100CB00090E0959587959093AC008093AB002115BB
:100CC000310551F0518157FD07C03195219531090A
:100CD0003093AE002093AD00009709F443C047FD68
:100CE00041C09195819591099093AC008093AB00A0
:100CF00039C0418152816381748140939E00509339
:100D00009F006093A0007093A10045815681678188
:100D1000708540939A0050939B0060939C00709361
:100D20009D0081859285A385B485809396009093DC
:100D30009700A0939800B093990014C081E080932D
:100D4000A60010C082818093A4000CC01092AE0057
:100D50001092AD001092AC001092AB001092A60061
:100D60001092A50080E008950F931F93CF93DF9317
:100D700000D000D01F92CDB7DEB78091B20090E0D6
:100D80008730910508F08FC0FC01E65DFF4F0C94A1
:100D90007709B39988C081E08093B000C29887E05A
:100DA0000E9478008E3031F06FE08FEB90E00E946F
:100DB000B201F5CF8FEB90E00E944B05882309F438
:100DC00056C08EE1898302ED10E021E030E0AE01F3
:100DD0004F5F5F4F60E081E00E94900081E0809370
:100DE000B2008CE190E00E943D055DC00E941B05B1
:100DF000892B09F458C083E054C06FE086EF90E07F
:100E00000E948A018AE090E00E943D0584E049C08A
:100E10000E941B05892B09F446C00E94A9018AE0A3
:100E200090E00E943D0585E03CC0B39905C0B399B0
:100E300008C00E946D0105C00E941B05892BB9F7EF
:100E400032C08FE1898302ED10E021E030E0AE0195
:100E50004F5F5F4F60E081E00E9490008AE090E089
:100E60001DC00E941B05892BF1F01092B200C29A9E
:100E70001AC01092AC001092AB001092AE0010920B
:100E8000AD001092A6001092A5000E946D014FE0E7
:100E900061E081E00E94CB0084E190E00E943D058A
:100EA00082E08093B2000F900F900F900F900F9000
:100EB000DF91CF911F910F9108952FEF84E39CE074
:100EC000215080409040E1F700C000008BED9FE092
:100ED000A9ECBFE38093960090939700A0939800AD
:100EE000B0939900609162007091630080916400FA
:100EF000909165002BED3FE049E450E40E94930B94
:100F000060938A0070938B0080938C0090938D0087
:100F1000B89A60E081E00E945F002FEF80E792E0E6
:100F2000215080409040E1F700C000004FE061E0B8
:100F300081E00E94CB000E94D80183B7846083BF08
:100F400089B7816089BF0E9403042FEF81EE94E08E
:100F5000215080409040E1F700C00000C29A789490
:100F600003E010E00E94B4060E947C040E94FF048B
:100F7000F894809180009091810090937D008093FF
:100F80007C0080917E0090917F0090937B00809305
:100F90007A00109281001092800010927F001092CF
:100FA0007E00789480908A0090908B00A0908C00B6
:100FB000B0908D0060917A0070917B00C0906A00C3
:100FC000D0906B00E0906C00F0906D00882777FD6A
:100FD0008095982F0E94A60A9B01AC01C501B4011F
:100FE0000E94930BA70196010E940B0A6093B30025
:100FF0007093B4008093B5009093B60080908A00FF
:1010000090908B00A0908C00B0908D0060917C003F
:1010100070917D00882777FD8095982F0E94A60A01
:101020009B01AC01C501B4010E94930BA70196017D
:101030000E940B0A6093B7007093B8008093B900C8
:101040009093BA006091B3007091B4008091B500A4
:101050009091B6002091B7003091B8004091B9004E
:101060005091BA000E94A00920E030E040E05FE328
:101070000E94930B6093820070938300809384009E
:10108000909385006091B7007091B8008091B9008D
:101090009091BA002091B3003091B4004091B50016
:1010A0005091B6000E949F09209166003091670020
:1010B00040916800509169000E940B0A609386007D
:1010C000709387008093880090938900109361004B
:1010D0000093600060918600709187008091880085
:1010E0009091890020E030E040E450E40E940B0A37
:1010F0004B015C016093F2007093F3008093F40065
:101100009093F5006091820070918300809184003B
:101110009091850020E030E040E450E40E940B0A0A
:101120006B017C016093BB007093BC008093BD0099
:101130009093BE00C3E0D0E040909E0050909F008E
:101140006090A0007090A10060919600709197004F
:1011500080919800909199000E94080A9B01AC012F
:10116000C701B6010E94930B9B01AC01C301B20100
:101170000E94A00960939E0070939F008093A0003E
:101180009093A10040909A0050909B0060909C002A
:1011900070909D00609196007091970080919800EA
:1011A000909199000E94160C9B01AC01C701B601F9
:1011B0000E94930B9B01AC01C301B2010E94A009E4
:1011C00060939A0070939B0080939C0090939D0085
:1011D000609196007091970080919800909199008D
:1011E000A50194010E94A009609396007093970056
:1011F0008093980090939900609196007091970069
:1012000080919800909199002BED3FE049EC50E4DB
:101210000E948F0B1816B4F460919600709197009D
:1012200080919800909199002BED3FE049EC50E4BB
:101230000E949F0960939600709397008093980096
:10124000909399006091960070919700809198001A
:101250009091990020E030E0A9010E94040A87FFE4
:1012600016C06091960070919700809198009091BF
:1012700099002BED3FE049EC50E40E94A0096093F7
:10128000960070939700809398009093990021970F
:10129000209709F051CF66CE991B79E004C0991FC1
:1012A000961708F0961B881F7A95C9F780950895C0
:1012B000052E97FB1EF400940E946F0957FD07D07E
:1012C0000E947D0907FC03D04EF40C946F095095E1
:1012D0004095309521953F4F4F4F5F4F0895909522
:1012E0008095709561957F4F8F4F9F4F0895EE0FBA
:1012F000FF1F0590F491E02D0994A1E21A2EAA1B7C
:10130000BB1BFD010DC0AA1FBB1FEE1FFF1FA217B5
:10131000B307E407F50720F0A21BB30BE40BF50BB2
:10132000661F771F881F991F1A9469F7609570953B
:10133000809590959B01AC01BD01CF010895505857
:10134000BB27AA270ED0A0C169D130F06ED120F002
:1013500031F49F3F11F41EF45EC10EF4E095E7FBFB
:1013600054C1E92FB3D180F3BA176207730784071A
:10137000950718F071F49EF5CBC10EF4E0950B2E95
:10138000BA2FA02D0B01B90190010C01CA01A001D7
:101390001124FF27591B99F0593F50F4503E68F132
:1013A0001A16F040A22F232F342F4427585FF3CF73
:1013B000469537952795A795F0405395C9F77EF444
:1013C0001F16BA0B620B730B840BBAF09150A1F08D
:1013D000FF0FBB1F661F771F881FC2F70EC0BA0F13
:1013E000621F731F841F48F4879577956795B7959B
:1013F000F7959E3F08F0B3CF9395880F08F0992793
:10140000EE0F979587950895DCD008F481E0089554
:1014100014D1E3954AC10CD037C107D140F0FED0BA
:1014200030F021F45F3F19F0F0C0511172C1F3C0E8
:101430004DD198F39923C9F35523B1F3951B550B5F
:10144000BB27AA2762177307840738F09F5F5F4F97
:10145000220F331F441FAA1FA9F333D00E2E3AF0D8
:10146000E0E830D091505040E695001CCAF729D0F2
:10147000FE2F27D0660F771F881FBB1F2617370741
:101480004807AB07B0E809F0BB0B802DBF01FF2771
:1014900093585F4F2AF09E3F510568F0B6C039C19E
:1014A0005F3FECF3983EDCF3869577956795B795AB
:1014B000F7959F5FC9F7880F911D9695879597F9C6
:1014C0000895E1E0660F771F881FBB1F621773073F
:1014D0008407BA0720F0621B730B840BBA0BEE1F54
:1014E00088F7E095089504D06894B11112C1089569
:1014F000F5D088F09F5790F0B92F9927B751A0F0F9
:10150000D1F0660F771F881F991F1AF0BA95C9F797
:1015100012C0B13081F0FCD0B1E00895F9C0672F5E
:10152000782F8827B85F39F0B93FCCF38695779547
:101530006795B395D9F73EF4909580957095619530
:101540007F4F8F4F9F4F0895E89409C097FB3EF45B
:1015500090958095709561957F4F8F4F9F4F992300
:10156000A9F0F92F96E9BB279395F695879577957E
:101570006795B795F111F8CFFAF4BB0F11F460FF3E
:101580001BC06F5F7F4F8F4F9F4F16C0882311F096
:1015900096E911C0772321F09EE8872F762F05C0AA
:1015A000662371F096E8862F70E060E02AF09A9545
:1015B000660F771F881FDAF7880F9695879597F93A
:1015C0000895990F0008550FAA0BE0E8FEEF1616D4
:1015D0001706E807F907C0F012161306E407F50727
:1015E00098F0621B730B840B950B39F40A2661F09B
:1015F000232B242B252B21F408950A2609F4A1403E
:10160000A6958FEF811D811D089597F99F6780E84A
:1016100070E060E008959FEF80EC089500240A9444
:101620001616170618060906089500240A941216BD
:101630001306140605060895EECF50D0E8F3E8949B
:10164000E0E0BB279F57F0F02AED3FE049EC06C0F1
:10165000EE0FBB0F661F771F881F28F0B23A620794
:101660007307840728F0B25A620B730B840BE3955F
:101670009A9572F7803830F49A95BB0F661F771FE2
:10168000881FD2F79048F5C0092E0394000C11F47E
:10169000882352F0BB0F40F4BF2B11F460FF04C04D
:1016A0006F5F7F4F8F4F9F4F0895EF93E0FF06C00E
:1016B000A2EA2AED3FE049EC5FEB53DEE5DF0F9055
:1016C000039401FC9058E2E6F0E0DFC057FD90582B
:1016D000440F551F59F05F3F71F04795880F97FBF6
:1016E000991F61F09F3F79F08795089512161306B0
:1016F0001406551FF2CF4695F1DF08C016161706DF
:101700001806991FF1CF8695710561050894089513
:10171000E894BB2766277727CB0197F9089551DF17
:1017200008F48FEF08950BD0AFCF78DF28F07DDF7E
:1017300018F0952309F069CF6ECF1124EACFC6DFE8
:10174000A0F3959FD1F3950F50E0551F629FF001D4
:10175000729FBB27F00DB11D639FAA27F00DB11D2D
:10176000AA1F649F6627B00DA11D661F829F2227B6
:10177000B00DA11D621F739FB00DA11D621F839F3D
:10178000A00D611D221F749F3327A00D611D231F13
:10179000849F600D211D822F762F6A2F11249F5761
:1017A00050408AF0E1F088234AF0EE0FFF1FBB1F84
:1017B000661F771F881F91505040A9F79E3F510523
:1017C00070F023CFA6CF5F3FECF3983EDCF3869515
:1017D00077956795B795F795E7959F5FC1F7FE2BCE
:1017E000880F911D9695879597F9089577DFE0F01A
:1017F0009E37D8F09639B8F49E3848F4672F782F82
:101800008827985FF9CF8695779567959395953951
:10181000D0F3B62FB1706B0F711D811D20F4879529
:1018200077956795939508C022C073CF9F9305DF86
:101830000F9007FCEE5F39CF882371F4772321F0F6
:101840009850872B762F07C0662311F499270DC077
:101850009051862B70E060E02AF09A95660F771F12
:10186000881FDAF7880F9695879597F908959F3F17
:1018700031F0915020F4879577956795B795880F4B
:10188000911D9695879597F908959F938F937F93D0
:101890006F93FF93EF939B01AC0145DFEF91FF91B5
:1018A00005D02F913F914F915F913DCFDF93CF9323
:1018B0001F930F93FF92EF92DF927B018C0168944C
:1018C00005C0DA2EEF013BDFFE01E894A5912591DA
:1018D000359145915591AEF3EF0143DDFE0197013E
:1018E000A801DA9479F7DF90EF90FF900F911F91A4
:0A18F000CF91DF910895F894FFCF27
:1018FA000300000000410000B0419A99AA4309522E
:0A190A0065636569766564210000DD
:00000001FF
