:100000000C9440000C94C2040C94E1040C945D0028
:100010000C945D000C945D000C945D000C945D00EC
:100020000C945D000C945D000C945D000C94000534
:100030000C945D000C945D000C945D000C945D00CC
:100040000C945D000C945D000C945D000C945D00BC
:100050000C945D007507A207DD07A907B407C10767
:10006000E50705A84CCDB2D44EB93836A9020C50DC
:10007000B9918688083CA6AAAA2ABE000000803F43
:1000800011241FBECFE5D8E0DEBFCDBF10E0A0E653
:10009000B0E0E2EBFAE102C005900D92AA37B10799
:1000A000D9F721E0AAE7B0E001C01D92A530B20760
:1000B000E1F70E9409080C94570D0C940000CF92B0
:1000C000DF92FF920F931F93CF93DF9300D0CDB7B2
:1000D000DEB76C01F62E64E080E42A8349830E9437
:1000E000F000F601F082498141832A812283138244
:1000F0008FEF9FEF95838483168217821086118677
:1001000013870287C6010F900F90DF91CF911F9147
:100110000F91FF90DF90CF9008951F93CF93DF93BF
:10012000EC018985811152C01B81113059F028F0F2
:100130001230E9F0133091F14BC088810E94FA002F
:1001400081E02AC00E9403019D838C838F3F2FEFA3
:100150009207F1F12A853B852817390710F41E8391
:1001600001C01E8289810E94FA0082E015C00E94AF
:1001700003019D838C838F3F2FEF920749F12A85DE
:100180003B852817390718F481E08F8301C01F824F
:100190008A810E94FA0083E08B831AC00E940301C7
:1001A0009D838C838F3F2FEF920769F02A853B85D3
:1001B0002817390718F481E0888701C018868881DC
:1001C0000E94FA001B8281E0898703C081E001C0A0
:1001D00080E0DF91CF911F910895FC011186089571
:1001E000379A96B1692B66B997B1982B97B9109247
:1001F0007A00089597B1987F982B97B9369A81E045
:1002000080937A00089580917A00813039F436998C
:1002100005C010927A0084B195B108958FEF9FEFD9
:100220000895813091F487B3806B87BB6C9A6034FA
:1002300011F4699A0BC0603111F4689A07C06430F8
:1002400029F08DB183608DB901C0BE9AC49AC2985D
:100250006E9A0895C4989AE19A95F1F700C08FB903
:10026000779BFECF8FB18AE18A95F1F700C08FEFBF
:100270008FB9779BFECF8FB19AE19A95F1F700C0C5
:10028000C49A08950F931F93813009F4605E7AE158
:100290007A95F1F700C0C4989AE19A95F1F700C0F9
:1002A0006FB9779BFECF9FB17AE17A95F1F700C0E5
:1002B000E0E0F0E09FEFE217F307DCF481110BC000
:1002C000603A49F09FB9779BFECF7FB1D801AE0F5E
:1002D000BF1F7C9308C0DA01AE0FBF1F7C917FB9AE
:1002E000779BFECF7FB17AE17A95F1F700C0319626
:1002F000E2CFC49A1F910F910895DF92EF92FF927F
:100300000F931F93CF93DF9300D000D000D0CDB7D1
:10031000DEB7E82E962FD42EBA9AC298BB98C39A0D
:10032000FF24F394F98202ED10E021E030E0AE0109
:100330004F5F5F4F61E081E09E830E944201F9823E
:1003400021E030E0AE014F5F5F4F62E081E00E944C
:10035000420183E0898321E030E0AE014F5F5F4FCF
:1003600063E081E00E944201F98221E030E0AE01C9
:100370004F5F5F4F65E081E00E9442019E819130B6
:1003800021F0923011F48EE001C086E0898302ED05
:1003900010E021E030E0AE014F5F5F4F66E081E0AA
:1003A0000E94420192E199839A839B839C839D835F
:1003B00025E030E0AE014F5F5F4F6AE081E00E94D0
:1003C000420125E030E0AE014F5F5F4F60E181E028
:1003D0000E944201D98221E030E0AE014F5F5F4FC1
:1003E00061E181E00E94420183E2898321E030E003
:1003F000AE014F5F5F4F64E081E00E944201E11077
:1004000003C08EE1898304C08FE1898302ED10E08F
:1004100021E030E0AE014F5F5F4F60E081E00E947D
:10042000420126960FB6F894DEBF0FBECDBFDF9116
:10043000CF911F910F91FF90EF90DF9008958AE187
:100440008A95F1F700C0C4988AE18A95F1F700C057
:1004500087E28FB9779BFECF8FB18AE18A95F1F75A
:1004600000C080E78FB9779BFECF8FB18AE18A9574
:10047000F1F700C0C49A0895FF920F931F93CF9392
:10048000DF93EC01F62E0E941F0202ED10E020E047
:1004900030E0AE0161EE80E00E9442012F2D30E09D
:1004A000AE0160EA80E00E944201DF91CF911F918E
:1004B0000F91FF900895C29A8FE891E00197F1F7AC
:1004C00000C00000C29808950F931F932AE12A9557
:1004D000F1F700C0C298262F30E08C0142ED50E0C9
:1004E00061E680E00E9442018AE18A95F1F700C04E
:1004F00082EE8FB9779BFECF8FB12AE12A95F1F773
:1005000000C00E941F028AE18A95F1F700C01F9186
:100510000F910895A09AA19AA29AA39A8C988D9867
:10052000949A959A0895FA016083718382839383E4
:100530000895FC016081718182819381089510BCCE
:1005400083E389B980B58E6A80BD8AB188698AB92A
:1005500008955D9BFECF8CB908955F9BFECF8CB153
:1005600008950F931F93CF93DF93C7E0D0E0082F38
:1005700010E0C8010C2E02C0959587950A94E2F709
:1005800080FF02C081E301C080E30E94A90221979D
:1005900080F78DE0DF91CF911F910F910C94A9020C
:1005A000EF92FF920F931F93CF93DF938C01EC0197
:1005B000E62EF12CCE01801B910B8E159F0524F4A5
:1005C00089910E94A902F6CF8DE0DF91CF911F9112
:1005D0000F91FF90EF900C94A9020F931F93CF936C
:1005E000DF93EC018C01FE0101900020E9F73197C7
:1005F000EC1BFD0BC8018C1B9D0B8E179F0730F465
:10060000F80181918F010E94A902EDCF8DE0DF9169
:10061000CF911F910F910C94A9027F928F929F927C
:10062000AF92BF92CF92DF92EF92FF920F931F9300
:10063000CF93DF93CDB7DEB764970FB6F894DEBFE4
:100640000FBECDBF6B017C01611571058105910560
:10065000B1F480E364960FB6F894DEBF0FBECDBF51
:10066000DF91CF911F910F91FF90EF90DF90CF908E
:10067000BF90AF909F908F907F900C94A90297FFAE
:100680000BC0F094E094D094C094C11CD11CE11C28
:10069000F11C8DE20E94A902712C9AE0892E912C06
:1006A000A12CB12C01E010E00C0F1D1F070D111D36
:1006B000C701B601A50194010E94340AF8016083C4
:1006C00069017A017394C114D104E104F10451F772
:1006D00000E010E0E72CF12CCC24C394D12CCC0EFC
:1006E000DD1ECE0CDF1C01501109C701800F911FC8
:1006F000019641F0F601E00FF11F8081805D0E94BC
:10070000A902F1CF64960FB6F894DEBF0FBECDBF3D
:10071000DF91CF911F910F91FF90EF90DF90CF90DD
:10072000BF90AF909F908F907F9008958F929F92EF
:10073000AF92BF92CF92DF92EF92FF920F931F93EF
:10074000CF93DF93CDB7DEB764970FB6F894DEBFD3
:100750000FBECDBF8A01611571058105910531F488
:1007600080E3FA01808381E090E046C097FF0DC0EE
:1007700090958095709561957F4F8F4F9F4F2DE29B
:10078000FA012083DD24D39401C0D12CC12C3AE09E
:10079000832E912CA12CB12CEE24E394F12CEC0EA1
:1007A000FD1EEC0CF11CA50194010E94340AF70116
:1007B0006083B901CA01C394611571058105910572
:1007C00059F77C2D7D0D80E090E041E050E04C0F2A
:1007D0005D1F4C0D511D01972D2D30E0D71659F09E
:1007E000D801A20FB31FFA01E80FF91F6081605D05
:1007F0006C93D394F0CFC90164960FB6F894DEBF22
:100800000FBECDBFDF91CF911F910F91FF90EF9061
:10081000DF90CF90BF90AF909F908F900895CF9230
:10082000DF92EF92FF92CF93C82F6A017B0180E5A0
:100830000E94A9028C2F0E94A90220E030E44CE122
:1008400056E4C701B6010E946F0C0E94D20C0E94B0
:100850004F0B0E940D038DE0CF91FF90EF90DF9042
:10086000CF900C94A902CF92DF92EF92FF92CF9398
:10087000C82F6A017B0180E50E94A9028C2F0E948B
:10088000A90220E030E44CE156E4C701B6010E9421
:100890006F0C0E94D20C0E944F0B0E940D038DE042
:1008A000CF91FF90EF90DF90CF900C94A9021F930F
:1008B000CF93DF9300D0CDB7DEB7182F80E54A8302
:1008C00069830E94A902812F0E94A902698170E0B8
:1008D00080E090E00E940D038CE20E94A9024A8110
:1008E000642F70E080E090E00E940D038DE00F9097
:1008F0000F90DF91CF911F910C94A902CF93DF93BA
:10090000EC018881803891F0853861F549815A8100
:100910006B817C8187E50E9433044D815E816F810C
:10092000788583E5DF91CF910C94330449815A8116
:100930006B817C8188E50E940F044D815E816F810F
:10094000788589E50E940F0449855A856B857C85E9
:1009500081E40E940F044E856D8585E4DF91CF917F
:100960000C945704DF91CF91089582B38C6082BBC1
:1009700085B7836085BF85B78C6085BF8BB7806C7A
:100980008BBF08951F920F920FB60F9211248F9371
:100990009F93849B06C08091810090918200019773
:1009A00005C0809181009091820001969093820011
:1009B000809381009F918F910F900FBE0F901F9099
:1009C00018951F920F920FB60F9211248F939F9339
:1009D000859B06C080917F0090918000019705C0A3
:1009E00080917F0090918000019690938000809389
:1009F0007F009F918F910F900FBE0F901F901895C1
:100A00001F920F920FB60F9211248F939F9380EE37
:100A100082BF8091D0008F5F8093D00091E090934F
:100A2000CF008091CE008F5F8093CE008091CE006A
:100A3000833338F09093CE008091D1008F5F809304
:100A4000D1009F918F910F900FBE0F901F9018951E
:100A50008091CF00882309F47DC01092CF0080914F
:100A6000CE006AE00E94280A911138C08091A90046
:100A70009091AA004091AD005091AE008417950767
:100A80002CF401969093AA008093A9008091A7006E
:100A90009091A8002091AB003091AC008217930791
:100AA0002CF401969093A8008093A7008091A90050
:100AB0009091AA00481759072CF401979093AA0027
:100AC0008093A9008091A7009091A800281739076A
:100AD0002CF401979093A8008093A7004091CE003A
:100AE0008091A7009091A80050E09C0197FF04C05E
:100AF00022273327281B390B241735075CF01816DB
:100B000019061CF4A998A89A07C0892B29F0A8985F
:100B1000A99A02C0A898A9984091CE008091A900F6
:100B20009091AA0050E09C0197FF04C02227332730
:100B3000281B390B241735075CF0181619061CF40E
:100B4000AB98AA9A0895892B29F0AA98AB9A089590
:100B5000AA98AB9808958091D1008230B8F0109295
:100B6000D1008091B000882329F01092B00010923B
:100B7000AF0005C08091AF008F5F8093AF00809180
:100B8000AF00843018F086E08093B2000895909111
:100B9000D0008091B1009817C9F02091D0008091C9
:100BA000B10030E090E001962817390779F04091C4
:100BB000D0002091B10050E030E02E5F3F4F81E047
:100BC00090E04217530721F080E0089581E090E023
:100BD00008959091D000980F9093B10008958FE6FA
:100BE00090E00E94ED028091BF000C94B102FC01E4
:100BF0008081863009F452C108F5833009F4F8C0C9
:100C000098F4813009F4DFC0823009F057C1818146
:100C10009281A381B48180938F0090939000A093E0
:100C20009100B09392004AC1843009F433C18530F9
:100C300009F044C181E080936E0040C18F3309F414
:100C400031C1A8F5873009F400C1883009F036C1F8
:100C500041815281638174814093620050936300AB
:100C6000609364007093650085819681A781B0854B
:100C70008093660090936700A0936800B09369002A
:100C800060916200709163008091640090916500B2
:100C90002BED3FE049E450E40E946F0C60938B0021
:100CA00070938C0080938D0090938E0007C18038E4
:100CB00031F1853809F002C18093F600809162001D
:100CC00090916300A0916400B09165008093F7005B
:100CD0009093F800A093F900B093FA008091660019
:100CE00090916700A0916800B09169008093FB002B
:100CF0009093FC00A093FD00B093FE0062C080932F
:100D0000F60080919F009091A000A091A100B09169
:100D1000A2008093F7009093F800A093F900B0939D
:100D2000FA0080919B0090919C00A0919D00B09151
:100D30009E008093FB009093FC00A093FD00B09375
:100D4000FE008091970090919800A0919900B09139
:100D50009A008093FF0090930001A0930101B0934B
:100D600002018091A9009091AA0097FF03C091957C
:100D700081959109BC01660F771F882777FD8095C3
:100D8000982F0E94820B0E94D20C0E94540B6093F9
:100D900003018091A7009091A80097FF03C091954F
:100DA00081959109BC01660F771F882777FD809593
:100DB000982F0E94820B0E94D20C0E94540B6093C9
:100DC000040181E0089581819281A381B48180939F
:100DD000930090939400A0939500B0939600809315
:100DE0009F009093A000A093A100B093A20066C0C2
:100DF000428121812F7730E0359527953093AE00E1
:100E00002093AD00842F8F7790E0959587959093F0
:100E1000AC008093AB002115310551F0518157FD95
:100E200007C03195219531093093AE002093AD0074
:100E3000009709F443C047FD41C091958195910900
:100E40009093AC008093AB0039C0418152816381A3
:100E5000748140939F005093A0006093A100709311
:100E6000A200458156816781708540939B00509315
:100E70009C0060939D0070939E0081859285A38560
:100E8000B4858093970090939800A0939900B093B5
:100E90009A0014C081E08093A60010C082818093E4
:100EA000A5000CC01092AE001092AD001092AC00E4
:100EB0001092AB001092A60010926E0080E0089590
:100EC0000F931F93CF93DF9300D000D01F92CDB725
:100ED000DEB78091B20090E08730910508F08FC0B6
:100EE000FC01E65DFF4F0C94530AB39988C081E082
:100EF0008093B000C29887E00E942A018E3031F0C2
:100F00006FE08FEB90E00E946402F5CF8FEB90E0F2
:100F10000E94F705882309F456C08EE1898302ED0B
:100F200010E021E030E0AE014F5F5F4F60E081E014
:100F30000E94420181E08093B2008CE190E00E9427
:100F4000E9055DC00E94C705892B09F458C083E0FC
:100F500054C06FE086EF90E00E943C028AE090E08F
:100F60000E94E90584E049C00E94C705892B09F465
:100F700046C00E945B028AE090E00E94E90585E09D
:100F80003CC0B39905C0B39908C00E941F0205C0B8
:100F90000E94C705892BB9F732C08FE1898302ED22
:100FA00010E021E030E0AE014F5F5F4F60E081E094
:100FB0000E9442018AE090E01DC00E94C705892B73
:100FC000F1F01092B200C29A1AC01092AC001092C6
:100FD000AB001092AE001092AD001092A6001092DD
:100FE0006E000E941F024FE061E081E00E947D01DF
:100FF00084E190E00E94E90582E08093B2000F90C6
:101000000F900F900F900F90DF91CF911F910F9144
:101010000895CF93DF93CDB7DEB72C970FB6F89432
:10102000DEBF0FBECDBF2FEF84E39CE02150804098
:101030009040E1F700C000008BED9FE0A9ECBFE31A
:101040008093970090939800A0939900B0939A0092
:1010500060916200709163008091640090916500DE
:101060002BED3FE049E450E40E946F0C60938B004D
:1010700070938C0080938D0090938E00B89A60E0FE
:1010800081E00E9411012FEF80E792E02150804023
:101090009040E1F700C000004FE061E081E00E9475
:1010A0007D010E948A0283B7846083BF89B7816013
:1010B00089BF0E94B5042FEF80E792E02150804065
:1010C0009040E1F700C000000EEE12E023E042E0A5
:1010D00061E0CE0101960E945F002FEF81EE94E067
:1010E000215080409040E1F700C00000C29A7894FF
:1010F000A3E02A2E312C0E9460070E9428050E943E
:10110000AB05F894809181009091820090937E00CD
:1011100080937D0080917F009091800090937C006F
:1011200080937B00109282001092810010928000C8
:1011300010927F00789480908B0090908C00A0900B
:101140008D00B0908E0060917B0070917C00C0900B
:101150006A00D0906B00E0906C00F0906D008827E2
:1011600077FD8095982F0E94820B9B01AC01C501F1
:10117000B4010E946F0CA70196010E94E70A6093D8
:10118000B3007093B4008093B5009093B600809044
:101190008B0090908C00A0908D00B0908E0060919C
:1011A0007D0070917E00882777FD8095982F0E94A2
:1011B000820B9B01AC01C501B4010E946F0CA70119
:1011C00096010E94E70A6093B7007093B80080937D
:1011D000B9009093BA006091B3007091B40080910F
:1011E000B5009091B6002091B7003091B8004091C1
:1011F000B9005091BA000E947C0A20E030E040E043
:101200005FE30E946F0C609383007093840080936F
:101210008500909386006091B7007091B80080912E
:10122000B9009091BA002091B3003091B400409180
:10123000B5005091B6000E947B0A20916600309163
:10124000670040916800509169000E94E70A60932E
:101250008700709388008093890090938A00309271
:1012600061002092600060918700709188008091F9
:10127000890090918A0020E030E040E450E40E9430
:10128000E70A4B015C016093F2007093F3008093D6
:10129000F4009093F5006091830070918400809138
:1012A00085009091860020E030E040E450E40E9408
:1012B000E70A6B017C016093BB007093BC008093D4
:1012C000BD009093BE0003E010E040909F0050905E
:1012D000A0006090A1007090A200609197007091B2
:1012E00098008091990090919A000E94E40A9B01D5
:1012F000AC01C701B6010E946F0C9B01AC01C30198
:10130000B2010E947C0A60939F007093A0008093BA
:10131000A1009093A20040909B0050909C00609090
:101320009D0070909E006091970070919800809150
:10133000990090919A000E94F20C9B01AC01C701A8
:10134000B6010E946F0C9B01AC01C301B2010E9467
:101350007C0A60939B0070939C0080939D00909307
:101360009E006091970070919800809199009091F3
:101370009A00A50194010E947C0A609397007093E3
:1013800098008093990090939A00609197007091D3
:1013900098008091990090919A002BED3FE049ECE4
:1013A00050E40E946B0C1816B4F460919700709191
:1013B00098008091990090919A002BED3FE049ECC4
:1013C00050E40E947B0A609397007093980080938A
:1013D000990090939A006091970070919800809185
:1013E000990090919A0020E030E0A9010E94E00A63
:1013F00087FF16C0609197007091980080919900C6
:1014000090919A002BED3FE049EC50E40E947C0A59
:1014100060939700709398008093990090939A003E
:10142000015011090115110509F04FCF80916E008F
:10143000882309F460CECE0101960E948D00882396
:1014400009F459CECE0101960E94ED00C09A53CE08
:10145000991B79E004C0991F961708F0961B881F06
:101460007A95C9F780950895052E97FB1EF4009490
:101470000E944B0A57FD07D00E94590A07FC03D06F
:101480004EF40C944B0A50954095309521953F4F62
:101490004F4F5F4F089590958095709561957F4F60
:1014A0008F4F9F4F0895EE0FFF1F0590F491E02D91
:1014B0000994A1E21A2EAA1BBB1BFD010DC0AA1F95
:1014C000BB1FEE1FFF1FA217B307E407F50720F0AD
:1014D000A21BB30BE40BF50B661F771F881F991F28
:1014E0001A9469F760957095809590959B01AC0171
:1014F000BD01CF0108955058BB27AA270ED0A0C127
:1015000069D130F06ED120F031F49F3F11F41EF418
:101510005EC10EF4E095E7FB54C1E92FB3D180F32F
:10152000BA17620773078407950718F071F49EF5E0
:10153000CBC10EF4E0950B2EBA2FA02D0B01B901F3
:1015400090010C01CA01A0011124FF27591B99F039
:10155000593F50F4503E68F11A16F040A22F232F45
:10156000342F4427585FF3CF469537952795A79595
:10157000F0405395C9F77EF41F16BA0B620B730B3C
:10158000840BBAF09150A1F0FF0FBB1F661F771FAD
:10159000881FC2F70EC0BA0F621F731F841F48F462
:1015A000879577956795B795F7959E3F08F0B3CFE8
:1015B0009395880F08F09927EE0F979587950895D2
:1015C000DCD008F481E0089514D1E3954AC10CD031
:1015D00037C107D140F0FED030F021F45F3F19F061
:1015E000F0C0511172C1F3C04DD198F39923C9F3E2
:1015F0005523B1F3951B550BBB27AA276217730719
:10160000840738F09F5F5F4F220F331F441FAA1FCC
:10161000A9F333D00E2E3AF0E0E830D0915050408C
:10162000E695001CCAF729D0FE2F27D0660F771F3A
:10163000881FBB1F261737074807AB07B0E809F01C
:10164000BB0B802DBF01FF2793585F4F2AF09E3FB1
:10165000510568F0B6C039C15F3FECF3983EDCF34A
:10166000869577956795B795F7959F5FC9F7880F2A
:10167000911D9695879597F90895E1E0660F771F7C
:10168000881FBB1F621773078407BA0720F0621B0D
:10169000730B840BBA0BEE1F88F7E095089504D006
:1016A0006894B11112C10895F5D088F09F5790F059
:1016B000B92F9927B751A0F0D1F0660F771F881F77
:1016C000991F1AF0BA95C9F712C0B13081F0FCD059
:1016D000B1E00895F9C0672F782F8827B85F39F0F7
:1016E000B93FCCF3869577956795B395D9F73EF4D6
:1016F00090958095709561957F4F8F4F9F4F08957E
:10170000E89409C097FB3EF490958095709561959B
:101710007F4F8F4F9F4F9923A9F0F92F96E9BB2751
:101720009395F695879577956795B795F111F8CFCD
:10173000FAF4BB0F11F460FF1BC06F5F7F4F8F4F38
:101740009F4F16C0882311F096E911C0772321F02E
:101750009EE8872F762F05C0662371F096E8862FC6
:1017600070E060E02AF09A95660F771F881FDAF71D
:10177000880F9695879597F90895990F0008550F4A
:10178000AA0BE0E8FEEF16161706E807F907C0F007
:1017900012161306E407F50798F0621B730B840B0F
:1017A000950B39F40A2661F0232B242B252B21F4E9
:1017B00008950A2609F4A140A6958FEF811D811D89
:1017C000089597F99F6780E870E060E008959FEFC3
:1017D00080EC089500240A941616170618060906C8
:1017E000089500240A941216130614060506089597
:1017F000EECF50D0E8F3E894E0E0BB279F57F0F03D
:101800002AED3FE049EC06C0EE0FBB0F661F771FC5
:10181000881F28F0B23A62077307840728F0B25A8B
:10182000620B730B840BE3959A9572F7803830F452
:101830009A95BB0F661F771F881FD2F79048F5C097
:10184000092E0394000C11F4882352F0BB0F40F4CE
:10185000BF2B11F460FF04C06F5F7F4F8F4F9F4F0E
:101860000895EF93E0FF06C0A2EA2AED3FE049ECBD
:101870005FEB53DEE5DF0F90039401FC9058E2E646
:10188000F0E0DFC057FD9058440F551F59F05F3FFF
:1018900071F04795880F97FB991F61F09F3F79F092
:1018A00087950895121613061406551FF2CF469514
:1018B000F1DF08C0161617061806991FF1CF869596
:1018C0007105610508940895E894BB27662777277A
:1018D000CB0197F9089551DF08F48FEF08950BD0ED
:1018E000AFCF78DF28F07DDF18F0952309F069CFBE
:1018F0006ECF1124EACFC6DFA0F3959FD1F3950FE9
:1019000050E0551F629FF001729FBB27F00DB11D83
:10191000639FAA27F00DB11DAA1F649F6627B00D13
:10192000A11D661F829F2227B00DA11D621F739FFC
:10193000B00DA11D621F839FA00D611D221F749F0A
:101940003327A00D611D231F849F600D211D822F51
:10195000762F6A2F11249F5750408AF0E1F0882398
:101960004AF0EE0FFF1FBB1F661F771F881F9150A5
:101970005040A9F79E3F510570F023CFA6CF5F3F9F
:10198000ECF3983EDCF3869577956795B795F795D8
:10199000E7959F5FC1F7FE2B880F911D9695879560
:1019A00097F9089577DFE0F09E37D8F09639B8F4CC
:1019B0009E3848F4672F782F8827985FF9CF86954F
:1019C0007795679593959539D0F3B62FB1706B0FD6
:1019D000711D811D20F4879577956795939508C0B3
:1019E00022C073CF9F9305DF0F9007FCEE5F39CFC6
:1019F000882371F4772321F09850872B762F07C026
:101A0000662311F499270DC09051862B70E060E099
:101A10002AF09A95660F771F881FDAF7880F969538
:101A2000879597F908959F3F31F0915020F487955D
:101A300077956795B795880F911D9695879597F936
:101A400008959F938F937F936F93FF93EF939B01E1
:101A5000AC0145DFEF91FF9105D02F913F914F9160
:101A60005F913DCFDF93CF931F930F93FF92EF9240
:101A7000DF927B018C01689405C0DA2EEF013BDF19
:101A8000FE01E894A5912591359145915591AEF3CC
:101A9000EF0143DDFE019701A801DA9479F7DF90A9
:101AA000EF90FF900F911F91CF91DF910895F894DF
:021AB000FFCF66
:101AB2000300000000410000B0419A99AA430109C5
:0A1AC20052656365697665642100D2
:00000001FF
