:100000000C942A000C9447000C9447000C94470071
:100010000C9447000C9447000C9447000C94470044
:100020000C9447000C9447000C9447000C94FE027B
:100030000C9447000C9447000C9447000C94470024
:100040000C9447000C9447000C9447000C94470014
:100050000C94470011241FBECFE5D8E0DEBFCDBF12
:1000600010E0A0E6B0E0E4EAF9E002C005900D92ED
:10007000A63CB107D9F720E0A6ECB0E001C01D9284
:10008000AD3FB207E1F70E944E040C94D0040C94EB
:100090000000813091F487B3886B87BB6C9A603421
:1000A00011F4699A0BC0603111F4689A07C064308A
:1000B00029F08DB183608DB901C0BE9AC49AC398EE
:1000C0006E9A08958FB9779BFECF8FB10895C4982B
:1000D0009AE19A95F1F700C00E9462008AE18A9540
:1000E000F1F700C08FEF0E9462009AE19A95F1F754
:1000F00000C0C49A0895AF92BF92CF92DF92EF9260
:10010000FF920F931F93CF93DF93A82EB62E6A0111
:10011000790181E0A81202C080E2B80E8AE18A95D6
:10012000F1F700C0C4988AE18A95F1F700C08B2DE1
:100130000E9462008AE18A95F1F700C0C0E0D0E039
:10014000CE15DF05CCF4A1100BC080EAB81641F043
:100150008FEF0E946200F801EC0FFD1F808306C044
:10016000F601EC0FFD1F80810E9462008AE18A95F2
:10017000F1F700C02196E4CFC49ADF91CF911F918F
:100180000F91FF90EF90DF90CF90BF90AF900895C8
:10019000DF92EF92FF920F931F93CF93DF9300D0E4
:1001A00000D000D0CDB7DEB7D82E962FE42E2FEF9B
:1001B00030E782E0215030408040E1F700C000008D
:1001C000FF24F394F98202EF10E021E030E0AE0169
:1001D0004F5F5F4F61E081E09E830E947B00F98268
:1001E00021E030E0AE014F5F5F4F62E081E00E94AE
:1001F0007B0083E0898321E030E0AE014F5F5F4FF9
:1002000063E081E00E947B00F98221E030E0AE01F2
:100210004F5F5F4F65E081E00E947B009E819130DF
:1002200021F0923011F48EE001C086E0898302EF64
:1002300010E021E030E0AE014F5F5F4F66E081E00B
:100240000E947B0092E199839A839B839C839D8388
:1002500025E030E0AE014F5F5F4F6AE081E00E9431
:100260007B0025E030E0AE014F5F5F4F60E181E051
:100270000E947B008FEF8E0D853010F4E98202C062
:1002800081E0898302EF10E021E030E0AE014F5FB2
:100290005F4F61E181E00E947B0083E2898321E07E
:1002A00030E0AE014F5F5F4F64E081E00E947B0071
:1002B000D11005C01092EB008EE1898307C081E068
:1002C0008093EB008FE1898302EF10E021E030E0C2
:1002D000AE014F5F5F4F60E081E00E947B008FE1E5
:1002E0009EE40197F1F700C0000026960FB6F8943F
:1002F000DEBF0FBECDBFDF91CF911F910F91FF9059
:10030000EF90DF9008958AE18A95F1F700C0C498D4
:100310008AE18A95F1F700C087E20E9462008AE1D3
:100320008A95F1F700C080E70E9462008AE18A9511
:10033000F1F700C0C49A08950F931F93CF93DF93F2
:1003400000D000D01F92CDB7DEB78FE1898302EFD6
:1003500010E021E030E0AE014F5F5F4F60E081E0F0
:100360000E947B000F900F900F900F900F90DF91E5
:10037000CF911F910F9108950F931F93CF93DF9308
:1003800000D000D01F92CDB7DEB78EE1898302EF97
:1003900010E021E030E0AE014F5F5F4F60E081E0B0
:1003A0000E947B000F900F900F900F900F90DF91A5
:1003B000CF911F910F910895FF920F931F93CF93A9
:1003C000DF93EC01F62E0E94830102EF10E020E0A3
:1003D00030E0AE0161EE80E00E947B002F2D30E026
:1003E000AE0160EA80E00E947B00DF91CF911F9117
:1003F0000F91FF900895C39A8FE891E00197F1F76C
:1004000000C00000C39808950F931F932AE12A9516
:10041000F1F700C0C398262F30E08C0142EF50E086
:1004200061E680E00E947B008AE18A95F1F700C0D6
:1004300082EE0E9462002AE12A95F1F700C00E9434
:1004400083018AE18A95F1F700C01F910F91089509
:1004500010BC83E389B980B58E6A80BD8AB1886992
:100460008AB908955D9BFECF8CB908955F9BFECF3E
:100470008CB108950F931F93CF93DF93C7E0D0E023
:10048000082F10E0C8010C2E02C0959587950A949C
:10049000E2F780FF02C081E301C080E30E943202E4
:1004A000219780F78DE0DF91CF911F910F910C94F0
:1004B0003202EF92FF920F931F93CF93DF938C0141
:1004C000EC01E62EF12CCE01801B910B8E159F05C1
:1004D00024F489910E943202F6CF8DE0DF91CF9112
:1004E0001F910F91FF90EF900C9432020F931F9386
:1004F000CF93DF93EC018C01FE0101900020E9F71E
:100500003197EC1BFD0BC8018C1B9D0B8E179F07B1
:1005100030F4F80181918F010E943202EDCF8DE01D
:10052000DF91CF911F910F910C943202CF92DF9205
:10053000EF92FF920F931F93CF93DF93CDB7DEB768
:1005400064970FB6F894DEBF0FBECDBF8C01009745
:1005500021F480E30E94320234C097FF06C0119557
:10056000019511098DE20E943202E12C2AE030E06F
:10057000E1E0F0E0EC0FFD1FEE0DF11DC801B90147
:100580000E94A80480838B01E3946115710581F7B3
:1005900000E010E0F12CCC24C394D12CCC0EDD1E55
:1005A000CE0CDF1C01501109C701800F911F01966D
:1005B00041F0F601E00FF11F8081805D0E94320260
:1005C000F1CF8DE064960FB6F894DEBF0FBECDBFBD
:1005D000DF91CF911F910F91FF90EF90DF90CF901F
:1005E0000C943202FA0160837183828393830895AD
:1005F000FC01608171818281938108951F920F9225
:100600000FB60F9211248F9380EE82BF8091F1007C
:100610008F5F8093F1008F910F900FBE0F901F900E
:10062000189580E790E090936100809360000E94AD
:1006300076028091EC000C943A02FC0180818630B5
:1006400009F48DC008F5833009F46EC098F4813048
:1006500009F45DC0823009F08EC081819281A3814E
:10066000B4818093D1009093D200A093D300B09333
:10067000D40081C0843009F46EC0853009F07BC09D
:1006800081E08093C90077C0823811F188F48F37F8
:1006900009F469C0813809F06EC08093F700809139
:1006A000E1009091E200A091E300B091E40025C048
:1006B0008338C9F0843809F05EC08093F7008091D8
:1006C000CE008093F8008091CD008093F9001DC08A
:1006D0008093F7008091DD009091DE00A091DF0013
:1006E000B091E0000AC08093F7008091D90090910A
:1006F000DA00A091DB00B091DC008093F8009093C9
:10070000F900A093FA00B093FB0081E00895818185
:100710009281A381B4818093D5009093D600A09359
:10072000D700B093D80027C092819093D0008381E6
:100730008093CF0097FF03C01092CC0003C091E0DC
:100740009093CC0087FF03C01092CB0014C081E0CF
:100750008093CB0010C081E08093CA000CC08281DE
:100760008093C80008C01092D0001092CF00109261
:10077000CA001092C90080E008958091C7008230BD
:1007800009F482C028F4882359F0813059F1089582
:10079000843009F43FC070F1853009F44AC00895EF
:1007A000C8997BC0C39887E00E9467008E3031F003
:1007B00065E08CEE90E00E940402F5CF0E941103E8
:1007C0008CEE90E00E941D03882309F465C00E940E
:1007D000BC0181E08093C7008091F100865F809327
:1007E000C60008959091F1008091C600981355C0FD
:1007F00083E047C08BE790E00E94760265E087EFD8
:1008000090E00E94DC018091F100865F8093C60039
:1008100084E037C09091F1008091C60098133DC0EC
:100820000E94FB018091F100865F8093C60085E005
:1008300028C0C89B06C09091F1008091C600981313
:100840002CC087E00E946700803241F48BE890E082
:1008500090936100809360000E94760281EA90E0AC
:100860000E94760287E00E9467000E943A020E947E
:1008700083010E949C018091F100865F8093C600F5
:1008800082E08093C70008959091F1008091C600A6
:10089000981303C01092C700C39A08951ABA81E052
:1008A0008BBB2FEF89E698E1215080409040E1F723
:1008B00000C0000060E081E00E9449002FEF89E65F
:1008C00098E1215080409040E1F700C0000045E0F1
:1008D00060E081E00E94C8002FEF80E792E02150A5
:1008E00080409040E1F700C000000E94280283B7DA
:1008F000846083BF89B7816089BF78942FEF80E7D8
:1009000092E0215080409040E1F700C0000084EB6D
:1009100090E090936100809360000E94760287E0EF
:100920000E9467000E943A022FEF83ED90E321506E
:1009300080409040E1F700C00000C39A0E94BD03D0
:10094000FDCFECEEF0E080818F5F8083CF010895D2
:1009500097FB072E16F4009407D077FD09D00E946C
:10096000BC0407FC05D03EF4909581959F4F0895F7
:10097000709561957F4F0895AA1BBB1B51E107C07D
:10098000AA1FBB1FA617B70710F0A61BB70B881F1F
:10099000991F5A95A9F780959095BC01CD010895AE
:0409A000F894FFCFF9
:1009A400C3000D8182838405010203040506077FC9
:1009B4000952656365697665642100476F6E6E61EF
:1009C400207472616E736D69742100095472616ED2
:1009D400736D69742073756363657366756C6C21DC
:1009E400006166746572207472616E736D697469F6
:1009F4006F6E3A00496E697469616C697A617469F1
:060A04006F6E00610000AE
:00000001FF
