:100000000C942A000C9447000C9447000C94470071
:100010000C9447000C9447000C9447000C94470044
:100020000C9447000C9447000C9447000C94B202C7
:100030000C9447000C9447000C9447000C94470024
:100040000C9447000C9447000C9447000C94470014
:100050000C94470011241FBECFE5D8E0DEBFCDBF12
:1000600010E0A0E6B0E0E8E9F7E002C005900D92EC
:10007000A83BB107D9F720E0A8EBB0E001C01D9282
:10008000AD3EB207E1F70E9464030C94CA030C94DE
:100090000000813091F487B3886B87BB6C9A603421
:1000A00011F4699A0BC0603111F4689A07C064308A
:1000B00029F08DB183608DB901C0BE9AC49AC398EE
:1000C0006E9A08958FB9779BFECF8FB10895C4982B
:1000D0009AE19A95F1F700C00E9462008AE18A9540
:1000E000F1F700C08FEF0E9462009AE19A95F1F754
:1000F00000C0C49A0895AF92BF92CF92DF92EF9260
:10010000FF920F931F93CF93DF93A82EB62E6A0111
:10011000790181E0A81202C080E2B80E8AE18A95D6
:10012000F1F700C0C4988AE18A95F1F700C08B2DE1
:100130000E9462008AE18A95F1F700C0C0E0D0E039
:10014000CE15DF05CCF4A1100BC080EAB81641F043
:100150008FEF0E946200F801EC0FFD1F808306C044
:10016000F601EC0FFD1F80810E9462008AE18A95F2
:10017000F1F700C02196E4CFC49ADF91CF911F918F
:100180000F91FF90EF90DF90CF90BF90AF900895C8
:10019000DF92EF92FF920F931F93CF93DF9300D0E4
:1001A00000D000D0CDB7DEB7D82E962FE42E2FEF9B
:1001B00030E782E0215030408040E1F700C000008D
:1001C000FF24F394F98207EC10E021E030E0AE0167
:1001D0004F5F5F4F61E081E09E830E947B00F98268
:1001E00021E030E0AE014F5F5F4F62E081E00E94AE
:1001F0007B0083E0898321E030E0AE014F5F5F4FF9
:1002000063E081E00E947B00F98221E030E0AE01F2
:100210004F5F5F4F65E081E00E947B009E819130DF
:1002200021F0923011F48EE001C086E0898307EC62
:1002300010E021E030E0AE014F5F5F4F66E081E00B
:100240000E947B0092E199839A839B839C839D8388
:1002500025E030E0AE014F5F5F4F6AE081E00E9431
:100260007B0025E030E0AE014F5F5F4F60E181E051
:100270000E947B008FEF8E0D853010F4E98202C062
:1002800081E0898307EC10E021E030E0AE014F5FB0
:100290005F4F61E181E00E947B0083E2898321E07E
:1002A00030E0AE014F5F5F4F64E081E00E947B0071
:1002B000D11005C01092C0008EE1898307C081E093
:1002C0008093C0008FE1898307EC10E021E030E0EB
:1002D000AE014F5F5F4F60E081E00E947B008FE1E5
:1002E0009EE40197F1F700C0000026960FB6F8943F
:1002F000DEBF0FBECDBFDF91CF911F910F91FF9059
:10030000EF90DF9008958AE18A95F1F700C0C498D4
:100310008AE18A95F1F700C087E20E9462008AE1D3
:100320008A95F1F700C080E70E9462008AE18A9511
:10033000F1F700C0C49A08950F931F93CF93DF93F2
:1003400000D000D01F92CDB7DEB78FE1898307ECD4
:1003500010E021E030E0AE014F5F5F4F60E081E0F0
:100360000E947B000F900F900F900F900F90DF91E5
:10037000CF911F910F9108950F931F93CF93DF9308
:1003800000D000D01F92CDB7DEB78EE1898307EC95
:1003900010E021E030E0AE014F5F5F4F60E081E0B0
:1003A0000E947B000F900F900F900F900F90DF91A5
:1003B000CF911F910F910895FF920F931F93CF93A9
:1003C000DF93EC01F62E0E94830107EC10E020E0A1
:1003D00030E0AE0161EE80E00E947B002F2D30E026
:1003E000AE0160EA80E00E947B00DF91CF911F9117
:1003F0000F91FF900895C39A8FE891E00197F1F76C
:1004000000C00000C39808950F931F9325E32A9519
:10041000F1F70000C398262F30E08C0147EC50E044
:1004200061E680E00E947B0085E38A95F1F7000099
:1004300082EE0E94620025E32A95F1F700000E94F7
:10044000830185E38A95F1F700001F910F910895CC
:1004500010BC83E389B980B58E6A80BD8AB1886992
:100460008AB908955D9BFECF8CB908955F9BFECF3E
:100470008CB108950F931F93CF93DF93C7E0D0E023
:10048000082F10E0C8010C2E02C0959587950A949C
:10049000E2F780FF02C081E301C080E30E943202E4
:1004A000219780F78DE0DF91CF911F910F910C94F0
:1004B00032020F931F93CF93DF93EC018C01FE0167
:1004C00001900020E9F73197EC1BFD0BC8018C1B54
:1004D0009D0B8E179F0730F4F80181918F010E94C8
:1004E0003202EDCF8DE0DF91CF911F910F910C94EF
:1004F00032020F931F93CF93DF931F92CDB7DEB7D6
:10050000382F882311F02AE008C080E30F90DF9194
:10051000CF911F910F910C943202822F231730F448
:10052000880F282F220F220F280FF7CF6AE00E9492
:10053000BE03182F0AE0832F612F0E94BE03805D47
:1005400099830E9432029981392F812F602F0E9456
:10055000BE03182F3111EFCF0F90DF91CF911F9174
:100560000F9108951F920F920FB60F9211248F933F
:1005700080EE82BF8091C6008F5F8093C6008F910E
:100580000F900FBE0F901F90189582E690E0909309
:100590006100809360000E9459028091CC000C940D
:1005A0003A028091B900823009F484C028F488238B
:1005B00059F0813041F10895843009F441C058F177
:1005C000853009F44CC00895C8997DC0C39887E070
:1005D0000E9467008E3031F061E08CEC90E00E9468
:1005E0000402F5CF0E94C5028091CC0087FF6AC04B
:1005F0000E94BC0181E08093B9008091C600865FB3
:100600008093B80008959091C6008091B800981327
:100610005AC083E04CC08DE690E00E945902809160
:10062000CC008F5F8093CC0061E08CEC90E00E9466
:10063000DC018091C600865F8093B80084E037C0FB
:100640009091C6008091B80098133DC00E94FB01B4
:100650008091C600865F8093B80085E028C0C89B63
:1006600006C09091C6008091B80098132CC087E016
:100670000E946700803241F48DE790E09093610022
:10068000809360000E94590283E990E00E94590221
:1006900087E00E9467000E943A020E9483010E9444
:1006A0009C018091C600865F8093B80082E08093B1
:1006B000B90008959091C6008091B800981303C0C6
:1006C0001092B900C39A08951ABA81E08BBB2FEF3C
:1006D00089E698E1215080409040E1F700C0000099
:1006E00060E081E00E9449002FEF89E698E1215007
:1006F00080409040E1F700C0000040E060E081E011
:100700000E94C8002FEF80E792E021508040904087
:10071000E1F700C000000E94280283B7846083BF15
:1007200089B7816089BF78942FEF80E792E02150EC
:1007300080409040E1F700C0000086EA90E090938E
:100740006100809360000E94590287E00E94670068
:100750000E943A022FEF83ED90E3215080409040B9
:10076000E1F700C00000C39A0E94D102FDCFECEC7B
:10077000F0E080818F5F8083CF010895991B79E03D
:1007800004C0991F961708F0961B881F7A95C9F721
:0807900080950895F894FFCF55
:10079800B5000952656365697665642100476F6E27
:1007A8006E61207472616E736D69742100095472F0
:1007B800616E736D69742073756363657366756CB8
:1007C8006C21006166746572207472616E736D6964
:1007D80074696F6E3A00496E697469616C697A610F
:0807E80074696F6E00610000EE
:00000001FF
