:100000000C942A000C943C000C943C000C943C0092
:100010000C943C000C943C000C943C000C943C0070
:100020000C943C000C943C000C943C000C943C0060
:100030000C943C000C943C000C943C000C943C0050
:100040000C943C000C943C000C943C000C943C0040
:100050000C943C0011241FBECFE5D8E0DEBFCDBF1D
:1000600020E0A0E6B0E001C01D92AA36B207E1F799
:100070000E9464010C949D010C940000813091F465
:1000800087B3806B87BB6C9A603411F4699A0BC09C
:10009000603111F4689A07C0643029F08DB1836033
:1000A0008DB901C0BE9AC49AC3986E9A08958FB94B
:1000B0008EB18823E9F377988FB10895C4989AE1B7
:1000C0009A95F1F700C00E9457008AE18A95F1F7EE
:1000D00000C08FEF0E9457009AE19A95F1F700C097
:1000E000C49A0895CF92DF92EF92FF920F931F93DD
:1000F000CF93DF93C82ED62E7A01890181E0C812F2
:1001000002C080E2D80E8AE18A95F1F700C0C49857
:100110008AE18A95F1F700C08D2D0E9457008AE18F
:100120008A95F1F700C0C0E0D0E0C017D1079CF479
:10013000C11005C080EAD81611F08FEF04C0F70196
:10014000EC0FFD1F80810E9457008AE18A95F1F72C
:1001500000C02196EACF8AE18A95F1F700C0C49ADF
:10016000DF91CF911F910F91FF90EF90DF90CF9093
:100170000895DF92EF92FF920F931F93CF93DF9337
:1001800000D000D000D0CDB7DEB7D82E962FE42E09
:100190002FEF30E782E0215030408040E1F700C08F
:1001A0000000FF24F394F9828E010F5F1F4F21E0BE
:1001B00030E0A80161E081E09E830E947200F98234
:1001C00021E030E0A80162E081E00E94720083E05B
:1001D000898321E030E0A80163E081E00E947200A1
:1001E000F98221E030E0A80165E081E00E94720020
:1001F0009E81913021F0923021F48EE003C086E0A0
:1002000001C086E289838E010F5F1F4F21E030E03D
:10021000A80166E081E00E94720092E199839A83CE
:100220009B839C839D8325E030E0A8016AE081E008
:100230000E94720025E030E0A80160E181E00E94A8
:1002400072008FEF8E0D853010F4E98202C081E0DC
:1002500089838E010F5F1F4F21E030E0A80161E12B
:1002600081E00E9472008FE2898321E030E0A801E2
:1002700064E081E00E947200D11003C08EE18983A6
:1002800005C08FE189838E010F5F1F4F21E030E0B1
:10029000A80160E081E00E9472009FEF21EE34E04F
:1002A000915020403040E1F700C0000026960FB684
:1002B000F894DEBF0FBECDBFDF91CF911F910F919C
:1002C000FF90EF90DF90089580E881BB8FEF8ABBAD
:1002D0001BBA82B3805882BB2FEF8DE399E4215083
:1002E00080409040E1F700C0000082B3805882BB9C
:1002F00060E081E00E943E002FEF89E698E1215006
:1003000080409040E1F700C0000040E060E080E005
:100310000E94B9002FEF80E792E02150804090408A
:10032000E1F700C0000080E00E945E008E3119F409
:0E03300081E08BBBDACF1BBAD8CFF894FFCF99
:00000001FF
