:100000000C942A000C9447000C9447000C94470071
:100010000C9447000C9447000C9447000C94470044
:100020000C9447000C9447000C9447000C940F0468
:100030000C9447000C9414060C9447000C94470051
:100040000C9447000C9447000C9447000C94470014
:100050000C94470011241FBECFE5D8E0DEBFCDBF12
:1000600010E0A0E6B0E0E0ECF2E102C005900D92F5
:10007000AE39B107D9F721E0AEE9B0E001C01D9279
:10008000AD33B207E1F70E94C5060C945E090C94EB
:100090000000813091F487B3886B87BB6C9A603421
:1000A00011F4699A0BC0603111F4689A07C064308A
:1000B00029F08DB183608DB901C0BE9AC49AC398EE
:1000C0006E9A08958FB9779BFECF8FB10895C4982B
:1000D0009AE19A95F1F700C00E9462008AE18A9540
:1000E000F1F700C08FEF0E9462009AE19A95F1F754
:1000F00000C0C49A0895AF92BF92CF92DF92EF9260
:10010000FF920F931F93CF93DF93A82EB62E6A0111
:10011000790181E0A81202C080E2B80E8AE18A95D6
:10012000F1F700C0C4988AE18A95F1F700C08B2DE1
:100130000E9462008AE18A95F1F700C0C0E0D0E039
:10014000CE15DF05CCF4A1100BC080EAB81641F043
:100150008FEF0E946200F801EC0FFD1F808306C044
:10016000F601EC0FFD1F80810E9462008AE18A95F2
:10017000F1F700C02196E4CFC49ADF91CF911F918F
:100180000F91FF90EF90DF90CF90BF90AF900895C8
:10019000DF92EF92FF920F931F93CF93DF9300D0E4
:1001A00000D000D0CDB7DEB7D82E962FE42E2FEF9B
:1001B00030E782E0215030408040E1F700C000008D
:1001C000FF24F394F98203E311E021E030E0AE0173
:1001D0004F5F5F4F61E081E09E830E947B00F98268
:1001E00021E030E0AE014F5F5F4F62E081E00E94AE
:1001F0007B0083E0898321E030E0AE014F5F5F4FF9
:1002000063E081E00E947B00F98221E030E0AE01F2
:100210004F5F5F4F65E081E00E947B009E819130DF
:1002200021F0923011F48EE001C086E0898303E36F
:1002300011E021E030E0AE014F5F5F4F66E081E00A
:100240000E947B0092E199839A839B839C839D8388
:1002500025E030E0AE014F5F5F4F6AE081E00E9431
:100260007B0025E030E0AE014F5F5F4F60E181E051
:100270000E947B008FEF8E0D853010F4E98202C062
:1002800081E0898303E311E021E030E0AE014F5FBC
:100290005F4F61E181E00E947B0083E2898321E07E
:1002A00030E0AE014F5F5F4F64E081E00E947B0071
:1002B000D11005C0109227018EE1898307C081E02B
:1002C000809327018FE1898303E311E021E030E08F
:1002D000AE014F5F5F4F60E081E00E947B008FE1E5
:1002E0009EE40197F1F700C0000026960FB6F8943F
:1002F000DEBF0FBECDBFDF91CF911F910F91FF9059
:10030000EF90DF9008958AE18A95F1F700C0C498D4
:100310008AE18A95F1F700C087E20E9462008AE1D3
:100320008A95F1F700C080E70E9462008AE18A9511
:10033000F1F700C0C49A08950F931F93CF93DF93F2
:1003400000D000D01F92CDB7DEB78FE1898303E3E1
:1003500011E021E030E0AE014F5F5F4F60E081E0EF
:100360000E947B000F900F900F900F900F90DF91E5
:10037000CF911F910F9108950F931F93CF93DF9308
:1003800000D000D01F92CDB7DEB78EE1898303E3A2
:1003900011E021E030E0AE014F5F5F4F60E081E0AF
:1003A0000E947B000F900F900F900F900F90DF91A5
:1003B000CF911F910F910895FF920F931F93CF93A9
:1003C000DF93EC01F62E0E94830103E311E020E0AD
:1003D00030E0AE0161EE80E00E947B002F2D30E026
:1003E000AE0160EA80E00E947B00DF91CF911F9117
:1003F0000F91FF900895C39A8FE891E00197F1F76C
:1004000000C00000C39808950F931F932AE12A9516
:10041000F1F700C0C398262F30E08C0143E351E090
:1004200061E680E00E947B008AE18A95F1F700C0D6
:1004300082EE0E9462002AE12A95F1F700C00E9434
:1004400083018AE18A95F1F700C01F910F91089509
:10045000FA0160837183828393830895FC01608134
:10046000718182819381089510BC83E389B980B53D
:100470008E6A80BD8AB188698AB908955D9BFECF76
:100480008CB908955F9BFECF8CB108950F931F9395
:10049000CF93DF93C7E0D0E0082F10E0C8010C2E07
:1004A00002C0959587950A94E2F780FF02C081E328
:1004B00001C080E30E943E02219780F78DE0DF912A
:1004C000CF911F910F910C943E02EF92FF920F93E8
:1004D0001F93CF93DF938C01EC01E62EF12CCE011C
:1004E000801B910B8E159F0524F489910E943E027A
:1004F000F6CF8DE0DF91CF911F910F91FF90EF909C
:100500000C943E020F931F93CF93DF93EC018C0169
:10051000FE0101900020E9F73197EC1BFD0BC801AB
:100520008C1B9D0B8E179F0730F4F80181918F0172
:100530000E943E02EDCF8DE0DF91CF911F910F9190
:100540000C943E027F928F929F92AF92BF92CF9275
:10055000DF92EF92FF920F931F93CF93DF93CDB76C
:10056000DEB764970FB6F894DEBF0FBECDBF6B0148
:100570007C016115710581059105B1F480E36496F4
:100580000FB6F894DEBF0FBECDBFDF91CF911F91A4
:100590000F91FF90EF90DF90CF90BF90AF909F9022
:1005A0008F907F900C943E0297FF0BC0F094E094E4
:1005B000D094C094C11CD11CE11CF11C8DE20E949E
:1005C0003E02712C9AE0892E912CA12CB12C01E0D5
:1005D00010E00C0F1D1F070D111DC701B601A5016D
:1005E00094010E940607F801608369017A017394FF
:1005F000C114D104E104F10451F700E010E0E72C4C
:10060000F12CCC24C394D12CCC0EDD1ECE0CDF1CDF
:1006100001501109C701800F911F019641F0F601A9
:10062000E00FF11F8081805D0E943E02F1CF649651
:100630000FB6F894DEBF0FBECDBFDF91CF911F91F3
:100640000F91FF90EF90DF90CF90BF90AF909F9071
:100650008F907F9008958F929F92AF92BF92CF928A
:10066000DF92EF92FF920F931F93CF93DF93CDB75B
:10067000DEB764970FB6F894DEBF0FBECDBF8A0118
:10068000611571058105910531F480E3FA018083DC
:1006900081E090E046C097FF0DC0909580957095E1
:1006A00061957F4F8F4F9F4F2DE2FA012083DD240C
:1006B000D39401C0D12CC12C3AE0832E912CA12CD3
:1006C000B12CEE24E394F12CEC0EFD1EEC0CF11C8D
:1006D000A50194010E940607F7016083B901CA01D0
:1006E000C394611571058105910559F77C2D7D0D28
:1006F00080E090E041E050E04C0F5D1F4C0D511D3B
:1007000001972D2D30E0D71659F0D801A20FB31F55
:10071000FA01E80FF91F6081605D6C93D394F0CF0C
:10072000C90164960FB6F894DEBF0FBECDBFDF914E
:10073000CF911F910F91FF90EF90DF90CF90BF90DE
:10074000AF909F908F900895CF92DF92EF92FF929B
:10075000CF93C82F6A017B0180E50E943E028C2F57
:100760000E943E0220E030E048EC52E4C701B601AE
:100770000E94FB080E9418080E94A2028DE0CF91FF
:10078000FF90EF90DF90CF900C943E02CF93DF93D9
:1007900000D0CDB7DEB780E54A8369830E943E0270
:1007A00085E40E943E02698170E080E090E00E9452
:1007B000A2028CE20E943E024A81642F70E080E037
:1007C00090E00E94A2028DE00F900F90DF91CF91F8
:1007D0000C943E02FC018081823879F018F4813853
:1007E00031F00895833881F08438A1F00895418173
:1007F00052816381748188E505C0418152816381A2
:10080000748189E50C94A4034181528163817481D0
:1008100081E4F8CF4281618185E40C94C6031F9284
:100820000F920FB60F9211248F939F9380EE82BF89
:10083000809132018F5F8093320180919E00909170
:100840009F00019690939F0080939E0080919E0050
:1008500090919F00449721F410929F0010929E0067
:100860008091A100882351F090913201981306C025
:100870001092A3001092A1001092A4009F918F915A
:100880000F900FBE0F901F90189587E790E0909300
:100890006600809365000C9482028091680083302A
:1008A00079F038F4813009F487C0823009F44BC004
:1008B0000895853059F1D8F0863009F452C0089572
:1008C00080916700813081F48093BB0065E088E30C
:1008D00091E00E94DC0180913201865F8093BC0030
:1008E0001092670084E06FC01092BB000895909151
:1008F00032018091BC00981368C00E94FB01809176
:100900003201865F8093BC0085E05DC0C89B06C055
:10091000909132018091BC00981357C087E00E94EB
:1009200067008E3209F04EC08091380187FF4AC0BF
:100930000E9483010E949C0180913201825E80931B
:10094000BC0082E040C0909132018091BC009813BD
:100950003CC0C39A80913201825E8093BC0086E0E5
:1009600032C0C89B06C0909132018091BC009813A0
:100970002CC0C39887E00E946700803481F487E030
:100980000E94670065E08E3029F088E291E00E94C5
:100990000402F5CF88E291E00E94EA0302C00E94BF
:1009A00045040E94BC0181E080936800809132017F
:1009B000875E8093BC000895909132018091BC00C5
:1009C000981303C083E08093680008950C94EA03B1
:1009D00083E990E090936600809365000E94820214
:1009E000809128010C9446027F928F929F92AF9241
:1009F000BF92CF92DF92EF92FF920F931F93CF930C
:100A0000DF93FC012181C62FD0E000E010E0EE244E
:100A1000E394F12C812C912C54016C01CC0EDD1E41
:100A20005AE0752E2D3299F501501109CE01800F33
:100A3000911F029714F1F601E00FF11F808190E001
:100A4000C0978E9DB0018F9D700D9E9D700D1124DD
:100A5000882777FD8095982F0E944B089B01AC0159
:100A6000C501B4010E9448074B015C01C701789E93
:100A70007001799EF00C1124D7CF20E030E048ECD3
:100A800052E4C501B4010E94B007905832C0015031
:100A90001109CE01800F911F1816190614F5F601E1
:100AA000E00FF11F808190E0C0978E9DB0018F9D77
:100AB000700D9E9D700D1124882777FD8095982FCD
:100AC0000E944B089B01AC01C501B4010E9448077C
:100AD0004B015C01F7017E9E70017F9EF00C11249A
:100AE000D6CF20E030E048EC52E4C501B4010E94CA
:100AF000B007DF91CF911F910F91FF90EF90DF90A2
:100B0000CF90BF90AF909F908F907F900895CF929D
:100B1000DF92EF92FF92FC012081203509F457C04B
:100B200030F42534B9F12C3409F44FC056C02835BF
:100B300039F0293509F1233509F04FC08FE348C05A
:100B40000E94F4046B017C0120E030E040E252E4BA
:100B50000E94AC07811104C082B390E4892782BB54
:100B600081E080932D01C0922E01D0922F01E0925E
:100B70003001F09231012FC00E94F40422E0209352
:100B80002D0160932E0170932F018093300190937B
:100B9000310120C023E020932D01FC01228120930C
:100BA0002E01248120932F012181222329F02091DD
:100BB0002E01206820932E01FC018381882329F0D7
:100BC00080912F01806880932F0185E001C084E02F
:100BD00080932D0181E08093A200FF90EF90DF9041
:100BE000CF9008959091A4009923C1F08D3059F4CD
:100BF0006091A3008EEB90E00E9487051092A30005
:100C00001092A40008959091A300E92FF0E0E2541F
:100C1000FF4F80839F5F9093A3000895803519F460
:100C200081E08093A40008951F920F920FB60F9257
:100C300011242F933F934F935F936F937F938F93E1
:100C40009F93AF93BF93EF93FF930E9442020E9442
:100C5000F205FF91EF91BF91AF919F918F917F919D
:100C60006F915F914F913F912F910F900FBE0F9019
:100C70001F9018958091A000823889F038F481384F
:100C8000C1F482E88093A00081E80895833861F080
:100C9000843879F481E88093A00084E8089583E89B
:100CA0008093A00082E8089584E88093A00083E800
:100CB000089581E88093A0000895CF938091BB00B0
:100CC000811161C08091A200813039F5809164006A
:100CD000813021F080E090E021E022C0C091BA0094
:100CE000C13049F40E943A06809338011092BA004C
:100CF000C093670048C080E090E021E0FC01E35D24
:100D0000FE4F3081FC01E85CFE4F3083209367008A
:100D100001968530910591F711C08823A9F0DACFAB
:100D2000FC01E35DFE4F3081FC01E85CFE4F308347
:100D30002093670001968530910591F71092A200EB
:100D400081E08093BA001FC080916400882351F035
:100D50000E943A06809338011092BA0081E0809395
:100D6000670011C0909132018091B90098130BC0B7
:100D700087E08093380181E08093670080913201A1
:100D800088538093B900CF91089580E481BB1ABA4B
:100D900081E08BBB2FEF83ED90E3215080409040AA
:100DA000E1F700C0000083B7846083BF89B781602A
:100DB00089BF78942FEF8DE399E4215080409040D3
:100DC000E1F700C0000060E081E00E94490045E0DA
:100DD00060E080E00E94C80087E00E9467008E30DB
:100DE00011F480E482BB2FEF8DE399E42150804021
:100DF0009040E1F700C0000012BA109228010E9452
:100E000034020E945D060E944D04FBCF052E97FB25
:100E10001EF400940E941D0757FD07D00E9425076D
:100E200007FC03D04EF40C941D0750954095309567
:100E300021953F4F4F4F5F4F089590958095709546
:100E400061957F4F8F4F9F4F0895A1E21A2EAA1BE5
:100E5000BB1BFD010DC0AA1FBB1FEE1FFF1FA2176A
:100E6000B307E407F50720F0A21BB30BE40BF50B67
:100E7000661F771F881F991F1A9469F760957095F0
:100E8000809590959B01AC01BD01CF01089550580C
:100E9000BB27AA270ED075C166D130F06BD120F0E8
:100EA00031F49F3F11F41EF45BC10EF4E095E7FBB3
:100EB00051C1E92F77D180F3BA176207730784070E
:100EC000950718F071F49EF58FC10EF4E0950B2E86
:100ED000BA2FA02D0B01B90190010C01CA01A0018C
:100EE0001124FF27591B99F0593F50F4503E68F1E7
:100EF0001A16F040A22F232F342F4427585FF3CF28
:100F0000469537952795A795F0405395C9F77EF4F8
:100F10001F16BA0B620B730B840BBAF09150A1F041
:100F2000FF0FBB1F661F771F881FC2F70EC0BA0FC7
:100F3000621F731F841F48F4879577956795B7954F
:100F4000F7959E3F08F0B3CF9395880F08F0992747
:100F5000EE0F979587950895D9D008F481E008950C
:100F60000CD00FC107D140F0FED030F021F45F3F2C
:100F700019F0F0C0511139C1F3C014D198F399237D
:100F8000C9F35523B1F3951B550BBB27AA2762174D
:100F90007307840738F09F5F5F4F220F331F441F92
:100FA000AA1FA9F333D00E2E3AF0E0E830D09150CA
:100FB0005040E695001CCAF729D0FE2F27D0660FB7
:100FC000771F881FBB1F261737074807AB07B0E8F6
:100FD00009F0BB0B802DBF01FF2793585F4F2AF00C
:100FE0009E3F510568F0B6C000C15F3FECF3983EEC
:100FF000DCF3869577956795B795F7959F5FC9F769
:10100000880F911D9695879597F90895E1E0660FF1
:10101000771F881FBB1F621773078407BA0720F06A
:10102000621B730B840BBA0BEE1F88F7E0950895D3
:1010300004D06894B111D9C00895BCD088F09F57EE
:1010400090F0B92F9927B751A0F0D1F0660F771F14
:10105000881F991F1AF0BA95C9F712C0B13081F0F4
:10106000C3D0B1E00895C0C0672F782F8827B85F3C
:1010700039F0B93FCCF3869577956795B395D9F755
:101080003EF490958095709561957F4F8F4F9F4F5F
:101090000895E89409C097FB3EF49095809570956B
:1010A00061957F4F8F4F9F4F9923A9F0F92F96E9B4
:1010B000BB279395F695879577956795B795F11129
:1010C000F8CFFAF4BB0F11F460FF1BC06F5F7F4FC6
:1010D0008F4F9F4F16C0882311F096E911C07723D8
:1010E00021F09EE8872F762F05C0662371F096E8E1
:1010F000862F70E060E02AF09A95660F771F881FB0
:10110000DAF7880F9695879597F90895990F000853
:10111000550FAA0BE0E8FEEF16161706E807F907C9
:10112000C0F012161306E407F50798F0621B730B64
:10113000840B950B39F40A2661F0232B242B252BE5
:1011400021F408950A2609F4A140A6958FEF811D88
:10115000811D089597F99F6780E870E060E0089529
:101160009FEF80EC089500240A94161617061806BF
:101170000906089500240A9412161306140605069B
:101180000895092E0394000C11F4882352F0BB0F2C
:1011900040F4BF2B11F460FF04C06F5F7F4F8F4F8F
:1011A0009F4F089557FD9058440F551F59F05F3FCA
:1011B00071F04795880F97FB991F61F09F3F79F079
:1011C00087950895121613061406551FF2CF4695FB
:1011D000F1DF08C0161617061806991FF1CF86957D
:1011E0007105610508940895E894BB276627772761
:1011F000CB0197F908950BD0C4CFB5DF28F0BADF43
:1012000018F0952309F0A6CFABCF1124EECFCADF9B
:10121000A0F3959FD1F3950F50E0551F629FF00109
:10122000729FBB27F00DB11D639FAA27F00DB11D62
:10123000AA1F649F6627B00DA11D661F829F2227EB
:10124000B00DA11D621F739FB00DA11D621F839F72
:10125000A00D611D221F749F3327A00D611D231F48
:10126000849F600D211D822F762F6A2F11249F5796
:1012700050408AF0E1F088234AF0EE0FFF1FBB1FB9
:10128000661F771F881F91505040A9F79E3F510558
:1012900070F060CFAACF5F3FECF3983EDCF3869509
:1012A00077956795B795F795E7959F5FC1F7FE2B03
:1012B000880F911D9695879597F90895F894FFCF1B
:1012C0000080BB4501910001030D818283840501EB
:1012D0000203040506073F4572726F72206475723F
:1012E000696E6720726563656976696E67206461FF
:0E12F0007461000952656365697665642100CA
:00000001FF
