:100000000C942A000C9447000C9447000C94470071
:100010000C9447000C9447000C9447000C94470044
:100020000C9447000C9447000C9447000C94FE027B
:100030000C9447000C9447000C9447000C94470024
:100040000C9447000C9447000C9447000C94470014
:100050000C94470011241FBECFE5D8E0DEBFCDBF12
:1000600010E0A0E6B0E0EAE2FAE002C005900D92EE
:10007000A83AB107D9F720E0A8EAB0E001C01D9284
:10008000A33EB207E1F70E94AA040C9413050C9456
:100090000000813091F487B3886B87BB6C9A603421
:1000A00011F4699A0BC0603111F4689A07C064308A
:1000B00029F08DB183608DB901C0BE9AC49AC398EE
:1000C0006E9A08958FB9779BFECF8FB10895C4982B
:1000D0009AE19A95F1F700C00E9462008AE18A9540
:1000E000F1F700C08FEF0E9462009AE19A95F1F754
:1000F00000C0C49A0895AF92BF92CF92DF92EF9260
:10010000FF920F931F93CF93DF93A82EB62E6A0111
:10011000790181E0A81202C080E2B80E8AE18A95D6
:10012000F1F700C0C4988AE18A95F1F700C08B2DE1
:100130000E9462008AE18A95F1F700C0C0E0D0E039
:10014000CE15DF05CCF4A1100BC080EAB81641F043
:100150008FEF0E946200F801EC0FFD1F808306C044
:10016000F601EC0FFD1F80810E9462008AE18A95F2
:10017000F1F700C02196E4CFC49ADF91CF911F918F
:100180000F91FF90EF90DF90CF90BF90AF900895C8
:10019000DF92EF92FF920F931F93CF93DF9300D0E4
:1001A00000D000D0CDB7DEB7D82E962FE42E2FEF9B
:1001B00030E782E0215030408040E1F700C000008D
:1001C000FF24F394F98209ED10E021E030E0AE0164
:1001D0004F5F5F4F61E081E09E830E947B00F98268
:1001E00021E030E0AE014F5F5F4F62E081E00E94AE
:1001F0007B0083E0898321E030E0AE014F5F5F4FF9
:1002000063E081E00E947B00F98221E030E0AE01F2
:100210004F5F5F4F65E081E00E947B009E819130DF
:1002200021F0923011F48EE001C086E0898309ED5F
:1002300010E021E030E0AE014F5F5F4F66E081E00B
:100240000E947B0092E199839A839B839C839D8388
:1002500025E030E0AE014F5F5F4F6AE081E00E9431
:100260007B0025E030E0AE014F5F5F4F60E181E051
:100270000E947B008FEF8E0D853010F4E98202C062
:1002800081E0898309ED10E021E030E0AE014F5FAD
:100290005F4F61E181E00E947B0083E2898321E07E
:1002A00030E0AE014F5F5F4F64E081E00E947B0071
:1002B000D11005C01092CD008EE1898307C081E086
:1002C0008093CD008FE1898309ED10E021E030E0DB
:1002D000AE014F5F5F4F60E081E00E947B008FE1E5
:1002E0009EE40197F1F700C0000026960FB6F8943F
:1002F000DEBF0FBECDBFDF91CF911F910F91FF9059
:10030000EF90DF9008958AE18A95F1F700C0C498D4
:100310008AE18A95F1F700C087E20E9462008AE1D3
:100320008A95F1F700C080E70E9462008AE18A9511
:10033000F1F700C0C49A08950F931F93CF93DF93F2
:1003400000D000D01F92CDB7DEB78FE1898309EDD1
:1003500010E021E030E0AE014F5F5F4F60E081E0F0
:100360000E947B000F900F900F900F900F90DF91E5
:10037000CF911F910F9108950F931F93CF93DF9308
:1003800000D000D01F92CDB7DEB78EE1898309ED92
:1003900010E021E030E0AE014F5F5F4F60E081E0B0
:1003A0000E947B000F900F900F900F900F90DF91A5
:1003B000CF911F910F910895FF920F931F93CF93A9
:1003C000DF93EC01F62E0E94830109ED10E020E09E
:1003D00030E0AE0161EE80E00E947B002F2D30E026
:1003E000AE0160EA80E00E947B00DF91CF911F9117
:1003F0000F91FF900895C39A8FE891E00197F1F76C
:1004000000C00000C39808950F931F932AE12A9516
:10041000F1F700C0C398262F30E08C0149ED50E081
:1004200061E680E00E947B008AE18A95F1F700C0D6
:1004300082EE0E9462002AE12A95F1F700C00E9434
:1004400083018AE18A95F1F700C01F910F91089509
:1004500010BC83E389B980B58E6A80BD8AB1886992
:100460008AB908955D9BFECF8CB908955F9BFECF3E
:100470008CB108950F931F93CF93DF93C7E0D0E023
:10048000082F10E0C8010C2E02C0959587950A949C
:10049000E2F780FF02C081E301C080E30E943202E4
:1004A000219780F78DE0DF91CF911F910F910C94F0
:1004B0003202EF92FF920F931F93CF93DF938C0141
:1004C000EC01E62EF12CCE01801B910B8E159F05C1
:1004D00024F489910E943202F6CF8DE0DF91CF9112
:1004E0001F910F91FF90EF900C9432020F931F9386
:1004F000CF93DF93EC018C01FE0101900020E9F71E
:100500003197EC1BFD0BC8018C1B9D0B8E179F07B1
:1005100030F4F80181918F010E943202EDCF8DE01D
:10052000DF91CF911F910F910C943202CF92DF9205
:10053000EF92FF920F931F93CF93DF93CDB7DEB768
:1005400064970FB6F894DEBF0FBECDBF8C01009745
:1005500021F480E30E94320234C097FF06C0119557
:10056000019511098DE20E943202E12C2AE030E06F
:10057000E1E0F0E0EC0FFD1FEE0DF11DC801B90147
:100580000E94EB0480838B01E3946115710581F770
:1005900000E010E0F12CCC24C394D12CCC0EDD1E55
:1005A000CE0CDF1C01501109C701800F911F01966D
:1005B00041F0F601E00FF11F8081805D0E94320260
:1005C000F1CF8DE064960FB6F894DEBF0FBECDBFBD
:1005D000DF91CF911F910F91FF90EF90DF90CF901F
:1005E0000C943202FA0160837183828393830895AD
:1005F000FC01608171818281938108951F920F9225
:100600000FB60F9211248F939F9380EE82BF80913B
:10061000D8008F5F8093D8008091A8009091A900A6
:1006200001969093A9008093A8008091AB00882345
:1006300051F09091D800981306C01092AD0010921E
:10064000AB001092AE009F918F910F900FBE0F9054
:100650001F90189583E790E090936200809361006B
:100660000C94760280916400833079F038F4813004
:1006700009F490C0823009F454C00895853059F1CE
:10068000D8F0863009F45BC0089580916300813012
:1006900081F48093C50065E08EED90E00E94DC015E
:1006A0008091D800865F8093C6001092630084E03A
:1006B00078C01092C50008959091D8008091C6002E
:1006C000981371C00E94FB018091D800865F8093CF
:1006D000C60085E066C0C89B06C09091D800809196
:1006E000C600981360C08FE890E00E94760287E011
:1006F0000E9467000E943A0287E00E9467008E32E3
:1007000009F04EC08091DE0087FF4AC00E9483013D
:100710000E949C018091D800825E8093C60082E096
:1007200040C09091D8008091C60098133CC0C39AF5
:100730008091D800825E8093C60086E032C0C89B5C
:1007400006C09091D8008091C60098132CC0C39821
:1007500087E00E946700803481F487E00E94670090
:1007600065E08E3029F08EEC90E00E940402F5CF17
:100770008EEC90E00E94590202C00E942A030E945F
:10078000BC0181E0809364008091D800865F8093F3
:10079000C60008959091D8008091C600981303C0B8
:1007A00083E08093640008950C9459028CE990E0F2
:1007B00090936200809361000E9476028091CE0047
:1007C0000C943A029091AE009923D1F09091AD0033
:1007D000953078F48D3031F41092AD0081E0809343
:1007E000AC000BC0E92FF0E0ED52FF4F80839F5F1C
:1007F00021C01092AD001092AE001092AB0008958F
:10080000853031F02091650030E0E6E6F0E004C08C
:1008100081E0809360000895AF0146565040421732
:100820005307B4F491918913F7CF91E09093AE0000
:100830008093D3009093AD008091D80095E0980FFD
:100840009093AB00911104C08A5F8093AB00089530
:1008500008958091AA00823889F038F48138C1F473
:1008600082E88093AA0081E80895833861F0843893
:1008700079F481E88093AA0084E8089583E880935E
:10088000AA0082E8089584E88093AA0083E8089586
:1008900081E88093AA000895CF938091C5008111CB
:1008A00057C08091AC00813029F580916000813083
:1008B00031F0E3EDF0E0AEEDB0E081E01EC0C091BC
:1008C000C400C13049F40E9429048093DE001092D4
:1008D000C400C09363003CC0E3EDF0E0AEEDB0E0D7
:1008E00081E091919D938093630090E0E83DF9074A
:1008F000C1F70BC0882369F0DCCF91919D93809361
:10090000630090E0E83DF907C1F781E08093C400FF
:100910001FC080916000882351F00E9429048093B9
:10092000DE001092C40081E08093630011C09091BA
:10093000D8008091C30098130BC087E08093DE003D
:1009400081E0809363008091D80088538093C30036
:10095000CF91089580E481BB1ABA81E08BBB2FEF61
:1009600083ED90E3215080409040E1F700C000000B
:1009700083B7846083BF89B7816089BF78942FEF84
:100980008DE399E4215080409040E1F700C00000E1
:1009900060E081E00E94490045E060E080E00E9464
:1009A000C80087E00E9467008E3011F480E482BBAB
:1009B0002FEF8DE399E4215080409040E1F700C093
:1009C000000012BA1092CE000E9428020E944C042D
:1009D0000E943203FBCF97FB072E16F4009407D03A
:1009E00077FD09D00E94FF0407FC05D03EF49095E6
:1009F00081959F4F0895709561957F4F0895AA1B2B
:100A0000BB1B51E107C0AA1FBB1FA617B70710F0F9
:100A1000A61BB70B881F991F5A95A9F7809590952B
:0A0A2000BC01CD010895F894FFCF4A
:100A2A00018D0001030D81828384050102030405FF
:100A3A0006077F4572726F7220647572696E67204D
:100A4A00726563656976696E6720646174610054D2
:100A5A0072616E736D69747465642100095265630D
:080A6A00656976656421000056
:00000001FF
