:100000000C942A000C9447000C9447000C94470071
:100010000C9447000C9447000C9447000C94470044
:100020000C9447000C9447000C9447000C944C042B
:100030000C9447000C9447000C9447000C94470024
:100040000C9447000C9447000C9447000C94470014
:100050000C94470011241FBECFE5D8E0DEBFCDBF12
:1000600010E0A0E6B0E0ECEBFFE002C005900D92DE
:10007000AE39B107D9F720E0AEE9B0E001C01D927A
:10008000A93DB207E1F70E940F040C94DC070C9421
:100090000000813091F487B3886B87BB6C9A603421
:1000A00011F4699A0BC0603111F4689A07C064308A
:1000B00029F08DB183608DB901C0BE9AC49AC398EE
:1000C0006E9A08958FB9779BFECF8FB10895C4982B
:1000D0009AE19A95F1F700C00E9462008AE18A9540
:1000E000F1F700C08FEF0E9462009AE19A95F1F754
:1000F00000C0C49A0895AF92BF92CF92DF92EF9260
:10010000FF920F931F93CF93DF93A82EB62E6A0111
:10011000790181E0A81202C080E2B80E8AE18A95D6
:10012000F1F700C0C4988AE18A95F1F700C08B2DE1
:100130000E9462008AE18A95F1F700C0C0E0D0E039
:10014000CE15DF05CCF4A1100BC080EAB81641F043
:100150008FEF0E946200F801EC0FFD1F808306C044
:10016000F601EC0FFD1F80810E9462008AE18A95F2
:10017000F1F700C02196E4CFC49ADF91CF911F918F
:100180000F91FF90EF90DF90CF90BF90AF900895C8
:10019000DF92EF92FF920F931F93CF93DF9300D0E4
:1001A00000D000D0CDB7DEB7D82E962FE42E2FEF9B
:1001B00030E782E0215030408040E1F700C000008D
:1001C000FF24F394F9820FEC10E021E030E0AE015F
:1001D0004F5F5F4F61E081E09E830E947B00F98268
:1001E00021E030E0AE014F5F5F4F62E081E00E94AE
:1001F0007B0083E0898321E030E0AE014F5F5F4FF9
:1002000063E081E00E947B00F98221E030E0AE01F2
:100210004F5F5F4F65E081E00E947B009E819130DF
:1002200021F0923011F48EE001C086E089830FEC5A
:1002300010E021E030E0AE014F5F5F4F66E081E00B
:100240000E947B0092E199839A839B839C839D8388
:1002500025E030E0AE014F5F5F4F6AE081E00E9431
:100260007B0025E030E0AE014F5F5F4F60E181E051
:100270000E947B008FEF8E0D853010F4E98202C062
:1002800081E089830FEC10E021E030E0AE014F5FA8
:100290005F4F61E181E00E947B0083E2898321E07E
:1002A00030E0AE014F5F5F4F64E081E00E947B0071
:1002B000D11005C01092C3008EE1898307C081E090
:1002C0008093C3008FE189830FEC10E021E030E0E0
:1002D000AE014F5F5F4F60E081E00E947B008FE1E5
:1002E0009EE40197F1F700C0000026960FB6F8943F
:1002F000DEBF0FBECDBFDF91CF911F910F91FF9059
:10030000EF90DF9008958AE18A95F1F700C0C498D4
:100310008AE18A95F1F700C087E20E9462008AE1D3
:100320008A95F1F700C080E70E9462008AE18A9511
:10033000F1F700C0C49A08950F931F93CF93DF93F2
:1003400000D000D01F92CDB7DEB78FE189830FECCC
:1003500010E021E030E0AE014F5F5F4F60E081E0F0
:100360000E947B000F900F900F900F900F90DF91E5
:10037000CF911F910F9108950F931F93CF93DF9308
:1003800000D000D01F92CDB7DEB78EE189830FEC8D
:1003900010E021E030E0AE014F5F5F4F60E081E0B0
:1003A0000E947B000F900F900F900F900F90DF91A5
:1003B000CF911F910F910895FF920F931F93CF93A9
:1003C000DF93EC01F62E0E9483010FEC10E020E099
:1003D00030E0AE0161EE80E00E947B002F2D30E026
:1003E000AE0160EA80E00E947B00DF91CF911F9117
:1003F0000F91FF900895C39A8FE891E00197F1F76C
:1004000000C00000C39808950F931F932AE12A9516
:10041000F1F700C0C398262F30E08C014FEC50E07C
:1004200061E680E00E947B008AE18A95F1F700C0D6
:1004300082EE0E9462002AE12A95F1F700C00E9434
:1004400083018AE18A95F1F700C01F910F91089509
:10045000FA0160837183828393830895FC01608134
:10046000718182819381089510BC83E389B980B53D
:100470008E6A80BD8AB188698AB908955D9BFECF76
:100480008CB908955F9BFECF8CB108950F931F9395
:10049000CF93DF93C7E0D0E0082F10E0C8010C2E07
:1004A00002C0959587950A94E2F780FF02C081E328
:1004B00001C080E30E943E02219780F78DE0DF912A
:1004C000CF911F910F910C943E02EF92FF920F93E8
:1004D0001F93CF93DF938C01EC01E62EF12CCE011C
:1004E000801B910B8E159F0524F489910E943E027A
:1004F000F6CF8DE0DF91CF911F910F91FF90EF909C
:100500000C943E020F931F93CF93DF93EC018C0169
:10051000FE0101900020E9F73197EC1BFD0BC801AB
:100520008C1B9D0B8E179F0730F4F80181918F0172
:100530000E943E02EDCF8DE0DF91CF911F910F9190
:100540000C943E027F928F929F92AF92BF92CF9275
:10055000DF92EF92FF920F931F93CF93DF93CDB76C
:10056000DEB764970FB6F894DEBF0FBECDBF6B0148
:100570007C016115710581059105B1F480E36496F4
:100580000FB6F894DEBF0FBECDBFDF91CF911F91A4
:100590000F91FF90EF90DF90CF90BF90AF909F9022
:1005A0008F907F900C943E0297FF0BC0F094E094E4
:1005B000D094C094C11CD11CE11CF11C8DE20E949E
:1005C0003E02712C9AE0892E912CA12CB12C01E0D5
:1005D00010E00C0F1D1F070D111DC701B601A5016D
:1005E00094010E945106F801608369017A017394B5
:1005F000C114D104E104F10451F700E010E0E72C4C
:10060000F12CCC24C394D12CCC0EDD1ECE0CDF1CDF
:1006100001501109C701800F911F019641F0F601A9
:10062000E00FF11F8081805D0E943E02F1CF649651
:100630000FB6F894DEBF0FBECDBFDF91CF911F91F3
:100640000F91FF90EF90DF90CF90BF90AF909F9071
:100650008F907F9008958F929F92AF92BF92CF928A
:10066000DF92EF92FF920F931F93CF93DF93CDB75B
:10067000DEB764970FB6F894DEBF0FBECDBF8A0118
:10068000611571058105910531F480E3FA018083DC
:1006900081E090E046C097FF0DC0909580957095E1
:1006A00061957F4F8F4F9F4F2DE2FA012083DD240C
:1006B000D39401C0D12CC12C3AE0832E912CA12CD3
:1006C000B12CEE24E394F12CEC0EFD1EEC0CF11C8D
:1006D000A50194010E945106F7016083B901CA0186
:1006E000C394611571058105910559F77C2D7D0D28
:1006F00080E090E041E050E04C0F5D1F4C0D511D3B
:1007000001972D2D30E0D71659F0D801A20FB31F55
:10071000FA01E80FF91F6081605D6C93D394F0CF0C
:10072000C90164960FB6F894DEBF0FBECDBFDF914E
:10073000CF911F910F91FF90EF90DF90CF90BF90DE
:10074000AF909F908F900895CF92DF92EF92FF929B
:10075000CF93C82F6A017B0180E50E943E028C2F57
:100760000E943E0220E030E048EC52E4C701B601AE
:100770000E9479070E94F7060E94A2028DE0CF91A5
:10078000FF90EF90DF90CF900C943E02CF93DF93D9
:1007900000D0CDB7DEB780E54A8369830E943E0270
:1007A00085E40E943E02698170E080E090E00E9452
:1007B000A2028CE20E943E024A81642F70E080E037
:1007C00090E00E94A2028DE00F900F90DF91CF91F8
:1007D0000C943E02FC018081823879F018F4813853
:1007E00031F00895833881F08438A1F00895418173
:1007F00052816381748188E505C0418152816381A2
:10080000748189E50C94A4034181528163817481D0
:1008100081E4F8CF4281618185E40C94C60380E4D1
:1008200081BB1ABA81E08BBB2FEF83ED90E321509F
:1008300080409040E1F700C0000083B7846083BF30
:1008400089B7816089BF78942FEF8DE399E42150B7
:1008500080409040E1F700C0000060E081E00E942D
:10086000490045E060E080E00E94C80087E00E9407
:1008700067008E3011F480E482BB2FEF8DE399E4A2
:10088000215080409040E1F700C0000012BA109261
:10089000C4000E943402FFCF1F920F920FB60F9236
:1008A00011242F933F934F935F936F937F938F9375
:1008B0009F93AF93BF93EF93FF93CF93DF93CDB706
:1008C000DEB72597DEBFCDBF80EE82BF8091CE0020
:1008D0008F5F8093CE0080919E0090919F00019643
:1008E00090939F0080939E0080919E0090919F0026
:1008F000873E9340C9F562E070E080E090E00E949E
:10090000A20220E030E040E85FE360916000709177
:10091000610080916200909163000E949306609351
:1009200060007093610080936200909363006A831B
:100930007B838C839D8381E8898365E0CE0101966A
:100940000E94EA0382E8898365E0CE0101960E9455
:10095000EA0383E8898365E0CE0101960E94EA03F9
:1009600010929F0010929E008091A100882351F068
:100970009091CE00981306C01092A3001092A1008F
:100980001092A4000F900F900F900F900F90DF9196
:10099000CF91FF91EF91BF91AF919F918F917F91F7
:1009A0006F915F914F913F912F910F900FBE0F90DC
:1009B0001F90189587E790E09093660080936500FC
:1009C0000C94820280916800833079F038F4813091
:1009D00009F487C0823009F44BC00895853059F17D
:1009E000D8F0863009F452C00895809167008130B4
:1009F00081F48093BB0065E084ED90E00E94DC010F
:100A00008091CE00865F8093BC001092670084E0E6
:100A10006FC01092BB0008959091CE008091BC00F1
:100A2000981368C00E94FB018091CE00865F80937E
:100A3000BC0085E05DC0C89B06C09091CE0080914F
:100A4000BC00981357C087E00E9467008E3209F0FF
:100A50004EC08091D40087FF4AC00E9483010E944B
:100A60009C018091CE00825E8093BC0082E040C0F9
:100A70009091CE008091BC0098133CC0C39A8091A5
:100A8000CE00825E8093BC0086E032C0C89B06C068
:100A90009091CE008091BC0098132CC0C39887E041
:100AA0000E946700803481F487E00E94670065E05F
:100AB0008E3029F084EC90E00E940402F5CF84ECA3
:100AC00090E00E94EA0302C00E94DA040E94BC0186
:100AD00081E0809368008091CE00865F8093BC00A7
:100AE00008959091CE008091BC00981303C083E0DC
:100AF0008093680008950C94EA0383E990E0909352
:100B00006600809365000E9482028091C4000C946C
:100B100046029091A4009923D1F09091A3009530C2
:100B200078F48D3031F41092A30081E08093A2001C
:100B30000BC0E92FF0E0E753FF4F80839F5F21C098
:100B40001092A3001092A4001092A1000895853085
:100B500031F02091690030E0EAE6F0E004C081E085
:100B6000809364000895AF014A56504042175307DE
:100B7000B4F491918913F7CF91E09093A4008093FE
:100B8000C9009093A3008091CE0095E0980F9093B8
:100B9000A100911104C08A5F8093A1000895089577
:100BA0008091A000823889F038F48138C1F482E85D
:100BB0008093A00081E80895833861F0843879F447
:100BC00081E88093A00084E8089583E88093A000E2
:100BD00082E8089584E88093A00083E8089581E87E
:100BE0008093A0000895CF938091BB00811157C0DE
:100BF0008091A200813029F580916400813031F02C
:100C0000E9ECF0E0A4EDB0E081E01EC0C091BA00D4
:100C1000C13049F40E94D0058093D4001092BA00EC
:100C2000C09367003CC0E9ECF0E0A4EDB0E081E0E7
:100C300091919D938093670090E0EE3CF907C1F796
:100C40000BC0882369F0DCCF91919D93809367005E
:100C500090E0EE3CF907C1F781E08093BA001FC035
:100C600080916400882351F00E94D0058093D400C5
:100C70001092BA0081E08093670011C09091CE007D
:100C80008091B90098130BC087E08093D40081E075
:100C9000809367008091CE0088538093B900CF91F4
:100CA0000895052E97FB1EF400940E94680657FDD8
:100CB00007D00E94700607FC03D04EF40C9468061F
:100CC00050954095309521953F4F4F4F5F4F089578
:100CD00090958095709561957F4F8F4F9F4F0895A8
:100CE000A1E21A2EAA1BBB1BFD010DC0AA1FBB1F30
:100CF000EE1FFF1FA217B307E407F50720F0A21BA2
:100D0000B30BE40BF50B661F771F881F991F1A940E
:100D100069F760957095809590959B01AC01BD0138
:100D2000CF0108955058BB27AA270ED0A8C099D04C
:100D300030F09ED020F031F49F3F11F41EF48EC0AD
:100D40000EF4E095E7FB84C0E92FAAD080F3BA1730
:100D5000620773078407950718F071F49EF5C2C007
:100D60000EF4E0950B2EBA2FA02D0B01B9019001C6
:100D70000C01CA01A0011124FF27591B99F0593F0A
:100D800050F4503E68F11A16F040A22F232F342F52
:100D90004427585FF3CF469537952795A795F040A0
:100DA0005395C9F77EF41F16BA0B620B730B840BB5
:100DB000BAF09150A1F0FF0FBB1F661F771F881F6D
:100DC000C2F70EC0BA0F621F731F841F48F48795C5
:100DD00077956795B795F7959E3F08F0B3CF9395B4
:100DE000880F08F09927EE0F97958795089504D0FE
:100DF0006894B11178C008955BD088F09F5790F047
:100E0000B92F9927B751A0F0D1F0660F771F881F2F
:100E1000991F1AF0BA95C9F712C0B13081F062D0AB
:100E2000B1E008955FC0672F782F8827B85F39F049
:100E3000B93FCCF3869577956795B395D9F73EF48E
:100E400090958095709561957F4F8F4F9F4F089536
:100E500097F99F6780E870E060E008959FEF80EC6D
:100E6000089500240A941616170618060906089510
:100E700000240A9412161306140605060895092E76
:100E80000394000C11F4882352F0BB0F40F4BF2BE5
:100E900011F460FF04C06F5F7F4F8F4F9F4F089525
:100EA00057FD9058440F551F59F05F3F71F047951B
:100EB000880F97FB991F61F09F3F79F08795089500
:100EC000121613061406551FF2CF4695F1DF08C01F
:100ED000161617061806991FF1CF8695710561053C
:100EE00008940895E894BB2766277727CB0197F9E4
:100EF00008950BD0C4CFB5DF28F0BADF18F09523E2
:100F000009F0A6CFABCF1124EECFCADFA0F3959F97
:100F1000D1F3950F50E0551F629FF001729FBB27E0
:100F2000F00DB11D639FAA27F00DB11DAA1F649F8C
:100F30006627B00DA11D661F829F2227B00DA11D3F
:100F4000621F739FB00DA11D621F839FA00D611DC5
:100F5000221F749F3327A00D611D231F849F600DE6
:100F6000211D822F762F6A2F11249F5750408AF01F
:100F7000E1F088234AF0EE0FFF1FBB1F661F771FAB
:100F8000881F91505040A9F79E3F510570F060CFE7
:100F9000AACF5F3FECF3983EDCF386957795679593
:100FA000B795F795E7959F5FC1F7FE2B880F911DC9
:0C0FB0009695879597F90895F894FFCF67
:100FBC000080BB4501910001030D818283840501F2
:100FCC000203040506073F4572726F722064757246
:100FDC00696E6720726563656976696E6720646106
:0E0FEC007461000952656365697665642100D1
:00000001FF
