:100000000C942A000C9447000C9447000C94470071
:100010000C9447000C9447000C9447000C94470044
:100020000C9447000C9447000C9447000C94E10298
:100030000C9447000C9447000C9447000C94470024
:100040000C9447000C9447000C9447000C94470014
:100050000C94470011241FBECFE5D8E0DEBFCDBF12
:1000600010E0A0E6B0E0EEEFF9E002C005900D92DE
:10007000A839B107D9F720E0A8E9B0E001C01D9286
:10008000A63CB207E1F70E94DC030C94FD040C943B
:100090000000813091F487B3886B87BB6C9A603421
:1000A00011F4699A0BC0603111F4689A07C064308A
:1000B00029F08DB183608DB901C0BE9AC49AC398EE
:1000C0006E9A08958FB9779BFECF8FB10895C4982B
:1000D0009AE19A95F1F700C00E9462008AE18A9540
:1000E000F1F700C08FEF0E9462009AE19A95F1F754
:1000F00000C0C49A0895AF92BF92CF92DF92EF9260
:10010000FF920F931F93CF93DF93A82EB62E6A0111
:10011000790181E0A81202C080E2B80E8AE18A95D6
:10012000F1F700C0C4988AE18A95F1F700C08B2DE1
:100130000E9462008AE18A95F1F700C0C0E0D0E039
:10014000CE15DF05CCF4A1100BC080EAB81641F043
:100150008FEF0E946200F801EC0FFD1F808306C044
:10016000F601EC0FFD1F80810E9462008AE18A95F2
:10017000F1F700C02196E4CFC49ADF91CF911F918F
:100180000F91FF90EF90DF90CF90BF90AF900895C8
:10019000DF92EF92FF920F931F93CF93DF9300D0E4
:1001A00000D000D0CDB7DEB7D82E962FE42E2FEF9B
:1001B00030E782E0215030408040E1F700C000008D
:1001C000FF24F394F9820CEB10E021E030E0AE0163
:1001D0004F5F5F4F61E081E09E830E947B00F98268
:1001E00021E030E0AE014F5F5F4F62E081E00E94AE
:1001F0007B0083E0898321E030E0AE014F5F5F4FF9
:1002000063E081E00E947B00F98221E030E0AE01F2
:100210004F5F5F4F65E081E00E947B009E819130DF
:1002200021F0923011F48EE001C086E089830CEB5E
:1002300010E021E030E0AE014F5F5F4F66E081E00B
:100240000E947B0092E199839A839B839C839D8388
:1002500025E030E0AE014F5F5F4F6AE081E00E9431
:100260007B0025E030E0AE014F5F5F4F60E181E051
:100270000E947B008FEF8E0D853010F4E98202C062
:1002800081E089830CEB10E021E030E0AE014F5FAC
:100290005F4F61E181E00E947B0083E2898321E07E
:1002A00030E0AE014F5F5F4F64E081E00E947B0071
:1002B000D11005C01092B5008EE1898307C081E09E
:1002C0008093B5008FE189830CEB10E021E030E0F2
:1002D000AE014F5F5F4F60E081E00E947B008FE1E5
:1002E0009EE40197F1F700C0000026960FB6F8943F
:1002F000DEBF0FBECDBFDF91CF911F910F91FF9059
:10030000EF90DF9008958AE18A95F1F700C0C498D4
:100310008AE18A95F1F700C087E20E9462008AE1D3
:100320008A95F1F700C080E70E9462008AE18A9511
:10033000F1F700C0C49A08950F931F93CF93DF93F2
:1003400000D000D01F92CDB7DEB78FE189830CEBD0
:1003500010E021E030E0AE014F5F5F4F60E081E0F0
:100360000E947B000F900F900F900F900F90DF91E5
:10037000CF911F910F9108950F931F93CF93DF9308
:1003800000D000D01F92CDB7DEB78EE189830CEB91
:1003900010E021E030E0AE014F5F5F4F60E081E0B0
:1003A0000E947B000F900F900F900F900F90DF91A5
:1003B000CF911F910F910895FF920F931F93CF93A9
:1003C000DF93EC01F62E0E9483010CEB10E020E09D
:1003D00030E0AE0161EE80E00E947B002F2D30E026
:1003E000AE0160EA80E00E947B00DF91CF911F9117
:1003F0000F91FF900895C39A8FE891E00197F1F76C
:1004000000C00000C39808950F931F932AE12A9516
:10041000F1F700C0C398262F30E08C014CEB50E080
:1004200061E680E00E947B008AE18A95F1F700C0D6
:1004300082EE0E9462002AE12A95F1F700C00E9434
:1004400083018AE18A95F1F700C01F910F91089509
:1004500010BC83E389B980B58E6A80BD8AB1886992
:100460008AB908955D9BFECF8CB908955F9BFECF3E
:100470008CB108950F931F93CF93DF93C7E0D0E023
:10048000082F10E0C8010C2E02C0959587950A949C
:10049000E2F780FF02C081E301C080E30E943202E4
:1004A000219780F78DE0DF91CF911F910F910C94F0
:1004B00032020F931F93CF93DF93EC018C01FE0167
:1004C00001900020E9F73197EC1BFD0BC8018C1B54
:1004D0009D0B8E179F0730F4F80181918F010E94C8
:1004E0003202EDCF8DE0DF91CF911F910F910C94EF
:1004F0003202CF92DF92EF92FF920F931F93CF932E
:10050000DF93CDB7DEB764970FB6F894DEBF0FBEAA
:10051000CDBF8C01009721F480E30E94320234C0E9
:1005200097FF06C01195019511098DE20E943202D4
:10053000E12C2AE030E0E1E0F0E0EC0FFD1FEE0DF1
:10054000F11DC801B9010E941F0480838B01E3944F
:100550006115710581F700E010E0F12CCC24C39403
:10056000D12CCC0EDD1ECE0CDF1C01501109C701B1
:10057000800F911F019641F0F601E00FF11F80817D
:10058000805D0E943202F1CF8DE064960FB6F89440
:10059000DEBF0FBECDBFDF91CF911F910F91FF90B6
:1005A000EF90DF90CF900C943202FA016083718358
:1005B000828393830895FC0160817181828193819C
:1005C00008951F920F920FB60F9211242F938F93BD
:1005D0009F9380EE82BF8091BB008F5F8093BB00B2
:1005E0008091980090919900019690939900809342
:1005F00098008091980090919900873E934039F43B
:10060000109299001092980081E0809362009F916F
:100610008F912F910F900FBE0F901F90189584E629
:1006200090E090936100809360000C945902CF9306
:1006300080916300833081F038F4813009F4B1C0D7
:10064000823009F471C0B6C0853009F447C0B8F1F2
:10065000863009F477C0AEC0C0916200C13009F0A5
:10066000A9C020E030E040E85FE36091AA0070910B
:10067000AB008091AC009091AD000E944804609363
:10068000AA007093AB008093AC009093AD00C09330
:10069000C1006093C2007093C3008093C400909324
:1006A000C50065E081EC90E00E94DC018091BB0018
:1006B000865F8093AE001092620084E079C09091D2
:1006C000BB008091AE00981375C00E94FB01809121
:1006D000BB00865F8093AE0085E06AC0C89B06C001
:1006E0009091BB008091AE00981364C080E890E0C8
:1006F0000E94590287E00E9467000E943A0287E048
:100700000E9467008E3209F052C08091C10087FFBD
:100710004EC00E9483010E949C018091BB00825EBA
:100720008093AE0082E044C09091BB008091AE0007
:10073000981340C0C39A8091BB00825E8093AE0044
:1007400086E036C0C89B06C09091BB008091AE0089
:10075000981330C0C3988EE890E00E94590287E059
:100760000E9467000E943A0287E00E94670080347E
:1007700059F487E00E9467008E3041F065E086EB17
:1007800090E00E940402F5CF0E940F030E94BC017A
:1007900081E0809363008091BB00865F8093AE0010
:1007A00009C09091BB008091AE00981303C083E014
:1007B00080936300CF91089580E481BB1ABA81E0F1
:1007C0008BBB83B7846083BF89B7816089BF78940E
:1007D0002FEF8DE399E4215080409040E1F700C075
:1007E000000060E081E00E94490045E060E080E0B8
:1007F0000E94C80087E00E9467008E3011F480E4F8
:1008000082BB2FEF81E19AE7215080409040E1F7D1
:1008100000C0000012BA1092B6000E9428020E9486
:100820001703FDCF08958DE890E0909361008093C9
:1008300060000E9459028091B6000C943A0297FB26
:10084000072E16F4009407D077FD09D00E943304D8
:1008500007FC05D03EF4909581959F4F08957095C3
:1008600061957F4F0895AA1BBB1B51E107C0AA1FCA
:10087000BB1FA617B70710F0A61BB70B881F991F41
:100880005A95A9F780959095BC01CD0108955058CF
:10089000BB27AA270ED077C068D030F06DD020F0EB
:1008A00031F49F3F11F41EF45DC00EF4E095E7FBB8
:1008B00053C0E92F79D080F3BA1762077307840712
:1008C000950718F071F49EF591C00EF4E0950B2E8B
:1008D000BA2FA02D0B01B90190010C01CA01A00192
:1008E0001124FF27591B99F0593F50F4503E68F1ED
:1008F0001A16F040A22F232F342F4427585FF3CF2E
:10090000469537952795A795F0405395C9F77EF4FE
:100910001F16BA0B620B730B840BBAF09150A1F047
:10092000FF0FBB1F661F771F881FC2F70EC0BA0FCD
:10093000621F731F841F48F4879577956795B79555
:10094000F7959E3F08F0B3CF9395880F08F099274D
:10095000EE0F97958795089597F99F6780E870E067
:1009600060E008959FEF80EC089500240A94161625
:10097000170618060906089500240A94121613068D
:10098000140605060895092E0394000C11F488231B
:1009900052F0BB0F40F4BF2B11F460FF04C06F5F37
:1009A0007F4F8F4F9F4F089557FD9058440F551F0D
:1009B00059F05F3F71F04795880F97FB991F61F0E1
:1009C0009F3F79F087950895121613061406551F58
:1009D000F2CF4695F1DF08C0161617061806991FC4
:1009E000F1CF86957105610508940895E894BB27B9
:0E09F00066277727CB0197F90895F894FFCF7B
:1009FE007E0001034572726F7220647572696E67B4
:100A0E0020726563656976696E6720646174610042
:100A1E005472616E736D6974746564210009526558
:080A2E0063656976656421002F
:00000001FF
