:100000000C942A000C9447000C9447000C94470071
:100010000C9447000C9447000C9447000C94470044
:100020000C9447000C9447000C9447000C94C203B6
:100030000C9447000C94F2050C9447000C94470074
:100040000C9447000C9447000C9447000C94470014
:100050000C94470011241FBECFE5D8E0DEBFCDBF12
:1000600010E0A0E6B0E0E0E8F2E102C005900D92F9
:10007000AE39B107D9F721E0AEE9B0E001C01D9279
:10008000AD33B207E1F70E949B060C943E090C9435
:100090000000813091F487B3806B87BB6C9A603429
:1000A00011F4699A0BC0603111F4689A07C064308A
:1000B00029F08DB183608DB901C0BE9AC49AC298EF
:1000C0006E9A0895C4989AE19A95F1F700C08FB995
:1000D000779BFECF8FB18AE18A95F1F700C08FEF51
:1000E0008FB9779BFECF8FB19AE19A95F1F700C057
:1000F000C49A08950F931F93813009F4605E7AE1EA
:100100007A95F1F700C0C4989AE19A95F1F700C08A
:100110006FB9779BFECF9FB17AE17A95F1F700C076
:10012000E0E0F0E09FEFE217F307DCF481110BC091
:10013000603A49F09FB9779BFECF7FB1D801AE0FEF
:10014000BF1F7C9308C0DA01AE0FBF1F7C917FB93F
:10015000779BFECF7FB17AE17A95F1F700C03196B7
:10016000E2CFC49A1F910F910895DF92EF92FF9210
:100170000F931F93CF93DF9300D000D000D0CDB763
:10018000DEB7D82E962FE42EBA9ABB98C39AFF24D6
:10019000F394F98203E311E021E030E0AE014F5F18
:1001A0005F4F61E081E09E830E947A00F98221E046
:1001B00030E0AE014F5F5F4F62E081E00E947A0065
:1001C00083E0898321E030E0AE014F5F5F4F63E061
:1001D00081E00E947A00F98221E030E0AE014F5FB9
:1001E0005F4F65E081E00E947A009E81913021F0AE
:1001F000923011F48EE001C086E0898303E311E0C0
:1002000021E030E0AE014F5F5F4F66E081E00E9489
:100210007A0092E199839A839B839C839D8325E056
:1002200030E0AE014F5F5F4F6AE081E00E947A00EC
:1002300025E030E0AE014F5F5F4F60E181E00E945A
:100240007A008FEF8E0D853010F4E98202C081E0D4
:10025000898303E311E021E030E0AE014F5F5F4F9F
:1002600061E181E00E947A0083E2898321E030E04D
:10027000AE014F5F5F4F64E081E00E947A00D110D1
:1002800005C0109227018EE1898307C081E0809329
:1002900027018FE1898303E311E021E030E0AE0123
:1002A0004F5F5F4F60E081E00E947A0026960FB6B4
:1002B000F894DEBF0FBECDBFDF91CF911F910F919C
:1002C000FF90EF90DF9008958AE18A95F1F700C0E2
:1002D000C4988AE18A95F1F700C087E28FB9779BCD
:1002E000FECF8FB18AE18A95F1F700C080E78FB920
:1002F000779BFECF8FB18AE18A95F1F700C0C49A4F
:100300000895FF920F931F93CF93DF93EC01F62E86
:100310000E94640103E311E020E030E0AE0161EEF1
:1003200080E00E947A002F2D30E0AE0160EA80E08C
:100330000E947A00DF91CF911F910F91FF90089555
:10034000C29A8FE891E00197F1F700C00000C298CF
:1003500008950F931F932AE12A95F1F700C0C298E0
:10036000262F30E08C0143E351E061E680E00E94FB
:100370007A008AE18A95F1F700C082EE8FB9779B07
:10038000FECF8FB12AE12A95F1F700C00E946401E7
:100390008AE18A95F1F700C01F910F910895FA0143
:1003A00060837183828393830895FC0160817181EE
:1003B00082819381089510BC83E389B980B58E6AE8
:1003C00080BD8AB188698AB908955D9BFECF8CB9DA
:1003D00008955F9BFECF8CB108950F931F93CF9329
:1003E000DF93C7E0D0E0082F10E0C8010C2E02C058
:1003F000959587950A94E2F780FF02C081E301C0DA
:1004000080E30E94E501219780F78DE0DF91CF9195
:100410001F910F910C94E501EF92FF920F931F93A0
:10042000CF93DF938C01EC01E62EF12CCE01801BE3
:10043000910B8E159F0524F489910E94E501F6CF5A
:100440008DE0DF91CF911F910F91FF90EF900C9471
:10045000E5010F931F93CF93DF93EC018C01FE0115
:1004600001900020E9F73197EC1BFD0BC8018C1BB4
:100470009D0B8E179F0730F4F80181918F010E9428
:10048000E501EDCF8DE0DF91CF911F910F910C949D
:10049000E5017F928F929F92AF92BF92CF92DF92AF
:1004A000EF92FF920F931F93CF93DF93CDB7DEB7F9
:1004B00064970FB6F894DEBF0FBECDBF6B017C0111
:1004C0006115710581059105B1F480E364960FB65D
:1004D000F894DEBF0FBECDBFDF91CF911F910F917A
:1004E000FF90EF90DF90CF90BF90AF909F908F9054
:1004F0007F900C94E50197FF0BC0F094E094D094AA
:10050000C094C11CD11CE11CF11C8DE20E94E501CC
:10051000712C9AE0892E912CA12CB12C01E010E0D5
:100520000C0F1D1F070D111DC701B601A501940178
:100530000E94E606F801608369017A017394C11490
:10054000D104E104F10451F700E010E0E72CF12CB4
:10055000CC24C394D12CCC0EDD1ECE0CDF1C01505C
:100560001109C701800F911F019641F0F601E00FBC
:10057000F11F8081805D0E94E501F1CF64960FB686
:10058000F894DEBF0FBECDBFDF91CF911F910F91C9
:10059000FF90EF90DF90CF90BF90AF909F908F90A3
:1005A0007F9008958F929F92AF92BF92CF92DF92E9
:1005B000EF92FF920F931F93CF93DF93CDB7DEB7E8
:1005C00064970FB6F894DEBF0FBECDBF8A016115E8
:1005D00071058105910531F480E3FA01808381E0A2
:1005E00090E046C097FF0DC09095809570956195FD
:1005F0007F4F8F4F9F4F2DE2FA012083DD24D3944C
:1006000001C0D12CC12C3AE0832E912CA12CB12C0D
:10061000EE24E394F12CEC0EFD1EEC0CF11CA50174
:1006200094010E94E606F7016083B901CA01C394F0
:10063000611571058105910559F77C2D7D0D80E0CF
:1006400090E041E050E04C0F5D1F4C0D511D0197B3
:100650002D2D30E0D71659F0D801A20FB31FFA01A3
:10066000E80FF91F6081605D6C93D394F0CFC901EE
:1006700064960FB6F894DEBF0FBECDBFDF91CF9169
:100680001F910F91FF90EF90DF90CF90BF90AF90B0
:100690009F908F900895CF92DF92EF92FF92CF9329
:1006A000C82F6A017B0180E50E94E5018C2F0E9422
:1006B000E50120E030E048EC52E4C701B6010E94B9
:1006C000DB080E94F8070E9449028DE0CF91FF905D
:1006D000EF90DF90CF900C94E5011F93CF93DF93C1
:1006E00000D0CDB7DEB7182F80E54A8369830E941A
:1006F000E501812F0E94E501698170E080E090E0D2
:100700000E9449028CE20E94E5014A81642F70E058
:1007100080E090E00E9449028DE00F900F90DF9101
:10072000CF911F910C94E501FC018081823879F012
:1007300018F4813831F00895833881F08438A1F0BD
:100740000895418152816381748188E505C04181AA
:1007500052816381748189E50C944B0341815281FC
:100760006381748181E4F8CF4281618185E40C94D6
:100770006D0384B3806C84BB84B3806384BB8C982A
:100780008D9808951F920F920FB60F9211248F9398
:100790009F9380EE82BF809132018F5F8093320100
:1007A00080919E0090919F00019690939F0080936E
:1007B0009E0080919E0090919F00449721F410929A
:1007C0009F0010929E008091A100882351F090918B
:1007D0003201981306C01092A3001092A10010924B
:1007E000A4009F918F910F900FBE0F901F901895AE
:1007F00083E790E090936200809361000C9429025B
:100800000F931F93CF93DF9300D000D01F92CDB7EB
:10081000DEB780916400833079F038F4813009F4D8
:10082000ACC0823009F463C0B1C0853059F1D8F052
:10083000863009F46AC0AAC080916300813081F4D7
:100840008093BB0065E088E391E00E948101809184
:100850003201865F8093BC001092630084E094C0F4
:100860001092BB0093C0909132018091BC0098130C
:100870008DC00E94A00180913201865F8093BC00F0
:1008800085E082C0B39B06C0909132018091BC008C
:1008900098137CC087E00E9462008E32D1F4809170
:1008A000380187FF70C00E9464018FE1898303E3F0
:1008B00011E021E030E0AE014F5F5F4F60E081E08A
:1008C0000E947A0080913201825E8093BC0082E0B7
:1008D0005BC00E94640145E060E080E00E94B500DA
:1008E00080913201865F8093BC0081E04DC0909181
:1008F00032018091BC00981349C0C29A80913201A4
:10090000825E8093BC0086E03FC0B39B06C090919E
:1009100032018091BC00981339C0C29887E00E94D0
:100920006200803481F487E00E94620065E08E30CE
:1009300029F088E291E00E94A901F5CF88E291E0D8
:100940000E94940302C00E94F8030E9464018EE199
:10095000898303E311E021E030E0AE014F5F5F4F98
:1009600060E081E00E947A0081E0809364008091E1
:100970003201875E8093BC0009C090913201809162
:10098000BC00981303C083E0809364000F900F9025
:100990000F900F900F90DF91CF911F910F910895BD
:1009A0000C9494037F928F929F92AF92BF92CF92BA
:1009B000DF92EF92FF920F931F93CF93DF93FC018F
:1009C0002181C62FD0E000E010E0EE24E394F12C6A
:1009D000812C912C54016C01CC0EDD1E5AE0752E39
:1009E0002D3299F501501109CE01800F911F029708
:1009F00014F1F601E00FF11F808190E0C0978E9D09
:100A0000B0018F9D700D9E9D700D1124882777FD7C
:100A10008095982F0E942B089B01AC01C501B40161
:100A20000E9428074B015C01C701789E7001799EE6
:100A3000F00C1124D7CF20E030E048EC52E4C5019F
:100A4000B4010E949007905832C001501109CE01A4
:100A5000800F911F1816190614F5F601E00FF11F0B
:100A6000808190E0C0978E9DB0018F9D700D9E9DFE
:100A7000700D1124882777FD8095982F0E942B08F0
:100A80009B01AC01C501B4010E9428074B015C0128
:100A9000F7017E9E70017F9EF00C1124D6CF20E0DE
:100AA00030E048EC52E4C501B4010E949007DF91A8
:100AB000CF911F910F91FF90EF90DF90CF90BF905B
:100AC000AF909F908F907F900895CF92DF92EF929A
:100AD000FF92FC012081203509F457C038F42534F9
:100AE000C1F12C3409F057C085E050C0283539F0E9
:100AF000293509F1233509F04EC08FE347C00E9424
:100B0000D2046B017C0120E030E040E252E40E941C
:100B10008C07811104C082B390E4892782BB81E0F5
:100B200080932D01C0922E01D0922F01E0923001CE
:100B3000F09231012EC00E94D20422E020932D01B8
:100B400060932E0170932F018093300190933101B7
:100B50001FC022B330E4232722BB23E020932D01C2
:100B6000FC01328130932E01248120932F01418199
:100B7000442319F0306830932E01FC0183818823CF
:100B800039F0206820932F0103C084E080932D0169
:100B900081E08093A200FF90EF90DF90CF900895C6
:100BA0009091A4009923C1F08D3059F46091A30075
:100BB0008EEB90E00E9465051092A3001092A400B5
:100BC00008959091A300E92FF0E0E254FF4F808355
:100BD0009F5F9093A3000895803519F481E080937E
:100BE000A40008951F920F920FB60F9211242F9315
:100BF0003F934F935F936F937F938F939F93AF93A5
:100C0000BF93EF93FF930E94E9010E94D005FF91EB
:100C1000EF91BF91AF919F918F917F916F915F9174
:100C20004F913F912F910F900FBE0F901F901895ED
:100C30008091A000823889F038F48138C1F482E8CC
:100C40008093A00081E80895833861F0843879F4B6
:100C500081E88093A00084E8089583E88093A00051
:100C600082E8089584E88093A00083E8089581E8ED
:100C70008093A0000895CF938091BB00811159C04B
:100C80008091A200813029F580916000813031F09F
:100C9000EDE2F1E0A8E3B1E081E01EC0C091BA004E
:100CA000C13049F40E941806809338011092BA00AE
:100CB000C09363003EC0EDE2F1E0A8E3B1E081E063
:100CC00091919D938093630091E0E233F907C1F71E
:100CD0000BC0882379F0DCCF91919D9380936300C2
:100CE00091E0E233F907C1F71092A20081E080930E
:100CF000BA001FC080916000882351F00E9418063E
:100D0000809338011092BA0081E08093630011C093
:100D1000909132018091B90098130BC087E08093C5
:100D2000380181E080936300809132018853809381
:100D3000B900CF91089580E481BB2FEF83ED90E35C
:100D4000215080409040E1F700C0000083B78460EC
:100D500083BF89B7816089BF78942FEF8DE399E4D1
:100D6000215080409040E1F700C0000060E081E049
:100D70000E94490045E060E080E00E94B50087E005
:100D80000E9462008E3011F480E482BB2FEF8DE36D
:100D900099E4215080409040E1F700C0000012BA71
:100DA000109228010E94DB018FE890E0909362008E
:100DB000809361000E94290287E00E9462000E94E5
:100DC000ED010E943B060E940004FBCF052E97FB1D
:100DD0001EF400940E94FD0657FD07D00E940507EF
:100DE00007FC03D04EF40C94FD06509540953095C9
:100DF00021953F4F4F4F5F4F089590958095709587
:100E000061957F4F8F4F9F4F0895A1E21A2EAA1B25
:100E1000BB1BFD010DC0AA1FBB1FEE1FFF1FA217AA
:100E2000B307E407F50720F0A21BB30BE40BF50BA7
:100E3000661F771F881F991F1A9469F76095709530
:100E4000809590959B01AC01BD01CF01089550584C
:100E5000BB27AA270ED075C166D130F06BD120F028
:100E600031F49F3F11F41EF45BC10EF4E095E7FBF3
:100E700051C1E92F77D180F3BA176207730784074E
:100E8000950718F071F49EF58FC10EF4E0950B2EC6
:100E9000BA2FA02D0B01B90190010C01CA01A001CC
:100EA0001124FF27591B99F0593F50F4503E68F127
:100EB0001A16F040A22F232F342F4427585FF3CF68
:100EC000469537952795A795F0405395C9F77EF439
:100ED0001F16BA0B620B730B840BBAF09150A1F082
:100EE000FF0FBB1F661F771F881FC2F70EC0BA0F08
:100EF000621F731F841F48F4879577956795B79590
:100F0000F7959E3F08F0B3CF9395880F08F0992787
:100F1000EE0F979587950895D9D008F481E008954C
:100F20000CD00FC107D140F0FED030F021F45F3F6C
:100F300019F0F0C0511139C1F3C014D198F39923BD
:100F4000C9F35523B1F3951B550BBB27AA2762178D
:100F50007307840738F09F5F5F4F220F331F441FD2
:100F6000AA1FA9F333D00E2E3AF0E0E830D091500A
:100F70005040E695001CCAF729D0FE2F27D0660FF7
:100F8000771F881FBB1F261737074807AB07B0E836
:100F900009F0BB0B802DBF01FF2793585F4F2AF04C
:100FA0009E3F510568F0B6C000C15F3FECF3983E2C
:100FB000DCF3869577956795B795F7959F5FC9F7A9
:100FC000880F911D9695879597F90895E1E0660F32
:100FD000771F881FBB1F621773078407BA0720F0AB
:100FE000621B730B840BBA0BEE1F88F7E095089514
:100FF00004D06894B111D9C00895BCD088F09F572F
:1010000090F0B92F9927B751A0F0D1F0660F771F54
:10101000881F991F1AF0BA95C9F712C0B13081F034
:10102000C3D0B1E00895C0C0672F782F8827B85F7C
:1010300039F0B93FCCF3869577956795B395D9F795
:101040003EF490958095709561957F4F8F4F9F4F9F
:101050000895E89409C097FB3EF4909580957095AB
:1010600061957F4F8F4F9F4F9923A9F0F92F96E9F4
:10107000BB279395F695879577956795B795F11169
:10108000F8CFFAF4BB0F11F460FF1BC06F5F7F4F06
:101090008F4F9F4F16C0882311F096E911C0772318
:1010A00021F09EE8872F762F05C0662371F096E821
:1010B000862F70E060E02AF09A95660F771F881FF0
:1010C000DAF7880F9695879597F90895990F000894
:1010D000550FAA0BE0E8FEEF16161706E807F9070A
:1010E000C0F012161306E407F50798F0621B730BA5
:1010F000840B950B39F40A2661F0232B242B252B26
:1011000021F408950A2609F4A140A6958FEF811DC8
:10111000811D089597F99F6780E870E060E0089569
:101120009FEF80EC089500240A94161617061806FF
:101130000906089500240A941216130614060506DB
:101140000895092E0394000C11F4882352F0BB0F6C
:1011500040F4BF2B11F460FF04C06F5F7F4F8F4FCF
:101160009F4F089557FD9058440F551F59F05F3F0A
:1011700071F04795880F97FB991F61F09F3F79F0B9
:1011800087950895121613061406551FF2CF46953B
:10119000F1DF08C0161617061806991FF1CF8695BD
:1011A0007105610508940895E894BB2766277727A1
:1011B000CB0197F908950BD0C4CFB5DF28F0BADF83
:1011C00018F0952309F0A6CFABCF1124EECFCADFDC
:1011D000A0F3959FD1F3950F50E0551F629FF0014A
:1011E000729FBB27F00DB11D639FAA27F00DB11DA3
:1011F000AA1F649F6627B00DA11D661F829F22272C
:10120000B00DA11D621F739FB00DA11D621F839FB2
:10121000A00D611D221F749F3327A00D611D231F88
:10122000849F600D211D822F762F6A2F11249F57D6
:1012300050408AF0E1F088234AF0EE0FFF1FBB1FF9
:10124000661F771F881F91505040A9F79E3F510598
:1012500070F060CFAACF5F3FECF3983EDCF3869549
:1012600077956795B795F795E7959F5FC1F7FE2B43
:10127000880F911D9695879597F90895F894FFCF5B
:10128000018D0001030D81828384050102030405A1
:1012900006073F4572726F7220647572696E67202F
:1012A000726563656976696E67206461746100497F
:0E12B0006E697469616C697A6174696F6E00B1
:00000001FF
