:100000000C942A000C9447000C9447000C94470071
:100010000C9447000C9447000C9447000C94470044
:100020000C9447000C9447000C9447000C94EC028D
:100030000C9447000C9447000C9447000C94470024
:100040000C9447000C9447000C9447000C94470014
:100050000C94470011241FBECFE5D8E0DEBFCDBF12
:1000600010E0A0E6B0E0ECE9F8E002C005900D92E7
:10007000A839B107D9F720E0A8E9B0E001C01D9286
:10008000A23BB207E1F70E94CC030C944C040C9401
:100090000000813091F487B3886B87BB6C9A603421
:1000A00011F4699A0BC0603111F4689A07C064308A
:1000B00029F08DB183608DB901C0BE9AC49AC398EE
:1000C0006E9A08958FB9779BFECF8FB10895C4982B
:1000D0009AE19A95F1F700C00E9462008AE18A9540
:1000E000F1F700C08FEF0E9462009AE19A95F1F754
:1000F00000C0C49A0895AF92BF92CF92DF92EF9260
:10010000FF920F931F93CF93DF93A82EB62E6A0111
:10011000790181E0A81202C080E2B80E8AE18A95D6
:10012000F1F700C0C4988AE18A95F1F700C08B2DE1
:100130000E9462008AE18A95F1F700C0C0E0D0E039
:10014000CE15DF05CCF4A1100BC080EAB81641F043
:100150008FEF0E946200F801EC0FFD1F808306C044
:10016000F601EC0FFD1F80810E9462008AE18A95F2
:10017000F1F700C02196E4CFC49ADF91CF911F918F
:100180000F91FF90EF90DF90CF90BF90AF900895C8
:10019000DF92EF92FF920F931F93CF93DF9300D0E4
:1001A00000D000D0CDB7DEB7D82E962FE42E2FEF9B
:1001B00030E782E0215030408040E1F700C000008D
:1001C000FF24F394F98208EA10E021E030E0AE0168
:1001D0004F5F5F4F61E081E09E830E947B00F98268
:1001E00021E030E0AE014F5F5F4F62E081E00E94AE
:1001F0007B0083E0898321E030E0AE014F5F5F4FF9
:1002000063E081E00E947B00F98221E030E0AE01F2
:100210004F5F5F4F65E081E00E947B009E819130DF
:1002200021F0923011F48EE001C086E0898308EA63
:1002300010E021E030E0AE014F5F5F4F66E081E00B
:100240000E947B0092E199839A839B839C839D8388
:1002500025E030E0AE014F5F5F4F6AE081E00E9431
:100260007B0025E030E0AE014F5F5F4F60E181E051
:100270000E947B008FEF8E0D853010F4E98202C062
:1002800081E0898308EA10E021E030E0AE014F5FB1
:100290005F4F61E181E00E947B0083E2898321E07E
:1002A00030E0AE014F5F5F4F64E081E00E947B0071
:1002B000D11005C01092A1008EE1898307C081E0B2
:1002C0008093A1008FE1898308EA10E021E030E00B
:1002D000AE014F5F5F4F60E081E00E947B008FE1E5
:1002E0009EE40197F1F700C0000026960FB6F8943F
:1002F000DEBF0FBECDBFDF91CF911F910F91FF9059
:10030000EF90DF9008958AE18A95F1F700C0C498D4
:100310008AE18A95F1F700C087E20E9462008AE1D3
:100320008A95F1F700C080E70E9462008AE18A9511
:10033000F1F700C0C49A08950F931F93CF93DF93F2
:1003400000D000D01F92CDB7DEB78FE1898308EAD5
:1003500010E021E030E0AE014F5F5F4F60E081E0F0
:100360000E947B000F900F900F900F900F90DF91E5
:10037000CF911F910F9108950F931F93CF93DF9308
:1003800000D000D01F92CDB7DEB78EE1898308EA96
:1003900010E021E030E0AE014F5F5F4F60E081E0B0
:1003A0000E947B000F900F900F900F900F90DF91A5
:1003B000CF911F910F910895FF920F931F93CF93A9
:1003C000DF93EC01F62E0E94830108EA10E020E0A2
:1003D00030E0AE0161EE80E00E947B002F2D30E026
:1003E000AE0160EA80E00E947B00DF91CF911F9117
:1003F0000F91FF900895C39A8FE891E00197F1F76C
:1004000000C00000C39808950F931F9325E32A9519
:10041000F1F70000C398262F30E08C0148EA50E045
:1004200061E680E00E947B0085E38A95F1F7000099
:1004300082EE0E94620025E32A95F1F700000E94F7
:10044000830185E38A95F1F700001F910F910895CC
:1004500010BC83E389B980B58E6A80BD8AB1886992
:100460008AB908955D9BFECF8CB908955F9BFECF3E
:100470008CB108950F931F93CF93DF93C7E0D0E023
:10048000082F10E0C8010C2E02C0959587950A949C
:10049000E2F780FF02C081E301C080E30E943202E4
:1004A000219780F78DE0DF91CF911F910F910C94F0
:1004B00032020F931F93CF93DF93EC018C01FE0167
:1004C00001900020E9F73197EC1BFD0BC8018C1B54
:1004D0009D0B8E179F0730F4F80181918F010E94C8
:1004E0003202EDCF8DE0DF91CF911F910F910C94EF
:1004F00032024F925F926F927F928F929F92AF9251
:10050000BF92CF92DF92EF92FF921F93CF93DF9330
:1005100000D01F92CDB7DEB76B017C01611571056C
:100520008105910529F06AE070E080E090E004C068
:1005300080E30E9432023BC06C157D058E059F054D
:1005400038F4AAE0B0E09B01AC010E943204F4CF81
:100550002AE030E040E050E00E94100449015A01D6
:100560008AE0482E512C612C712CC701B601A501DF
:1005700094010E941004182F80E3820F69837A830C
:100580009B830E9432026981C62E7A81D72EE12E8A
:100590009B81F92EC501B401A30192010E941004B0
:1005A00049015A01C114D104E104F104F1F68DE0CE
:1005B0000F900F900F90DF91CF911F91FF90EF90D0
:1005C000DF90CF90BF90AF909F908F907F906F9073
:1005D0005F904F900C9432021F920F920FB60F92C1
:1005E00011242F938F939F9380EE82BF8091A70059
:1005F0008F5F8093A7008091980090919900019659
:100600009093990080939800809198009091990020
:10061000873E934039F4109299001092980081E03F
:10062000809362009F918F912F910F900FBE0F903A
:100630001F90189584E690E090936100809360008D
:100640000C94590280916300833079F038F4813042
:1006500009F498C0823009F458C00895853079F1C2
:10066000F8F0863009F45FC008958091620081300F
:1006700009F091C08091A2008F5F813809F488E76A
:100680008093A20061E082EA90E00E94DC01809108
:10069000A700865F80939A001092620084E079C080
:1006A0009091A70080919A00981375C00E94FB0159
:1006B0008091A700865F80939A0085E06AC0C89BFE
:1006C00006C09091A70080919A00981364C080E8BA
:1006D00090E00E94590287E00E9467000E943A025F
:1006E00087E00E9467008E3209F052C08091A2001C
:1006F00087FF4EC00E9483010E949C018091A70049
:10070000825E80939A0082E044C09091A70080911D
:100710009A00981340C0C39A8091A700825E80938C
:100720009A0086E036C0C89B06C09091A7008091D1
:100730009A00981330C0C3988EE890E00E94590246
:1007400087E00E9467000E943A0287E00E946700EB
:10075000803459F487E00E9467008E3041F061E0F8
:100760008DEA90E00E940402F5CF0E941A030E94D5
:10077000BC0181E0809363008091A700865F809335
:100780009A0008959091A70080919A00981303C051
:1007900083E080936300089580E481BB1ABA81E00E
:1007A0008BBB83B7846083BF89B7816089BF78942E
:1007B0002FEF8DE399E4215080409040E1F700C095
:1007C000000060E081E00E94490040E060E080E0DD
:1007D0000E94C80087E00E9467008E3011F480E418
:1007E00082BB2FEF81E19AE7215080409040E1F7F2
:1007F00000C0000012BA88E78093A2000E9428027D
:100800000E942203FDCF08958DE890E0909361004F
:10081000809360000E9459028091AD000C943A02CE
:10082000A1E21A2EAA1BBB1BFD010DC0AA1FBB1FF4
:10083000EE1FFF1FA217B307E407F50720F0A21B66
:10084000B30BE40BF50B661F771F881F991F1A94D3
:1008500069F760957095809590959B01AC01BD01FD
:10086000CF0108950E943D04A59F900DB49F900D67
:10087000A49F800D911D11240895A29FB001B39FE4
:10088000C001A39F700D811D1124911DB29F700D99
:0C089000811D1124911D0895F894FFCFE4
:10089C007E0001034572726F7220647572696E6717
:1008AC0020726563656976696E67206461746100A6
:1008BC005472616E736D69747465642100095265BC
:0808CC00636569766564210093
:00000001FF
