:100000000C9440000C9417040C9436040C945D007E
:100010000C945D000C945D000C945D000C945D00EC
:100020000C945D000C945D000C945D000C945504E0
:100030000C945D000C945D000C945D000C945D00CC
:100040000C945D000C945D000C945D000C945D00BC
:100050000C945D0054078107BC0788079307A0072D
:10006000C40705A84CCDB2D44EB93836A9020C50FD
:10007000B9918688083CA6AAAA2ABE000000803F43
:1000800011241FBECFE5D8E0DEBFCDBF10E0A0E653
:10009000B0E0E6EAFAE102C005900D92A037B107A0
:1000A000D9F721E0A0E7B0E001C01D92A732B20766
:1000B000E1F70E94E8070C94510D0C940000CF92D8
:1000C000DF92FF920F931F93CF93DF9300D0CDB7B2
:1000D000DEB76C01F62E64E080E42A8349830E9437
:1000E0005902F601F082498141832A8122831382D9
:1000F0008FEF9FEF95838483168217821086118677
:1001000013870287C6010F900F90DF91CF911F9147
:100110000F91FF90DF90CF9008951F93CF93DF93BF
:10012000EC01898581114FC01B81113059F028F0F5
:100130001230E9F0133091F148C088810E946502C5
:1001400081E02AC00E946E029D838C838F3F2FEF37
:100150009207D9F12A853B852817390710F41E83A9
:1001600001C01E8289810E94650282E015C00E9442
:100170006E029D838C838F3F2FEF920731F12A858A
:100180003B852817390718F481E0888701C0188655
:100190008A810E94650283E08B8317C00E946E02F1
:1001A0009D838C838F3F2FEF920751F02A853B85EB
:1001B0002817390718F481E08F8301C01F821B8242
:1001C00081E0898703C081E001C080E0DF91CF91A9
:1001D0001F910895FC01118608958F929F92AF920E
:1001E000BF92CF92DF92EF92FF920F931F93CF9324
:1001F000DF93CDB7DEB7FC01408351836283738305
:100200000483158326833783C086D186E286F386EE
:1002100084869586A686B7868F859889918B808BF4
:1002200089899A89938B828BCF01DF91CF911F911E
:100230000F91FF90EF90DF90CF90BF90AF909F9085
:100240008F9008952F923F924F925F926F927F927C
:100250008F929F92AF92BF92CF92DF92EF92FF92D6
:100260000F931F93CF93DF9300D000D01F92CDB791
:10027000DEB78D83262E122F3E2C8A8C9B8CAC8C65
:10028000BD8CCE8CDF8CE8A0F9A08AA19BA1ACA18B
:10029000BDA189839A83AB83BC83421731F1642F5C
:1002A00070E080E090E00E947C0BA50194010E9428
:1002B000690C9B01AC0160E070E0CB010E94750A03
:1002C0002B013C01612F70E080E090E00E947C0BEC
:1002D000A50194010E94690C9B01AC01C301B2010C
:1002E0000E94760A2B013C0103C0412C512C3201A3
:1002F000602F70E080E090E00E947C0BA7019601E7
:100300000E94690C4B015C01632D70E080E090E07D
:100310000E947C0B29813A814B815C810E94690C8F
:100320009B01AC01C501B4010E94760A4B015C013E
:10033000622D70E080E090E00E947C0BA7019601A6
:100340000E94690C6B017C01AD816A2F70E080E036
:1003500090E00E947C0B29813A814B815C810E9454
:10036000690C9B01AC01C701B6010E94760A9B0192
:10037000AC01C501B4010E94750AA30192010E945B
:10038000760A0F900F900F900F900F90DF91CF9102
:100390001F910F91FF90EF90DF90CF90BF90AF90A3
:1003A0009F908F907F906F905F904F903F902F9095
:1003B00008952F923F924F925F926F927F928F9209
:1003C0009F92AF92BF92CF92DF92EF92FF920F93E4
:1003D0001F93CF93DF93CDB7DEB72B013C0189A0EC
:1003E0009AA0ABA0BCA00FA118A56DA17EA18827E3
:1003F00077FD8095982F0E947C0B6B017C01A301F7
:100400009201C501B4010E94690C9B01AC01C701B6
:10041000B6010E94760A0E94490B1B019B0177FFDF
:1004200004C022273327261B370B021713074CF46F
:10043000121413042CF022243324201A310A01C090
:100440001801A30192015058C501B4010E94690C22
:100450009B01AC01C701B6010E94760A0E94490BBC
:100460009B01AB0177FF04C044275527461B570B60
:10047000041715074CF4121613062CF02227332705
:10048000201B310B01C09801B101C901DF91CF914F
:100490001F910F91FF90EF90DF90CF90BF90AF90A2
:1004A0009F908F907F906F905F904F903F902F9094
:1004B00008951ABA1BBA379A96B1692B66B997B1E3
:1004C000982B97B910927000089597B1907E982B51
:1004D00097B9369A81E080937000089580917000FA
:1004E000813039F4369905C01092700084B195B10D
:1004F00008958FEF9FEF0895813091F487B3806B5B
:1005000087BB6C9A603411F4699A0BC0603111F4A6
:10051000689A07C0643029F08DB183608DB901C03D
:10052000BE9AC49AC2986E9A0895C49895E39A9513
:10053000F1F700008FB9779BFECF8FB185E38A95E5
:10054000F1F700008FEF8FB9779BFECF8FB195E366
:100550009A95F1F70000C49A08950F931F93813084
:1005600009F4605E75E37A95F1F70000C49895E3AD
:100570009A95F1F700006FB9779BFECF9FB175E3B5
:100580007A95F1F70000E0E0F0E09FEFE217F30763
:10059000DCF481110BC0603A49F09FB9779BFECF24
:1005A0007FB1D801AE0FBF1F7C9308C0DA01AE0F38
:1005B000BF1F7C917FB9779BFECF7FB175E37A95A2
:1005C000F1F700003196E2CFC49A1F910F91089580
:1005D000DF92EF92FF920F931F93CF93DF9300D0A0
:1005E00000D000D0CDB7DEB7E82E962FD42EBA9A21
:1005F000C298BB98C39AFF24F394F98204EF10E0E9
:1006000021E030E0AE014F5F5F4F61E081E09E830B
:100610000E94AD02F98221E030E0AE014F5F5F4FF2
:1006200062E081E00E94AD0283E0898321E030E056
:10063000AE014F5F5F4F63E081E00E94AD02F9823F
:1006400021E030E0AE014F5F5F4F65E081E00E9446
:10065000AD029E81913021F0923011F48EE001C004
:1006600086E0898304EF10E021E030E0AE014F5FC7
:100670005F4F66E081E00E94AD0292E199839A8328
:100680009B839C839D8325E030E0AE014F5F5F4FED
:100690006AE081E00E94AD0225E030E0AE014F5FEC
:1006A0005F4F60E181E00E94AD02D98221E030E03D
:1006B000AE014F5F5F4F61E181E00E94AD0283E2D6
:1006C000898321E030E0AE014F5F5F4F64E081E05D
:1006D0000E94AD02E11003C08EE1898304C08FE166
:1006E000898304EF10E021E030E0AE014F5F5F4FFF
:1006F00060E081E00E94AD0226960FB6F894DEBF5E
:100700000FBECDBFDF91CF911F910F91FF90EF9062
:10071000DF90089585E38A95F1F70000C49885E39A
:100720008A95F1F7000087E28FB9779BFECF8FB1F2
:1007300085E38A95F1F7000080E78FB9779BFECFBC
:100740008FB185E38A95F1F70000C49A0895FF926E
:100750000F931F93CF93DF93EC01F62E0E948A0331
:1007600004EF10E020E030E0AE0161EE80E00E9496
:10077000AD022F2D30E0AE0160EA80E00E94AD02B4
:10078000DF91CF911F910F91FF900895C29A8FE151
:1007900093E00197F1F700C00000C29808950F930D
:1007A0001F9325E32A95F1F70000C298262F30E029
:1007B0008C0144EF50E061E680E00E94AD0285E3E9
:1007C0008A95F1F7000082EE8FB9779BFECF8FB14B
:1007D00025E32A95F1F700000E948A0385E38A95B4
:1007E000F1F700001F910F910895FA016083718362
:1007F000828393830895FC0160817181828193815A
:100800000895A09AA19AA29AA39A8C988D98949AE6
:10081000959A089582B38C6082BB85B7836085BF4B
:1008200085B78C6085BF8BB7806C8BBF08951F9296
:100830000F920FB60F9211248F939F93849B06C043
:100840008091770090917800019705C080917700A2
:1008500090917800019690937800809377009F9113
:100860008F910F900FBE0F901F9018951F920F92AF
:100870000FB60F9211248F939F93859B06C0809192
:10088000750090917600019705C080917500909158
:100890007600019690937600809375009F918F91DA
:1008A0000F900FBE0F901F9018951F920F920FB6CA
:1008B0000F9211248F939F9381EC82BF8091F2005D
:1008C0008F5F8093F20091E09093F1008091D000CF
:1008D0008F5F8093D0008091D000833338F0909365
:1008E000D0008091F3008F5F8093F3009F918F91F0
:1008F0000F900FBE0F901F9018958091F1008823E4
:1009000009F47DC01092F1008091D0006AE00E944D
:10091000630A911138C080919F009091A00040918E
:10092000A3005091A400841795072CF4019690938E
:10093000A00080939F0080919D0090919E00209147
:10094000A1003091A200821793072CF40196909396
:100950009E0080939D0080919F009091A000481779
:1009600059072CF401979093A00080939F008091E9
:100970009D0090919E00281739072CF401979093C1
:100980009E0080939D004091D00080919D009091A9
:100990009E0050E09C0197FF04C022273327281BAC
:1009A000390B241735075CF0181619061CF4A998A2
:1009B000A89A07C0892B29F0A898A99A02C0A898DC
:1009C000A9984091D00080919F009091A00050E0A4
:1009D0009C0197FF04C022273327281B390B2417BB
:1009E00035075CF0181619061CF4AB98AA9A0895FE
:1009F000892B29F0AA98AB9A0895AA98AB980895E4
:100A00008091F3008230B8F01092F3008091A6003C
:100A1000882329F01092A6001092A50005C08091AD
:100A2000A5008F5F8093A5008091A500843018F009
:100A300086E08093A80008959091F2008091A7002D
:100A40009817C9F02091F2008091A70030E090E063
:100A500001962817390779F04091F2002091A700FC
:100A600050E030E02E5F3F4F81E090E042175307A7
:100A700021F080E0089581E090E008959091F200E7
:100A8000980F9093A70008950F931F93CF93FC01A5
:100A9000C081CA3009F4A8C108F04DC0C63009F4BD
:100AA000E6C1F0F4C23009F4F2C0C33009F4FCC06E
:100AB000C13009F0DFC181819281A381B48180932B
:100AC000890090938A00A0938B00B0938C00809350
:100AD000950090939600A0939700B0939800CAC198
:100AE000018112812381348145815681678170851E
:100AF000C83009F406C181859285A385B485C930C3
:100B000008F026C10093950010939600209397005B
:100B1000309398004093910050939200609393001B
:100B20007093940080938D0090938E00A0938F001B
:100B3000B09390009FC1C63809F423C1A8F4C0380F
:100B4000F9F0C53809F47FC0CF3709F093C110928E
:100B5000A4001092A3001092A2001092A100109283
:100B60009C0010926E0086C1C83809F47AC108F45E
:100B700052C1C93809F07EC181E080939C0074C1E4
:100B8000C09318018091950090919600A0919700D4
:100B9000B09198008093190190931A01A0931B01C2
:100BA000B0931C018091910090919200A0919300CC
:100BB000B091940080931D0190931E01A0931F019A
:100BC000B093200180918D0090918E00A0918F00B4
:100BD000B09190008093210190932201A093230172
:100BE000B093240180919F009091A00097FF03C0D3
:100BF000919581959109BC01660F771F882777FD34
:100C00008095982F0E947C0B0E94CC0C0E944E0B6A
:100C10006093250180919D0090919E0097FF03C0F5
:100C2000919581959109BC01660F771F882777FD03
:100C30008095982F0E947C0B0E94CC0C0E944E0B3A
:100C40006093260122C0C0931801809162009091A8
:100C50006300A0916400B0916500809319019093A6
:100C60001A01A0931B01B0931C0180916600909122
:100C70006700A0916800B091690080931D01909376
:100C80001E01A0931F01B093200181E0F4C0818177
:100C90009281A381B4818093850090938600A09374
:100CA0008700B0938800E6C0428121812F7730E031
:100CB000359527953093A4002093A300842F8F7738
:100CC00090E0959587959093A2008093A1002115BF
:100CD000310551F0518157FD07C0319521953109FA
:100CE0003093A4002093A300009709F4C3C047FDEC
:100CF000C1C09195819591099093A2008093A10024
:100D0000B9C0009362001093630020936400309395
:100D1000650040936600509367006093680070938D
:100D2000690060916200709163008091640090910D
:100D300065002BED3FE049E450E40E94690C6093AC
:100D4000810070938200809383009093840092C00E
:100D50000093DD001093DE002093DF003093E0006D
:100D60004093E1005093E2006093E3007093E4004D
:100D70008093E5009093E600A093E700B093E8002D
:100D800079C0C09318018091DD009091DE00A091A0
:100D9000DF00B091E0008093190190931A01A093B5
:100DA0001B01B0931C018091E1009091E200A091A1
:100DB000E300B091E40080931D0190931E01A09385
:100DC0001F01B09320018091E5009091E600A09171
:100DD000E700B091E8008093210190932201A09355
:100DE0002301B093240151CF4181528163817481E9
:100DF0004093E9005093EA006093EB007093EC009D
:100E000065817681878190850E94490B7093EE0001
:100E10006093ED002FC087E8809318018091E9006E
:100E20009091EA00A091EB00B091EC008093190141
:100E300090931A01A0931B01B0931C016091ED00E7
:100E40007091EE00882777FD8095982F0E947C0B8B
:100E500060931D0170931E0180931F0190932001E8
:100E600014CF81E080936E00C093180104C082818A
:100E700080939B0080E0CF911F910F9108950F9375
:100E80001F93CF93DF9300D000D01F92CDB7DEB772
:100E90008091A80090E08730910508F08FC0FC0198
:100EA000E65DFF4F0C946F0AB39988C081E0809390
:100EB000A600C29887E00E9495028E3031F06FE064
:100EC00081EC90E00E94CF03F5CF81EC90E00E948E
:100ED0004405882309F456C08EE1898304EF10E0AD
:100EE00021E030E0AE014F5F5F4F60E081E00E94A3
:100EF000AD0281E08093A8008CE190E00E943E0565
:100F00005DC00E941C05892B09F458C083E054C0C1
:100F10006FE088E191E00E94A7038AE090E00E94E0
:100F20003E0584E049C00E941C05892B09F446C097
:100F30000E94C6038AE090E00E943E0585E03CC026
:100F4000B39905C0B39908C00E948A0305C00E94E6
:100F50001C05892BB9F732C08FE1898304EF10E0BB
:100F600021E030E0AE014F5F5F4F60E081E00E9422
:100F7000AD028AE090E01DC00E941C05892BF1F0B3
:100F80001092A800C29A1AC01092A2001092A1005A
:100F90001092A4001092A30010929C0010926E0078
:100FA0000E948A034FE061E081E00E94E80284E150
:100FB00090E00E943E0582E08093A8000F900F9081
:100FC0000F900F900F90DF91CF911F910F91089587
:100FD000CF93DF93CDB7DEB7A0970FB6F894DEBFFF
:100FE0000FBECDBF2FEF89E698E1215080409040A1
:100FF000E1F700C000008BED9FE0A9ECBFE3809318
:101000008D0090938E00A0938F00B093900060911C
:1010100062007091630080916400909165002BEDF7
:101020003FE049E450E40E94690C609381007093B2
:1010300082008093830090938400B89A60E081E0FE
:101040000E947C022FEF81EE94E02150804090407E
:10105000E1F700C000004FE061E081E00E94E8029B
:101060000E94010483B7846083BF89B7816089BF10
:101070000E940A042FEF81EE94E0215080409040BE
:10108000E1F700C000000CEB12E020E041E062E07C
:10109000CE0101960E945F008CE0FE013196A9EA24
:1010A000B0E001900D928A95E1F723E044E065E01D
:1010B000CE0101960E945F008CE0FE013196A1ED09
:1010C000B0E001900D928A95E1F72FEF81EE94E068
:1010D000215080409040E1F700C000001F9282E361
:1010E0008F931F9288E28F93812C912CA0E2AA2EDD
:1010F000A1E4BA2EC12CD12CB0E8EB2EB0E4FB2E2B
:1011000000E010E020E030E440E050E060E87FE301
:10111000CE010D960E94ED0084E1FE013D96ADEDFD
:10112000B0E001900D928A95E1F72FEF83EC99E002
:10113000215080409040E1F700C00000C29A7894AE
:101140000F900F900F900F9013E0212E312C0E94E2
:101150003F070E947D04F894809177009091780079
:101160009093740080937300809175009091760045
:101170009093720080937100109278001092770023
:101180001092760010927500789480908100909073
:101190008200A0908300B0908400609171007091F3
:1011A0007200C0906A00D0906B00E0906C00F090EC
:1011B0006D00882777FD8095982F0E947C0B9B01FE
:1011C000AC01C501B4010E94690CA70196010E94FF
:1011D000E10A6093B5007093B6008093B7009093D6
:1011E000B8008090810090908200A0908300B09021
:1011F00084006091730070917400882777FD80955A
:10120000982F0E947C0B9B01AC01C501B4010E9488
:10121000690CA70196010E94E10A6093B9007093DE
:10122000BA008093BB009093BC006091B5007091B0
:10123000B6008091B7009091B8002091B90030912C
:10124000BA004091BB005091BC000E94760A20E099
:1012500030E040E05FE30E94690C60937900709396
:101260007A0080937B0090937C006091B90070912C
:10127000BA008091BB009091BC002091B5003091E4
:10128000B6004091B7005091B8000E94750A2091B5
:1012900066003091670040916800509169000E949B
:1012A000E10A60937D0070937E0080937F009093AD
:1012B0008000309261002092600060917D0070910A
:1012C0007E0080917F009091800020E030E040E43B
:1012D00050E40E94E10A4B015C0160931401709399
:1012E0001501809316019093170160917900709118
:1012F0007A0080917B0090917C0020E030E040E417
:1013000050E40E94E10A6B017C016093BD00709380
:10131000BE008093BF009093C00003E010E04090B7
:1013200095005090960060909700709098006091A2
:101330008D0070918E0080918F00909190000E949E
:10134000DE0A9B01AC01C701B6010E94690C9B013A
:10135000AC01C301B2010E94760A609395007093BC
:101360009600809397009093980040909100509041
:101370009200609093007090940060918D00709145
:101380008E0080918F00909190000E94EC0C9B0148
:10139000AC01C701B6010E94690C9B01AC01C301FD
:1013A000B2010E94760A609391007093920080933C
:1013B00093009093940060918D0070918E008091C5
:1013C0008F0090919000A50194010E94760A60938D
:1013D0008D0070938E0080938F00909390006091A9
:1013E0008D0070918E0080918F00909190002BED78
:1013F0003FE049EC50E40E94650C1816B4F460918B
:101400008D0070918E0080918F00909190002BED57
:101410003FE049EC50E40E94750A60938D007093A0
:101420008E0080938F009093900060918D0070915A
:101430008E0080918F009091900020E030E0A90113
:101440000E94DA0A87FF16C060918D0070918E00AD
:1014500080918F00909190002BED3FE049EC50E49B
:101460000E94760A60938D0070938E0080938F00A7
:1014700090939000015011090115110509F04FCF0B
:1014800080916E00882309F462CE81ED90E00E9485
:101490008D00882309F45BCE89EA90E00E948D00DC
:1014A000882309F454CE81ED90E00E94EA0089EA95
:1014B00090E00E94EA008091D700882311F0C09A42
:1014C00046CEC09844CE991B79E004C0991F961768
:1014D00008F0961B881F7A95C9F780950895EE0F3E
:1014E000FF1F0590F491E02D09945058BB27AA27BF
:1014F0000ED0A0C169D130F06ED120F031F49F3F01
:1015000011F41EF45EC10EF4E095E7FB54C1E92F1F
:10151000B3D180F3BA17620773078407950718F0F1
:1015200071F49EF5CBC10EF4E0950B2EBA2FA02DD1
:101530000B01B90190010C01CA01A0011124FF2780
:10154000591B99F0593F50F4503E68F11A16F0407B
:10155000A22F232F342F4427585FF3CF469537957A
:101560002795A795F0405395C9F77EF41F16BA0B3F
:10157000620B730B840BBAF09150A1F0FF0FBB1FED
:10158000661F771F881FC2F70EC0BA0F621F731F36
:10159000841F48F4879577956795B795F7959E3F93
:1015A00008F0B3CF9395880F08F09927EE0F979521
:1015B00087950895DCD008F481E0089514D1E3956F
:1015C0004AC10CD037C107D140F0FED030F021F431
:1015D0005F3F19F0F0C0511172C1F3C04DD198F3C3
:1015E0009923C9F35523B1F3951B550BBB27AA27A4
:1015F00062177307840738F09F5F5F4F220F331F16
:10160000441FAA1FA9F333D00E2E3AF0E0E830D0E1
:1016100091505040E695001CCAF729D0FE2F27D0E4
:10162000660F771F881FBB1F261737074807AB07B2
:10163000B0E809F0BB0B802DBF01FF2793585F4F27
:101640002AF09E3F510568F0B6C039C15F3FECF308
:10165000983EDCF3869577956795B795F7959F5FEC
:10166000C9F7880F911D9695879597F90895E1E040
:10167000660F771F881FBB1F621773078407BA079F
:1016800020F0621B730B840BBA0BEE1F88F7E095FA
:10169000089504D06894B11112C10895F5D088F06E
:1016A0009F5790F0B92F9927B751A0F0D1F0660F4E
:1016B000771F881F991F1AF0BA95C9F712C0B13069
:1016C00081F0FCD0B1E00895F9C0672F782F88270A
:1016D000B85F39F0B93FCCF3869577956795B395A8
:1016E000D9F73EF490958095709561957F4F8F4F17
:1016F0009F4F0895E89409C097FB3EF4909580951C
:10170000709561957F4F8F4F9F4F9923A9F0F92FC7
:1017100096E9BB279395F695879577956795B79545
:10172000F111F8CFFAF4BB0F11F460FF1BC06F5F2B
:101730007F4F8F4F9F4F16C0882311F096E911C03D
:10174000772321F09EE8872F762F05C0662371F05E
:1017500096E8862F70E060E02AF09A95660F771F72
:10176000881FDAF7880F9695879597F90895990F4E
:101770000008550FAA0BE0E8FEEF16161706E8075B
:10178000F907C0F012161306E407F50798F0621B7C
:10179000730B840B950B39F40A2661F0232B242B51
:1017A000252B21F408950A2609F4A140A6958FEF70
:1017B000811D811D089597F99F6780E870E060E0C2
:1017C00008959FEF80EC089500240A9416161706DA
:1017D00018060906089500240A9412161306140622
:1017E00005060895EECF50D0E8F3E894E0E0BB277B
:1017F0009F57F0F02AED3FE049EC06C0EE0FBB0F1B
:10180000661F771F881F28F0B23A620773078407A4
:1018100028F0B25A620B730B840BE3959A9572F71A
:10182000803830F49A95BB0F661F771F881FD2F758
:101830009048F5C0092E0394000C11F4882352F04F
:10184000BB0F40F4BF2B11F460FF04C06F5F7F4FEC
:101850008F4F9F4F0895EF93E0FF06C0A2EA2AED55
:101860003FE049EC5FEB53DEE5DF0F90039401FCB2
:101870009058E2E6F0E0DFC057FD9058440F551F46
:1018800059F05F3F71F04795880F97FB991F61F002
:101890009F3F79F087950895121613061406551F79
:1018A000F2CF4695F1DF08C0161617061806991FE5
:1018B000F1CF86957105610508940895E894BB27DA
:1018C00066277727CB0197F9089551DF08F48FEF4A
:1018D00008950BD0AFCF78DF28F07DDF18F0952387
:1018E00009F069CF6ECF1124EACFC6DFA0F3959F30
:1018F000D1F3950F50E0551F629FF001729FBB27F7
:10190000F00DB11D639FAA27F00DB11DAA1F649FA2
:101910006627B00DA11D661F829F2227B00DA11D55
:10192000621F739FB00DA11D621F839FA00D611DDB
:10193000221F749F3327A00D611D231F849F600DFC
:10194000211D822F762F6A2F11249F5750408AF035
:10195000E1F088234AF0EE0FFF1FBB1F661F771FC1
:10196000881F91505040A9F79E3F510570F023CF3A
:10197000A6CF5F3FECF3983EDCF3869577956795AD
:10198000B795F795E7959F5FC1F7FE2B880F911DDF
:101990009695879597F9089577DFE0F09E37D8F010
:1019A0009639B8F49E3848F4672F782F8827985FC7
:1019B000F9CF86957795679593959539D0F3B62F9E
:1019C000B1706B0F711D811D20F487957795679518
:1019D000939508C022C073CF9F9305DF0F9007FC3B
:1019E000EE5F39CF882371F4772321F09850872B4D
:1019F000762F07C0662311F499270DC09051862BCE
:101A000070E060E02AF09A95660F771F881FDAF77A
:101A1000880F9695879597F908959F3F31F09150DB
:101A200020F4879577956795B795880F911D9695C2
:101A3000879597F908959F938F937F936F93FF9363
:101A4000EF939B01AC0145DFEF91FF9105D02F9102
:101A50003F914F915F913DCFDF93CF931F930F93B2
:101A6000FF92EF92DF927B018C01689405C0DA2E21
:101A7000EF013BDFFE01E894A59125913591459159
:101A80005591AEF3EF0143DDFE019701A801DA9411
:101A900079F7DF90EF90FF900F911F91CF91DF9139
:061AA0000895F894FFCF49
:101AA6000300000000410000B0419A99AA430100DA
:00000001FF
